{
	"contracts/twitter-tweet.sol": {
		"twittertweet": {
			"abi": [
				{
					"inputs": [],
					"stateMutability": "nonpayable",
					"type": "constructor"
				},
				{
					"inputs": [
						{
							"internalType": "address",
							"name": "owner",
							"type": "address"
						}
					],
					"name": "OwnableInvalidOwner",
					"type": "error"
				},
				{
					"inputs": [
						{
							"internalType": "address",
							"name": "account",
							"type": "address"
						}
					],
					"name": "OwnableUnauthorizedAccount",
					"type": "error"
				},
				{
					"anonymous": false,
					"inputs": [
						{
							"indexed": true,
							"internalType": "address",
							"name": "previousOwner",
							"type": "address"
						},
						{
							"indexed": true,
							"internalType": "address",
							"name": "newOwner",
							"type": "address"
						}
					],
					"name": "OwnershipTransferred",
					"type": "event"
				},
				{
					"anonymous": false,
					"inputs": [
						{
							"indexed": false,
							"internalType": "address",
							"name": "dislikeuser",
							"type": "address"
						},
						{
							"indexed": false,
							"internalType": "address",
							"name": "author",
							"type": "address"
						},
						{
							"indexed": false,
							"internalType": "uint256",
							"name": "id",
							"type": "uint256"
						},
						{
							"indexed": false,
							"internalType": "uint256",
							"name": "likes",
							"type": "uint256"
						}
					],
					"name": "eventdisliketweet",
					"type": "event"
				},
				{
					"anonymous": false,
					"inputs": [
						{
							"indexed": false,
							"internalType": "address",
							"name": "likeuser",
							"type": "address"
						},
						{
							"indexed": false,
							"internalType": "address",
							"name": "author",
							"type": "address"
						},
						{
							"indexed": false,
							"internalType": "uint256",
							"name": "id",
							"type": "uint256"
						},
						{
							"indexed": false,
							"internalType": "uint256",
							"name": "likes",
							"type": "uint256"
						}
					],
					"name": "eventliketweet",
					"type": "event"
				},
				{
					"anonymous": false,
					"inputs": [
						{
							"indexed": false,
							"internalType": "address",
							"name": "author",
							"type": "address"
						},
						{
							"indexed": false,
							"internalType": "uint256",
							"name": "id",
							"type": "uint256"
						},
						{
							"indexed": false,
							"internalType": "string",
							"name": "tweet",
							"type": "string"
						},
						{
							"indexed": false,
							"internalType": "uint256",
							"name": "timestamp",
							"type": "uint256"
						},
						{
							"indexed": false,
							"internalType": "uint256",
							"name": "likes",
							"type": "uint256"
						}
					],
					"name": "gettweetcreate",
					"type": "event"
				},
				{
					"inputs": [],
					"name": "MAX_LENGHT",
					"outputs": [
						{
							"internalType": "uint16",
							"name": "",
							"type": "uint16"
						}
					],
					"stateMutability": "view",
					"type": "function"
				},
				{
					"inputs": [
						{
							"internalType": "uint16",
							"name": "CHANGE_TWEET_LENGHT",
							"type": "uint16"
						}
					],
					"name": "changetweetlenght",
					"outputs": [],
					"stateMutability": "nonpayable",
					"type": "function"
				},
				{
					"inputs": [
						{
							"internalType": "string",
							"name": "_tweet",
							"type": "string"
						}
					],
					"name": "createtweet",
					"outputs": [],
					"stateMutability": "nonpayable",
					"type": "function"
				},
				{
					"inputs": [
						{
							"internalType": "address",
							"name": "author",
							"type": "address"
						},
						{
							"internalType": "uint256",
							"name": "id",
							"type": "uint256"
						}
					],
					"name": "disliketweet",
					"outputs": [],
					"stateMutability": "nonpayable",
					"type": "function"
				},
				{
					"inputs": [
						{
							"internalType": "address",
							"name": "_owner",
							"type": "address"
						}
					],
					"name": "getalltweet",
					"outputs": [
						{
							"components": [
								{
									"internalType": "uint256",
									"name": "id",
									"type": "uint256"
								},
								{
									"internalType": "address",
									"name": "author",
									"type": "address"
								},
								{
									"internalType": "string",
									"name": "content",
									"type": "string"
								},
								{
									"internalType": "uint256",
									"name": "timestamp",
									"type": "uint256"
								},
								{
									"internalType": "uint256",
									"name": "likes",
									"type": "uint256"
								}
							],
							"internalType": "struct twittertweet.tweet[]",
							"name": "",
							"type": "tuple[]"
						}
					],
					"stateMutability": "view",
					"type": "function"
				},
				{
					"inputs": [
						{
							"internalType": "uint256",
							"name": "_i",
							"type": "uint256"
						}
					],
					"name": "gettweet",
					"outputs": [
						{
							"components": [
								{
									"internalType": "uint256",
									"name": "id",
									"type": "uint256"
								},
								{
									"internalType": "address",
									"name": "author",
									"type": "address"
								},
								{
									"internalType": "string",
									"name": "content",
									"type": "string"
								},
								{
									"internalType": "uint256",
									"name": "timestamp",
									"type": "uint256"
								},
								{
									"internalType": "uint256",
									"name": "likes",
									"type": "uint256"
								}
							],
							"internalType": "struct twittertweet.tweet",
							"name": "",
							"type": "tuple"
						}
					],
					"stateMutability": "view",
					"type": "function"
				},
				{
					"inputs": [
						{
							"internalType": "address",
							"name": "author",
							"type": "address"
						},
						{
							"internalType": "uint256",
							"name": "id",
							"type": "uint256"
						}
					],
					"name": "liketweet",
					"outputs": [],
					"stateMutability": "nonpayable",
					"type": "function"
				},
				{
					"inputs": [],
					"name": "owner",
					"outputs": [
						{
							"internalType": "address",
							"name": "",
							"type": "address"
						}
					],
					"stateMutability": "view",
					"type": "function"
				},
				{
					"inputs": [],
					"name": "pause",
					"outputs": [
						{
							"internalType": "bool",
							"name": "",
							"type": "bool"
						}
					],
					"stateMutability": "view",
					"type": "function"
				},
				{
					"inputs": [],
					"name": "pauseed",
					"outputs": [],
					"stateMutability": "nonpayable",
					"type": "function"
				},
				{
					"inputs": [],
					"name": "renounceOwnership",
					"outputs": [],
					"stateMutability": "nonpayable",
					"type": "function"
				},
				{
					"inputs": [
						{
							"internalType": "address",
							"name": "newOwner",
							"type": "address"
						}
					],
					"name": "transferOwnership",
					"outputs": [],
					"stateMutability": "nonpayable",
					"type": "function"
				},
				{
					"inputs": [
						{
							"internalType": "address",
							"name": "",
							"type": "address"
						},
						{
							"internalType": "uint256",
							"name": "",
							"type": "uint256"
						}
					],
					"name": "tweets",
					"outputs": [
						{
							"internalType": "uint256",
							"name": "id",
							"type": "uint256"
						},
						{
							"internalType": "address",
							"name": "author",
							"type": "address"
						},
						{
							"internalType": "string",
							"name": "content",
							"type": "string"
						},
						{
							"internalType": "uint256",
							"name": "timestamp",
							"type": "uint256"
						},
						{
							"internalType": "uint256",
							"name": "likes",
							"type": "uint256"
						}
					],
					"stateMutability": "view",
					"type": "function"
				},
				{
					"inputs": [],
					"name": "unpause",
					"outputs": [],
					"stateMutability": "nonpayable",
					"type": "function"
				}
			],
			"devdoc": {
				"errors": {
					"OwnableInvalidOwner(address)": [
						{
							"details": "The owner is not a valid owner account. (eg. `address(0)`)"
						}
					],
					"OwnableUnauthorizedAccount(address)": [
						{
							"details": "The caller account is not authorized to perform an operation."
						}
					]
				},
				"kind": "dev",
				"methods": {
					"owner()": {
						"details": "Returns the address of the current owner."
					},
					"renounceOwnership()": {
						"details": "Leaves the contract without owner. It will not be possible to call `onlyOwner` functions. Can only be called by the current owner. NOTE: Renouncing ownership will leave the contract without an owner, thereby disabling any functionality that is only available to the owner."
					},
					"transferOwnership(address)": {
						"details": "Transfers ownership of the contract to a new account (`newOwner`). Can only be called by the current owner."
					}
				},
				"version": 1
			},
			"evm": {
				"assembly": "    /* \"contracts/twitter-tweet.sol\":113:2610  contract twittertweet is Ownable(0x5B38Da6a701c568545dCfcB03FcB875f56beddC4){... */\n  mstore(0x40, 0x80)\n    /* \"contracts/twitter-tweet.sol\":279:282  280 */\n  0x0118\n    /* \"contracts/twitter-tweet.sol\":251:282  uint16 public  MAX_LENGHT = 280 */\n  0x00\n  exp(0x0100, 0x15)\n  dup2\n  sload\n  dup2\n  0xffff\n  mul\n  not\n  and\n  swap1\n  dup4\n  0xffff\n  and\n  mul\n  or\n  swap1\n  sstore\n  pop\n    /* \"contracts/twitter-tweet.sol\":569:657  constructor() {... */\n  callvalue\n  dup1\n  iszero\n  tag_1\n  jumpi\n  revert(0x00, 0x00)\ntag_1:\n  pop\n    /* \"contracts/twitter-tweet.sol\":146:188  0x5B38Da6a701c568545dCfcB03FcB875f56beddC4 */\n  0x5b38da6a701c568545dcfcb03fcb875f56beddc4\n    /* \"@openzeppelin/contracts/access/Ownable.sol\":1297:1298  0 */\n  0x00\n    /* \"@openzeppelin/contracts/access/Ownable.sol\":1273:1299  initialOwner == address(0) */\n  0xffffffffffffffffffffffffffffffffffffffff\n  and\n    /* \"@openzeppelin/contracts/access/Ownable.sol\":1273:1285  initialOwner */\n  dup2\n    /* \"@openzeppelin/contracts/access/Ownable.sol\":1273:1299  initialOwner == address(0) */\n  0xffffffffffffffffffffffffffffffffffffffff\n  and\n  sub\n    /* \"@openzeppelin/contracts/access/Ownable.sol\":1269:1364  if (initialOwner == address(0)) {... */\n  tag_5\n  jumpi\n    /* \"@openzeppelin/contracts/access/Ownable.sol\":1350:1351  0 */\n  0x00\n    /* \"@openzeppelin/contracts/access/Ownable.sol\":1322:1353  OwnableInvalidOwner(address(0)) */\n  mload(0x40)\n  0x1e4fbdf700000000000000000000000000000000000000000000000000000000\n  dup2\n  mstore\n  0x04\n  add\n  tag_6\n  swap2\n  swap1\n  tag_7\n  jump\t// in\ntag_6:\n  mload(0x40)\n  dup1\n  swap2\n  sub\n  swap1\n  revert\n    /* \"@openzeppelin/contracts/access/Ownable.sol\":1269:1364  if (initialOwner == address(0)) {... */\ntag_5:\n    /* \"@openzeppelin/contracts/access/Ownable.sol\":1373:1405  _transferOwnership(initialOwner) */\n  tag_8\n    /* \"@openzeppelin/contracts/access/Ownable.sol\":1392:1404  initialOwner */\n  dup2\n    /* \"@openzeppelin/contracts/access/Ownable.sol\":1373:1391  _transferOwnership */\n  shl(0x20, tag_9)\n    /* \"@openzeppelin/contracts/access/Ownable.sol\":1373:1405  _transferOwnership(initialOwner) */\n  0x20\n  shr\n  jump\t// in\ntag_8:\n    /* \"@openzeppelin/contracts/access/Ownable.sol\":1225:1412  constructor(address initialOwner) {... */\n  pop\n    /* \"contracts/twitter-tweet.sol\":644:649  false */\n  0x00\n    /* \"contracts/twitter-tweet.sol\":636:641  pause */\n  0x00\n  0x14\n    /* \"contracts/twitter-tweet.sol\":636:649  pause = false */\n  0x0100\n  exp\n  dup2\n  sload\n  dup2\n  0xff\n  mul\n  not\n  and\n  swap1\n  dup4\n  iszero\n  iszero\n  mul\n  or\n  swap1\n  sstore\n  pop\n    /* \"contracts/twitter-tweet.sol\":113:2610  contract twittertweet is Ownable(0x5B38Da6a701c568545dCfcB03FcB875f56beddC4){... */\n  jump(tag_11)\n    /* \"@openzeppelin/contracts/access/Ownable.sol\":2912:3099  function _transferOwnership(address newOwner) internal virtual {... */\ntag_9:\n    /* \"@openzeppelin/contracts/access/Ownable.sol\":2985:3001  address oldOwner */\n  0x00\n    /* \"@openzeppelin/contracts/access/Ownable.sol\":3004:3010  _owner */\n  0x00\n  0x00\n  swap1\n  sload\n  swap1\n  0x0100\n  exp\n  swap1\n  div\n  0xffffffffffffffffffffffffffffffffffffffff\n  and\n    /* \"@openzeppelin/contracts/access/Ownable.sol\":2985:3010  address oldOwner = _owner */\n  swap1\n  pop\n    /* \"@openzeppelin/contracts/access/Ownable.sol\":3029:3037  newOwner */\n  dup2\n    /* \"@openzeppelin/contracts/access/Ownable.sol\":3020:3026  _owner */\n  0x00\n  0x00\n    /* \"@openzeppelin/contracts/access/Ownable.sol\":3020:3037  _owner = newOwner */\n  0x0100\n  exp\n  dup2\n  sload\n  dup2\n  0xffffffffffffffffffffffffffffffffffffffff\n  mul\n  not\n  and\n  swap1\n  dup4\n  0xffffffffffffffffffffffffffffffffffffffff\n  and\n  mul\n  or\n  swap1\n  sstore\n  pop\n    /* \"@openzeppelin/contracts/access/Ownable.sol\":3083:3091  newOwner */\n  dup2\n    /* \"@openzeppelin/contracts/access/Ownable.sol\":3052:3092  OwnershipTransferred(oldOwner, newOwner) */\n  0xffffffffffffffffffffffffffffffffffffffff\n  and\n    /* \"@openzeppelin/contracts/access/Ownable.sol\":3073:3081  oldOwner */\n  dup2\n    /* \"@openzeppelin/contracts/access/Ownable.sol\":3052:3092  OwnershipTransferred(oldOwner, newOwner) */\n  0xffffffffffffffffffffffffffffffffffffffff\n  and\n  0x8be0079c531659141344cd1fd0a4f28419497f9722a3daafe3b4186f6b6457e0\n  mload(0x40)\n  mload(0x40)\n  dup1\n  swap2\n  sub\n  swap1\n  log3\n    /* \"@openzeppelin/contracts/access/Ownable.sol\":2975:3099  {... */\n  pop\n    /* \"@openzeppelin/contracts/access/Ownable.sol\":2912:3099  function _transferOwnership(address newOwner) internal virtual {... */\n  pop\n  jump\t// out\n    /* \"#utility.yul\":7:133   */\ntag_13:\n    /* \"#utility.yul\":44:51   */\n  0x00\n    /* \"#utility.yul\":84:126   */\n  0xffffffffffffffffffffffffffffffffffffffff\n    /* \"#utility.yul\":77:82   */\n  dup3\n    /* \"#utility.yul\":73:127   */\n  and\n    /* \"#utility.yul\":62:127   */\n  swap1\n  pop\n    /* \"#utility.yul\":7:133   */\n  swap2\n  swap1\n  pop\n  jump\t// out\n    /* \"#utility.yul\":139:235   */\ntag_14:\n    /* \"#utility.yul\":176:183   */\n  0x00\n    /* \"#utility.yul\":205:229   */\n  tag_19\n    /* \"#utility.yul\":223:228   */\n  dup3\n    /* \"#utility.yul\":205:229   */\n  tag_13\n  jump\t// in\ntag_19:\n    /* \"#utility.yul\":194:229   */\n  swap1\n  pop\n    /* \"#utility.yul\":139:235   */\n  swap2\n  swap1\n  pop\n  jump\t// out\n    /* \"#utility.yul\":241:359   */\ntag_15:\n    /* \"#utility.yul\":328:352   */\n  tag_21\n    /* \"#utility.yul\":346:351   */\n  dup2\n    /* \"#utility.yul\":328:352   */\n  tag_14\n  jump\t// in\ntag_21:\n    /* \"#utility.yul\":323:326   */\n  dup3\n    /* \"#utility.yul\":316:353   */\n  mstore\n    /* \"#utility.yul\":241:359   */\n  pop\n  pop\n  jump\t// out\n    /* \"#utility.yul\":365:587   */\ntag_7:\n    /* \"#utility.yul\":458:462   */\n  0x00\n    /* \"#utility.yul\":496:498   */\n  0x20\n    /* \"#utility.yul\":485:494   */\n  dup3\n    /* \"#utility.yul\":481:499   */\n  add\n    /* \"#utility.yul\":473:499   */\n  swap1\n  pop\n    /* \"#utility.yul\":509:580   */\n  tag_23\n    /* \"#utility.yul\":577:578   */\n  0x00\n    /* \"#utility.yul\":566:575   */\n  dup4\n    /* \"#utility.yul\":562:579   */\n  add\n    /* \"#utility.yul\":553:559   */\n  dup5\n    /* \"#utility.yul\":509:580   */\n  tag_15\n  jump\t// in\ntag_23:\n    /* \"#utility.yul\":365:587   */\n  swap3\n  swap2\n  pop\n  pop\n  jump\t// out\n    /* \"contracts/twitter-tweet.sol\":113:2610  contract twittertweet is Ownable(0x5B38Da6a701c568545dCfcB03FcB875f56beddC4){... */\ntag_11:\n  dataSize(sub_0)\n  dup1\n  dataOffset(sub_0)\n  0x00\n  codecopy\n  0x00\n  return\nstop\n\nsub_0: assembly {\n        /* \"contracts/twitter-tweet.sol\":113:2610  contract twittertweet is Ownable(0x5B38Da6a701c568545dCfcB03FcB875f56beddC4){... */\n      mstore(0x40, 0x80)\n      callvalue\n      dup1\n      iszero\n      tag_1\n      jumpi\n      revert(0x00, 0x00)\n    tag_1:\n      pop\n      jumpi(tag_2, lt(calldatasize, 0x04))\n      shr(0xe0, calldataload(0x00))\n      dup1\n      0x8d70c7db\n      gt\n      tag_17\n      jumpi\n      dup1\n      0xb0b375d2\n      gt\n      tag_18\n      jumpi\n      dup1\n      0xb0b375d2\n      eq\n      tag_13\n      jumpi\n      dup1\n      0xb8e4f167\n      eq\n      tag_14\n      jumpi\n      dup1\n      0xd4333cd0\n      eq\n      tag_15\n      jumpi\n      dup1\n      0xf2fde38b\n      eq\n      tag_16\n      jumpi\n      jump(tag_2)\n    tag_18:\n      dup1\n      0x8d70c7db\n      eq\n      tag_10\n      jumpi\n      dup1\n      0x8da5cb5b\n      eq\n      tag_11\n      jumpi\n      dup1\n      0xa8b606d6\n      eq\n      tag_12\n      jumpi\n      jump(tag_2)\n    tag_17:\n      dup1\n      0x4e61573f\n      gt\n      tag_19\n      jumpi\n      dup1\n      0x4e61573f\n      eq\n      tag_6\n      jumpi\n      dup1\n      0x6b05bc7c\n      eq\n      tag_7\n      jumpi\n      dup1\n      0x715018a6\n      eq\n      tag_8\n      jumpi\n      dup1\n      0x8456cb59\n      eq\n      tag_9\n      jumpi\n      jump(tag_2)\n    tag_19:\n      dup1\n      0x05a1b4a9\n      eq\n      tag_3\n      jumpi\n      dup1\n      0x34e9d898\n      eq\n      tag_4\n      jumpi\n      dup1\n      0x3f4ba83a\n      eq\n      tag_5\n      jumpi\n    tag_2:\n      revert(0x00, 0x00)\n        /* \"contracts/twitter-tweet.sol\":1274:1315  mapping(address => tweet[]) public tweets */\n    tag_3:\n      tag_20\n      0x04\n      dup1\n      calldatasize\n      sub\n      dup2\n      add\n      swap1\n      tag_21\n      swap2\n      swap1\n      tag_22\n      jump\t// in\n    tag_21:\n      tag_23\n      jump\t// in\n    tag_20:\n      mload(0x40)\n      tag_24\n      swap6\n      swap5\n      swap4\n      swap3\n      swap2\n      swap1\n      tag_25\n      jump\t// in\n    tag_24:\n      mload(0x40)\n      dup1\n      swap2\n      sub\n      swap1\n      return\n        /* \"contracts/twitter-tweet.sol\":971:1107  function changetweetlenght(uint16 CHANGE_TWEET_LENGHT) public onlyOwner checkpause {... */\n    tag_4:\n      tag_26\n      0x04\n      dup1\n      calldatasize\n      sub\n      dup2\n      add\n      swap1\n      tag_27\n      swap2\n      swap1\n      tag_28\n      jump\t// in\n    tag_27:\n      tag_29\n      jump\t// in\n    tag_26:\n      stop\n        /* \"contracts/twitter-tweet.sol\":895:965  function unpause() public  onlyOwner{... */\n    tag_5:\n      tag_30\n      tag_31\n      jump\t// in\n    tag_30:\n      stop\n        /* \"contracts/twitter-tweet.sol\":1849:1961  function gettweet(uint256 _i) public view returns (tweet memory){... */\n    tag_6:\n      tag_32\n      0x04\n      dup1\n      calldatasize\n      sub\n      dup2\n      add\n      swap1\n      tag_33\n      swap2\n      swap1\n      tag_34\n      jump\t// in\n    tag_33:\n      tag_35\n      jump\t// in\n    tag_32:\n      mload(0x40)\n      tag_36\n      swap2\n      swap1\n      tag_37\n      jump\t// in\n    tag_36:\n      mload(0x40)\n      dup1\n      swap2\n      sub\n      swap1\n      return\n        /* \"contracts/twitter-tweet.sol\":2345:2607  function disliketweet( address author,uint256 id) external{... */\n    tag_7:\n      tag_38\n      0x04\n      dup1\n      calldatasize\n      sub\n      dup2\n      add\n      swap1\n      tag_39\n      swap2\n      swap1\n      tag_22\n      jump\t// in\n    tag_39:\n      tag_40\n      jump\t// in\n    tag_38:\n      stop\n        /* \"@openzeppelin/contracts/access/Ownable.sol\":2293:2394  function renounceOwnership() public virtual onlyOwner {... */\n    tag_8:\n      tag_41\n      tag_42\n      jump\t// in\n    tag_41:\n      stop\n        /* \"contracts/twitter-tweet.sol\":227:244  bool public pause */\n    tag_9:\n      tag_43\n      tag_44\n      jump\t// in\n    tag_43:\n      mload(0x40)\n      tag_45\n      swap2\n      swap1\n      tag_46\n      jump\t// in\n    tag_45:\n      mload(0x40)\n      dup1\n      swap2\n      sub\n      swap1\n      return\n        /* \"contracts/twitter-tweet.sol\":251:282  uint16 public  MAX_LENGHT = 280 */\n    tag_10:\n      tag_47\n      tag_48\n      jump\t// in\n    tag_47:\n      mload(0x40)\n      tag_49\n      swap2\n      swap1\n      tag_50\n      jump\t// in\n    tag_49:\n      mload(0x40)\n      dup1\n      swap2\n      sub\n      swap1\n      return\n        /* \"@openzeppelin/contracts/access/Ownable.sol\":1638:1723  function owner() public view virtual returns (address) {... */\n    tag_11:\n      tag_51\n      tag_52\n      jump\t// in\n    tag_51:\n      mload(0x40)\n      tag_53\n      swap2\n      swap1\n      tag_54\n      jump\t// in\n    tag_53:\n      mload(0x40)\n      dup1\n      swap2\n      sub\n      swap1\n      return\n        /* \"contracts/twitter-tweet.sol\":1967:2080  function getalltweet(address _owner) public view returns (tweet[] memory){... */\n    tag_12:\n      tag_55\n      0x04\n      dup1\n      calldatasize\n      sub\n      dup2\n      add\n      swap1\n      tag_56\n      swap2\n      swap1\n      tag_57\n      jump\t// in\n    tag_56:\n      tag_58\n      jump\t// in\n    tag_55:\n      mload(0x40)\n      tag_59\n      swap2\n      swap1\n      tag_60\n      jump\t// in\n    tag_59:\n      mload(0x40)\n      dup1\n      swap2\n      sub\n      swap1\n      return\n        /* \"contracts/twitter-tweet.sol\":771:889  function pauseed() public onlyOwner{... */\n    tag_13:\n      tag_61\n      tag_62\n      jump\t// in\n    tag_61:\n      stop\n        /* \"contracts/twitter-tweet.sol\":1322:1843  function createtweet(string memory _tweet) public {... */\n    tag_14:\n      tag_63\n      0x04\n      dup1\n      calldatasize\n      sub\n      dup2\n      add\n      swap1\n      tag_64\n      swap2\n      swap1\n      tag_65\n      jump\t// in\n    tag_64:\n      tag_66\n      jump\t// in\n    tag_63:\n      stop\n        /* \"contracts/twitter-tweet.sol\":2086:2339  function liketweet(address author,uint256 id) external{... */\n    tag_15:\n      tag_67\n      0x04\n      dup1\n      calldatasize\n      sub\n      dup2\n      add\n      swap1\n      tag_68\n      swap2\n      swap1\n      tag_22\n      jump\t// in\n    tag_68:\n      tag_69\n      jump\t// in\n    tag_67:\n      stop\n        /* \"@openzeppelin/contracts/access/Ownable.sol\":2543:2758  function transferOwnership(address newOwner) public virtual onlyOwner {... */\n    tag_16:\n      tag_70\n      0x04\n      dup1\n      calldatasize\n      sub\n      dup2\n      add\n      swap1\n      tag_71\n      swap2\n      swap1\n      tag_57\n      jump\t// in\n    tag_71:\n      tag_72\n      jump\t// in\n    tag_70:\n      stop\n        /* \"contracts/twitter-tweet.sol\":1274:1315  mapping(address => tweet[]) public tweets */\n    tag_23:\n      mstore(0x20, 0x01)\n      dup2\n      0x00\n      mstore\n      keccak256(0x00, 0x40)\n      dup2\n      dup2\n      sload\n      dup2\n      lt\n      tag_73\n      jumpi\n      0x00\n      dup1\n      revert\n    tag_73:\n      swap1\n      0x00\n      mstore\n      keccak256(0x00, 0x20)\n      swap1\n      0x05\n      mul\n      add\n      0x00\n      swap2\n      pop\n      swap2\n      pop\n      pop\n      dup1\n      0x00\n      add\n      sload\n      swap1\n      dup1\n      0x01\n      add\n      0x00\n      swap1\n      sload\n      swap1\n      0x0100\n      exp\n      swap1\n      div\n      0xffffffffffffffffffffffffffffffffffffffff\n      and\n      swap1\n      dup1\n      0x02\n      add\n      dup1\n      sload\n      tag_75\n      swap1\n      tag_76\n      jump\t// in\n    tag_75:\n      dup1\n      0x1f\n      add\n      0x20\n      dup1\n      swap2\n      div\n      mul\n      0x20\n      add\n      mload(0x40)\n      swap1\n      dup2\n      add\n      0x40\n      mstore\n      dup1\n      swap3\n      swap2\n      swap1\n      dup2\n      dup2\n      mstore\n      0x20\n      add\n      dup3\n      dup1\n      sload\n      tag_77\n      swap1\n      tag_76\n      jump\t// in\n    tag_77:\n      dup1\n      iszero\n      tag_78\n      jumpi\n      dup1\n      0x1f\n      lt\n      tag_79\n      jumpi\n      0x0100\n      dup1\n      dup4\n      sload\n      div\n      mul\n      dup4\n      mstore\n      swap2\n      0x20\n      add\n      swap2\n      jump(tag_78)\n    tag_79:\n      dup3\n      add\n      swap2\n      swap1\n      0x00\n      mstore\n      keccak256(0x00, 0x20)\n      swap1\n    tag_80:\n      dup2\n      sload\n      dup2\n      mstore\n      swap1\n      0x01\n      add\n      swap1\n      0x20\n      add\n      dup1\n      dup4\n      gt\n      tag_80\n      jumpi\n      dup3\n      swap1\n      sub\n      0x1f\n      and\n      dup3\n      add\n      swap2\n    tag_78:\n      pop\n      pop\n      pop\n      pop\n      pop\n      swap1\n      dup1\n      0x03\n      add\n      sload\n      swap1\n      dup1\n      0x04\n      add\n      sload\n      swap1\n      pop\n      dup6\n      jump\t// out\n        /* \"contracts/twitter-tweet.sol\":971:1107  function changetweetlenght(uint16 CHANGE_TWEET_LENGHT) public onlyOwner checkpause {... */\n    tag_29:\n        /* \"@openzeppelin/contracts/access/Ownable.sol\":1531:1544  _checkOwner() */\n      tag_82\n        /* \"@openzeppelin/contracts/access/Ownable.sol\":1531:1542  _checkOwner */\n      tag_83\n        /* \"@openzeppelin/contracts/access/Ownable.sol\":1531:1544  _checkOwner() */\n      jump\t// in\n    tag_82:\n        /* \"contracts/twitter-tweet.sol\":719:724  false */\n      0x00\n        /* \"contracts/twitter-tweet.sol\":710:724  pause == false */\n      iszero\n      iszero\n        /* \"contracts/twitter-tweet.sol\":710:715  pause */\n      0x00\n      0x14\n      swap1\n      sload\n      swap1\n      0x0100\n      exp\n      swap1\n      div\n      0xff\n      and\n        /* \"contracts/twitter-tweet.sol\":710:724  pause == false */\n      iszero\n      iszero\n      eq\n        /* \"contracts/twitter-tweet.sol\":702:745  require(pause == false,\"contract is pause\") */\n      tag_85\n      jumpi\n      mload(0x40)\n      0x08c379a000000000000000000000000000000000000000000000000000000000\n      dup2\n      mstore\n      0x04\n      add\n      tag_86\n      swap1\n      tag_87\n      jump\t// in\n    tag_86:\n      mload(0x40)\n      dup1\n      swap2\n      sub\n      swap1\n      revert\n    tag_85:\n        /* \"contracts/twitter-tweet.sol\":1078:1097  CHANGE_TWEET_LENGHT */\n      dup1\n        /* \"contracts/twitter-tweet.sol\":1065:1075  MAX_LENGHT */\n      0x00\n      0x15\n        /* \"contracts/twitter-tweet.sol\":1065:1097  MAX_LENGHT = CHANGE_TWEET_LENGHT */\n      0x0100\n      exp\n      dup2\n      sload\n      dup2\n      0xffff\n      mul\n      not\n      and\n      swap1\n      dup4\n      0xffff\n      and\n      mul\n      or\n      swap1\n      sstore\n      pop\n        /* \"contracts/twitter-tweet.sol\":971:1107  function changetweetlenght(uint16 CHANGE_TWEET_LENGHT) public onlyOwner checkpause {... */\n      pop\n      jump\t// out\n        /* \"contracts/twitter-tweet.sol\":895:965  function unpause() public  onlyOwner{... */\n    tag_31:\n        /* \"@openzeppelin/contracts/access/Ownable.sol\":1531:1544  _checkOwner() */\n      tag_90\n        /* \"@openzeppelin/contracts/access/Ownable.sol\":1531:1542  _checkOwner */\n      tag_83\n        /* \"@openzeppelin/contracts/access/Ownable.sol\":1531:1544  _checkOwner() */\n      jump\t// in\n    tag_90:\n        /* \"contracts/twitter-tweet.sol\":950:955  false */\n      0x00\n        /* \"contracts/twitter-tweet.sol\":942:947  pause */\n      0x00\n      0x14\n        /* \"contracts/twitter-tweet.sol\":942:955  pause = false */\n      0x0100\n      exp\n      dup2\n      sload\n      dup2\n      0xff\n      mul\n      not\n      and\n      swap1\n      dup4\n      iszero\n      iszero\n      mul\n      or\n      swap1\n      sstore\n      pop\n        /* \"contracts/twitter-tweet.sol\":895:965  function unpause() public  onlyOwner{... */\n      jump\t// out\n        /* \"contracts/twitter-tweet.sol\":1849:1961  function gettweet(uint256 _i) public view returns (tweet memory){... */\n    tag_35:\n        /* \"contracts/twitter-tweet.sol\":1900:1912  tweet memory */\n      tag_92\n      tag_93\n      jump\t// in\n    tag_92:\n        /* \"contracts/twitter-tweet.sol\":1931:1937  tweets */\n      0x01\n        /* \"contracts/twitter-tweet.sol\":1931:1949  tweets[msg.sender] */\n      0x00\n        /* \"contracts/twitter-tweet.sol\":1938:1948  msg.sender */\n      caller\n        /* \"contracts/twitter-tweet.sol\":1931:1949  tweets[msg.sender] */\n      0xffffffffffffffffffffffffffffffffffffffff\n      and\n      0xffffffffffffffffffffffffffffffffffffffff\n      and\n      dup2\n      mstore\n      0x20\n      add\n      swap1\n      dup2\n      mstore\n      0x20\n      add\n      0x00\n      keccak256\n        /* \"contracts/twitter-tweet.sol\":1950:1952  _i */\n      dup3\n        /* \"contracts/twitter-tweet.sol\":1931:1953  tweets[msg.sender][_i] */\n      dup2\n      sload\n      dup2\n      lt\n      tag_95\n      jumpi\n      tag_96\n      tag_97\n      jump\t// in\n    tag_96:\n    tag_95:\n      swap1\n      0x00\n      mstore\n      keccak256(0x00, 0x20)\n      swap1\n      0x05\n      mul\n      add\n        /* \"contracts/twitter-tweet.sol\":1924:1953  return tweets[msg.sender][_i] */\n      mload(0x40)\n      dup1\n      0xa0\n      add\n      0x40\n      mstore\n      swap1\n      dup2\n      0x00\n      dup3\n      add\n      sload\n      dup2\n      mstore\n      0x20\n      add\n      0x01\n      dup3\n      add\n      0x00\n      swap1\n      sload\n      swap1\n      0x0100\n      exp\n      swap1\n      div\n      0xffffffffffffffffffffffffffffffffffffffff\n      and\n      0xffffffffffffffffffffffffffffffffffffffff\n      and\n      0xffffffffffffffffffffffffffffffffffffffff\n      and\n      dup2\n      mstore\n      0x20\n      add\n      0x02\n      dup3\n      add\n      dup1\n      sload\n      tag_99\n      swap1\n      tag_76\n      jump\t// in\n    tag_99:\n      dup1\n      0x1f\n      add\n      0x20\n      dup1\n      swap2\n      div\n      mul\n      0x20\n      add\n      mload(0x40)\n      swap1\n      dup2\n      add\n      0x40\n      mstore\n      dup1\n      swap3\n      swap2\n      swap1\n      dup2\n      dup2\n      mstore\n      0x20\n      add\n      dup3\n      dup1\n      sload\n      tag_100\n      swap1\n      tag_76\n      jump\t// in\n    tag_100:\n      dup1\n      iszero\n      tag_101\n      jumpi\n      dup1\n      0x1f\n      lt\n      tag_102\n      jumpi\n      0x0100\n      dup1\n      dup4\n      sload\n      div\n      mul\n      dup4\n      mstore\n      swap2\n      0x20\n      add\n      swap2\n      jump(tag_101)\n    tag_102:\n      dup3\n      add\n      swap2\n      swap1\n      0x00\n      mstore\n      keccak256(0x00, 0x20)\n      swap1\n    tag_103:\n      dup2\n      sload\n      dup2\n      mstore\n      swap1\n      0x01\n      add\n      swap1\n      0x20\n      add\n      dup1\n      dup4\n      gt\n      tag_103\n      jumpi\n      dup3\n      swap1\n      sub\n      0x1f\n      and\n      dup3\n      add\n      swap2\n    tag_101:\n      pop\n      pop\n      pop\n      pop\n      pop\n      dup2\n      mstore\n      0x20\n      add\n      0x03\n      dup3\n      add\n      sload\n      dup2\n      mstore\n      0x20\n      add\n      0x04\n      dup3\n      add\n      sload\n      dup2\n      mstore\n      pop\n      pop\n      swap1\n      pop\n        /* \"contracts/twitter-tweet.sol\":1849:1961  function gettweet(uint256 _i) public view returns (tweet memory){... */\n      swap2\n      swap1\n      pop\n      jump\t// out\n        /* \"contracts/twitter-tweet.sol\":2345:2607  function disliketweet( address author,uint256 id) external{... */\n    tag_40:\n        /* \"contracts/twitter-tweet.sol\":2445:2447  id */\n      dup1\n        /* \"contracts/twitter-tweet.sol\":2422:2428  tweets */\n      0x01\n        /* \"contracts/twitter-tweet.sol\":2422:2436  tweets[author] */\n      0x00\n        /* \"contracts/twitter-tweet.sol\":2429:2435  author */\n      dup5\n        /* \"contracts/twitter-tweet.sol\":2422:2436  tweets[author] */\n      0xffffffffffffffffffffffffffffffffffffffff\n      and\n      0xffffffffffffffffffffffffffffffffffffffff\n      and\n      dup2\n      mstore\n      0x20\n      add\n      swap1\n      dup2\n      mstore\n      0x20\n      add\n      0x00\n      keccak256\n        /* \"contracts/twitter-tweet.sol\":2437:2439  id */\n      dup3\n        /* \"contracts/twitter-tweet.sol\":2422:2440  tweets[author][id] */\n      dup2\n      sload\n      dup2\n      lt\n      tag_105\n      jumpi\n      tag_106\n      tag_97\n      jump\t// in\n    tag_106:\n    tag_105:\n      swap1\n      0x00\n      mstore\n      keccak256(0x00, 0x20)\n      swap1\n      0x05\n      mul\n      add\n        /* \"contracts/twitter-tweet.sol\":2422:2443  tweets[author][id].id */\n      0x00\n      add\n      sload\n        /* \"contracts/twitter-tweet.sol\":2422:2447  tweets[author][id].id==id */\n      eq\n        /* \"contracts/twitter-tweet.sol\":2414:2473  require(tweets[author][id].id==id,\"the tweet is not found\") */\n      tag_108\n      jumpi\n      mload(0x40)\n      0x08c379a000000000000000000000000000000000000000000000000000000000\n      dup2\n      mstore\n      0x04\n      add\n      tag_109\n      swap1\n      tag_110\n      jump\t// in\n    tag_109:\n      mload(0x40)\n      dup1\n      swap2\n      sub\n      swap1\n      revert\n    tag_108:\n        /* \"contracts/twitter-tweet.sol\":2486:2492  tweets */\n      0x01\n        /* \"contracts/twitter-tweet.sol\":2486:2500  tweets[author] */\n      0x00\n        /* \"contracts/twitter-tweet.sol\":2493:2499  author */\n      dup4\n        /* \"contracts/twitter-tweet.sol\":2486:2500  tweets[author] */\n      0xffffffffffffffffffffffffffffffffffffffff\n      and\n      0xffffffffffffffffffffffffffffffffffffffff\n      and\n      dup2\n      mstore\n      0x20\n      add\n      swap1\n      dup2\n      mstore\n      0x20\n      add\n      0x00\n      keccak256\n        /* \"contracts/twitter-tweet.sol\":2501:2503  id */\n      dup2\n        /* \"contracts/twitter-tweet.sol\":2486:2504  tweets[author][id] */\n      dup2\n      sload\n      dup2\n      lt\n      tag_111\n      jumpi\n      tag_112\n      tag_97\n      jump\t// in\n    tag_112:\n    tag_111:\n      swap1\n      0x00\n      mstore\n      keccak256(0x00, 0x20)\n      swap1\n      0x05\n      mul\n      add\n        /* \"contracts/twitter-tweet.sol\":2486:2510  tweets[author][id].likes */\n      0x04\n      add\n      0x00\n        /* \"contracts/twitter-tweet.sol\":2486:2512  tweets[author][id].likes-- */\n      dup2\n      sload\n      dup1\n      swap3\n      swap2\n      swap1\n      tag_114\n      swap1\n      tag_115\n      jump\t// in\n    tag_114:\n      swap2\n      swap1\n      pop\n      sstore\n      pop\n        /* \"contracts/twitter-tweet.sol\":2528:2595  eventdisliketweet(msg.sender, author , id,tweets[author][id].likes) */\n      0xf108f246d05459643c2e6d7a2484a10c697fb61161fbbfdfe4b06327f57977fa\n        /* \"contracts/twitter-tweet.sol\":2546:2556  msg.sender */\n      caller\n        /* \"contracts/twitter-tweet.sol\":2558:2564  author */\n      dup4\n        /* \"contracts/twitter-tweet.sol\":2567:2569  id */\n      dup4\n        /* \"contracts/twitter-tweet.sol\":2570:2576  tweets */\n      0x01\n        /* \"contracts/twitter-tweet.sol\":2570:2584  tweets[author] */\n      0x00\n        /* \"contracts/twitter-tweet.sol\":2577:2583  author */\n      dup8\n        /* \"contracts/twitter-tweet.sol\":2570:2584  tweets[author] */\n      0xffffffffffffffffffffffffffffffffffffffff\n      and\n      0xffffffffffffffffffffffffffffffffffffffff\n      and\n      dup2\n      mstore\n      0x20\n      add\n      swap1\n      dup2\n      mstore\n      0x20\n      add\n      0x00\n      keccak256\n        /* \"contracts/twitter-tweet.sol\":2585:2587  id */\n      dup6\n        /* \"contracts/twitter-tweet.sol\":2570:2588  tweets[author][id] */\n      dup2\n      sload\n      dup2\n      lt\n      tag_116\n      jumpi\n      tag_117\n      tag_97\n      jump\t// in\n    tag_117:\n    tag_116:\n      swap1\n      0x00\n      mstore\n      keccak256(0x00, 0x20)\n      swap1\n      0x05\n      mul\n      add\n        /* \"contracts/twitter-tweet.sol\":2570:2594  tweets[author][id].likes */\n      0x04\n      add\n      sload\n        /* \"contracts/twitter-tweet.sol\":2528:2595  eventdisliketweet(msg.sender, author , id,tweets[author][id].likes) */\n      mload(0x40)\n      tag_119\n      swap5\n      swap4\n      swap3\n      swap2\n      swap1\n      tag_120\n      jump\t// in\n    tag_119:\n      mload(0x40)\n      dup1\n      swap2\n      sub\n      swap1\n      log1\n        /* \"contracts/twitter-tweet.sol\":2345:2607  function disliketweet( address author,uint256 id) external{... */\n      pop\n      pop\n      jump\t// out\n        /* \"@openzeppelin/contracts/access/Ownable.sol\":2293:2394  function renounceOwnership() public virtual onlyOwner {... */\n    tag_42:\n        /* \"@openzeppelin/contracts/access/Ownable.sol\":1531:1544  _checkOwner() */\n      tag_122\n        /* \"@openzeppelin/contracts/access/Ownable.sol\":1531:1542  _checkOwner */\n      tag_83\n        /* \"@openzeppelin/contracts/access/Ownable.sol\":1531:1544  _checkOwner() */\n      jump\t// in\n    tag_122:\n        /* \"@openzeppelin/contracts/access/Ownable.sol\":2357:2387  _transferOwnership(address(0)) */\n      tag_124\n        /* \"@openzeppelin/contracts/access/Ownable.sol\":2384:2385  0 */\n      0x00\n        /* \"@openzeppelin/contracts/access/Ownable.sol\":2357:2375  _transferOwnership */\n      tag_125\n        /* \"@openzeppelin/contracts/access/Ownable.sol\":2357:2387  _transferOwnership(address(0)) */\n      jump\t// in\n    tag_124:\n        /* \"@openzeppelin/contracts/access/Ownable.sol\":2293:2394  function renounceOwnership() public virtual onlyOwner {... */\n      jump\t// out\n        /* \"contracts/twitter-tweet.sol\":227:244  bool public pause */\n    tag_44:\n      0x00\n      0x14\n      swap1\n      sload\n      swap1\n      0x0100\n      exp\n      swap1\n      div\n      0xff\n      and\n      dup2\n      jump\t// out\n        /* \"contracts/twitter-tweet.sol\":251:282  uint16 public  MAX_LENGHT = 280 */\n    tag_48:\n      0x00\n      0x15\n      swap1\n      sload\n      swap1\n      0x0100\n      exp\n      swap1\n      div\n      0xffff\n      and\n      dup2\n      jump\t// out\n        /* \"@openzeppelin/contracts/access/Ownable.sol\":1638:1723  function owner() public view virtual returns (address) {... */\n    tag_52:\n        /* \"@openzeppelin/contracts/access/Ownable.sol\":1684:1691  address */\n      0x00\n        /* \"@openzeppelin/contracts/access/Ownable.sol\":1710:1716  _owner */\n      0x00\n      0x00\n      swap1\n      sload\n      swap1\n      0x0100\n      exp\n      swap1\n      div\n      0xffffffffffffffffffffffffffffffffffffffff\n      and\n        /* \"@openzeppelin/contracts/access/Ownable.sol\":1703:1716  return _owner */\n      swap1\n      pop\n        /* \"@openzeppelin/contracts/access/Ownable.sol\":1638:1723  function owner() public view virtual returns (address) {... */\n      swap1\n      jump\t// out\n        /* \"contracts/twitter-tweet.sol\":1967:2080  function getalltweet(address _owner) public view returns (tweet[] memory){... */\n    tag_58:\n        /* \"contracts/twitter-tweet.sol\":2025:2039  tweet[] memory */\n      0x60\n        /* \"contracts/twitter-tweet.sol\":2058:2064  tweets */\n      0x01\n        /* \"contracts/twitter-tweet.sol\":2058:2072  tweets[_owner] */\n      0x00\n        /* \"contracts/twitter-tweet.sol\":2065:2071  _owner */\n      dup4\n        /* \"contracts/twitter-tweet.sol\":2058:2072  tweets[_owner] */\n      0xffffffffffffffffffffffffffffffffffffffff\n      and\n      0xffffffffffffffffffffffffffffffffffffffff\n      and\n      dup2\n      mstore\n      0x20\n      add\n      swap1\n      dup2\n      mstore\n      0x20\n      add\n      0x00\n      keccak256\n        /* \"contracts/twitter-tweet.sol\":2051:2072  return tweets[_owner] */\n      dup1\n      sload\n      dup1\n      0x20\n      mul\n      0x20\n      add\n      mload(0x40)\n      swap1\n      dup2\n      add\n      0x40\n      mstore\n      dup1\n      swap3\n      swap2\n      swap1\n      dup2\n      dup2\n      mstore\n      0x20\n      add\n      0x00\n      swap1\n    tag_128:\n      dup3\n      dup3\n      lt\n      iszero\n      tag_129\n      jumpi\n      dup4\n      dup3\n      swap1\n      0x00\n      mstore\n      keccak256(0x00, 0x20)\n      swap1\n      0x05\n      mul\n      add\n      mload(0x40)\n      dup1\n      0xa0\n      add\n      0x40\n      mstore\n      swap1\n      dup2\n      0x00\n      dup3\n      add\n      sload\n      dup2\n      mstore\n      0x20\n      add\n      0x01\n      dup3\n      add\n      0x00\n      swap1\n      sload\n      swap1\n      0x0100\n      exp\n      swap1\n      div\n      0xffffffffffffffffffffffffffffffffffffffff\n      and\n      0xffffffffffffffffffffffffffffffffffffffff\n      and\n      0xffffffffffffffffffffffffffffffffffffffff\n      and\n      dup2\n      mstore\n      0x20\n      add\n      0x02\n      dup3\n      add\n      dup1\n      sload\n      tag_131\n      swap1\n      tag_76\n      jump\t// in\n    tag_131:\n      dup1\n      0x1f\n      add\n      0x20\n      dup1\n      swap2\n      div\n      mul\n      0x20\n      add\n      mload(0x40)\n      swap1\n      dup2\n      add\n      0x40\n      mstore\n      dup1\n      swap3\n      swap2\n      swap1\n      dup2\n      dup2\n      mstore\n      0x20\n      add\n      dup3\n      dup1\n      sload\n      tag_132\n      swap1\n      tag_76\n      jump\t// in\n    tag_132:\n      dup1\n      iszero\n      tag_133\n      jumpi\n      dup1\n      0x1f\n      lt\n      tag_134\n      jumpi\n      0x0100\n      dup1\n      dup4\n      sload\n      div\n      mul\n      dup4\n      mstore\n      swap2\n      0x20\n      add\n      swap2\n      jump(tag_133)\n    tag_134:\n      dup3\n      add\n      swap2\n      swap1\n      0x00\n      mstore\n      keccak256(0x00, 0x20)\n      swap1\n    tag_135:\n      dup2\n      sload\n      dup2\n      mstore\n      swap1\n      0x01\n      add\n      swap1\n      0x20\n      add\n      dup1\n      dup4\n      gt\n      tag_135\n      jumpi\n      dup3\n      swap1\n      sub\n      0x1f\n      and\n      dup3\n      add\n      swap2\n    tag_133:\n      pop\n      pop\n      pop\n      pop\n      pop\n      dup2\n      mstore\n      0x20\n      add\n      0x03\n      dup3\n      add\n      sload\n      dup2\n      mstore\n      0x20\n      add\n      0x04\n      dup3\n      add\n      sload\n      dup2\n      mstore\n      pop\n      pop\n      dup2\n      mstore\n      0x20\n      add\n      swap1\n      0x01\n      add\n      swap1\n      jump(tag_128)\n    tag_129:\n      pop\n      pop\n      pop\n      pop\n      swap1\n      pop\n        /* \"contracts/twitter-tweet.sol\":1967:2080  function getalltweet(address _owner) public view returns (tweet[] memory){... */\n      swap2\n      swap1\n      pop\n      jump\t// out\n        /* \"contracts/twitter-tweet.sol\":771:889  function pauseed() public onlyOwner{... */\n    tag_62:\n        /* \"@openzeppelin/contracts/access/Ownable.sol\":1531:1544  _checkOwner() */\n      tag_137\n        /* \"@openzeppelin/contracts/access/Ownable.sol\":1531:1542  _checkOwner */\n      tag_83\n        /* \"@openzeppelin/contracts/access/Ownable.sol\":1531:1544  _checkOwner() */\n      jump\t// in\n    tag_137:\n        /* \"contracts/twitter-tweet.sol\":874:878  true */\n      0x01\n        /* \"contracts/twitter-tweet.sol\":866:871  pause */\n      0x00\n      0x14\n        /* \"contracts/twitter-tweet.sol\":866:878  pause = true */\n      0x0100\n      exp\n      dup2\n      sload\n      dup2\n      0xff\n      mul\n      not\n      and\n      swap1\n      dup4\n      iszero\n      iszero\n      mul\n      or\n      swap1\n      sstore\n      pop\n        /* \"contracts/twitter-tweet.sol\":771:889  function pauseed() public onlyOwner{... */\n      jump\t// out\n        /* \"contracts/twitter-tweet.sol\":1322:1843  function createtweet(string memory _tweet) public {... */\n    tag_66:\n        /* \"contracts/twitter-tweet.sol\":1415:1425  MAX_LENGHT */\n      0x00\n      0x15\n      swap1\n      sload\n      swap1\n      0x0100\n      exp\n      swap1\n      div\n      0xffff\n      and\n        /* \"contracts/twitter-tweet.sol\":1391:1425  bytes(_tweet).length <= MAX_LENGHT */\n      0xffff\n      and\n        /* \"contracts/twitter-tweet.sol\":1397:1403  _tweet */\n      dup2\n        /* \"contracts/twitter-tweet.sol\":1391:1411  bytes(_tweet).length */\n      mload\n        /* \"contracts/twitter-tweet.sol\":1391:1425  bytes(_tweet).length <= MAX_LENGHT */\n      gt\n      iszero\n        /* \"contracts/twitter-tweet.sol\":1383:1458  require(bytes(_tweet).length <= MAX_LENGHT,\"the tweet content is too long\") */\n      tag_140\n      jumpi\n      mload(0x40)\n      0x08c379a000000000000000000000000000000000000000000000000000000000\n      dup2\n      mstore\n      0x04\n      add\n      tag_141\n      swap1\n      tag_142\n      jump\t// in\n    tag_141:\n      mload(0x40)\n      dup1\n      swap2\n      sub\n      swap1\n      revert\n    tag_140:\n        /* \"contracts/twitter-tweet.sol\":1469:1490  tweet memory newtweet */\n      0x00\n        /* \"contracts/twitter-tweet.sol\":1493:1677  tweet({... */\n      mload(0x40)\n      dup1\n      0xa0\n      add\n      0x40\n      mstore\n      dup1\n        /* \"contracts/twitter-tweet.sol\":1517:1523  tweets */\n      0x01\n        /* \"contracts/twitter-tweet.sol\":1517:1535  tweets[msg.sender] */\n      0x00\n        /* \"contracts/twitter-tweet.sol\":1524:1534  msg.sender */\n      caller\n        /* \"contracts/twitter-tweet.sol\":1517:1535  tweets[msg.sender] */\n      0xffffffffffffffffffffffffffffffffffffffff\n      and\n      0xffffffffffffffffffffffffffffffffffffffff\n      and\n      dup2\n      mstore\n      0x20\n      add\n      swap1\n      dup2\n      mstore\n      0x20\n      add\n      0x00\n      keccak256\n        /* \"contracts/twitter-tweet.sol\":1517:1542  tweets[msg.sender].length */\n      dup1\n      sload\n      swap1\n      pop\n        /* \"contracts/twitter-tweet.sol\":1493:1677  tweet({... */\n      dup2\n      mstore\n      0x20\n      add\n        /* \"contracts/twitter-tweet.sol\":1564:1574  msg.sender */\n      caller\n        /* \"contracts/twitter-tweet.sol\":1493:1677  tweet({... */\n      0xffffffffffffffffffffffffffffffffffffffff\n      and\n      dup2\n      mstore\n      0x20\n      add\n        /* \"contracts/twitter-tweet.sol\":1597:1603  _tweet */\n      dup4\n        /* \"contracts/twitter-tweet.sol\":1493:1677  tweet({... */\n      dup2\n      mstore\n      0x20\n      add\n        /* \"contracts/twitter-tweet.sol\":1628:1643  block.timestamp */\n      timestamp\n        /* \"contracts/twitter-tweet.sol\":1493:1677  tweet({... */\n      dup2\n      mstore\n      0x20\n      add\n        /* \"contracts/twitter-tweet.sol\":1664:1665  0 */\n      0x00\n        /* \"contracts/twitter-tweet.sol\":1493:1677  tweet({... */\n      dup2\n      mstore\n      pop\n        /* \"contracts/twitter-tweet.sol\":1469:1677  tweet memory newtweet = tweet({... */\n      swap1\n      pop\n        /* \"contracts/twitter-tweet.sol\":1688:1694  tweets */\n      0x01\n        /* \"contracts/twitter-tweet.sol\":1688:1706  tweets[msg.sender] */\n      0x00\n        /* \"contracts/twitter-tweet.sol\":1695:1705  msg.sender */\n      caller\n        /* \"contracts/twitter-tweet.sol\":1688:1706  tweets[msg.sender] */\n      0xffffffffffffffffffffffffffffffffffffffff\n      and\n      0xffffffffffffffffffffffffffffffffffffffff\n      and\n      dup2\n      mstore\n      0x20\n      add\n      swap1\n      dup2\n      mstore\n      0x20\n      add\n      0x00\n      keccak256\n        /* \"contracts/twitter-tweet.sol\":1712:1720  newtweet */\n      dup2\n        /* \"contracts/twitter-tweet.sol\":1688:1721  tweets[msg.sender].push(newtweet) */\n      swap1\n      dup1\n      0x01\n      dup2\n      sload\n      add\n      dup1\n      dup3\n      sstore\n      dup1\n      swap2\n      pop\n      pop\n      0x01\n      swap1\n      sub\n      swap1\n      0x00\n      mstore\n      keccak256(0x00, 0x20)\n      swap1\n      0x05\n      mul\n      add\n      0x00\n      swap1\n      swap2\n      swap1\n      swap2\n      swap1\n      swap2\n      pop\n      0x00\n      dup3\n      add\n      mload\n      dup2\n      0x00\n      add\n      sstore\n      0x20\n      dup3\n      add\n      mload\n      dup2\n      0x01\n      add\n      exp(0x0100, 0x00)\n      dup2\n      sload\n      dup2\n      0xffffffffffffffffffffffffffffffffffffffff\n      mul\n      not\n      and\n      swap1\n      dup4\n      0xffffffffffffffffffffffffffffffffffffffff\n      and\n      mul\n      or\n      swap1\n      sstore\n      pop\n      0x40\n      dup3\n      add\n      mload\n      dup2\n      0x02\n      add\n      swap1\n      dup2\n      tag_144\n      swap2\n      swap1\n      tag_145\n      jump\t// in\n    tag_144:\n      pop\n      0x60\n      dup3\n      add\n      mload\n      dup2\n      0x03\n      add\n      sstore\n      0x80\n      dup3\n      add\n      mload\n      dup2\n      0x04\n      add\n      sstore\n      pop\n      pop\n        /* \"contracts/twitter-tweet.sol\":1737:1835  gettweetcreate(newtweet.author, newtweet.id, newtweet.content, newtweet.timestamp, newtweet.likes) */\n      0xcd6bc67176572c834935f5185d84a1bd9cbaca3c1fc843c9b66a05fdec1020ba\n        /* \"contracts/twitter-tweet.sol\":1752:1760  newtweet */\n      dup2\n        /* \"contracts/twitter-tweet.sol\":1752:1767  newtweet.author */\n      0x20\n      add\n      mload\n        /* \"contracts/twitter-tweet.sol\":1769:1777  newtweet */\n      dup3\n        /* \"contracts/twitter-tweet.sol\":1769:1780  newtweet.id */\n      0x00\n      add\n      mload\n        /* \"contracts/twitter-tweet.sol\":1782:1790  newtweet */\n      dup4\n        /* \"contracts/twitter-tweet.sol\":1782:1798  newtweet.content */\n      0x40\n      add\n      mload\n        /* \"contracts/twitter-tweet.sol\":1800:1808  newtweet */\n      dup5\n        /* \"contracts/twitter-tweet.sol\":1800:1818  newtweet.timestamp */\n      0x60\n      add\n      mload\n        /* \"contracts/twitter-tweet.sol\":1820:1828  newtweet */\n      dup6\n        /* \"contracts/twitter-tweet.sol\":1820:1834  newtweet.likes */\n      0x80\n      add\n      mload\n        /* \"contracts/twitter-tweet.sol\":1737:1835  gettweetcreate(newtweet.author, newtweet.id, newtweet.content, newtweet.timestamp, newtweet.likes) */\n      mload(0x40)\n      tag_146\n      swap6\n      swap5\n      swap4\n      swap3\n      swap2\n      swap1\n      tag_147\n      jump\t// in\n    tag_146:\n      mload(0x40)\n      dup1\n      swap2\n      sub\n      swap1\n      log1\n        /* \"contracts/twitter-tweet.sol\":1372:1843  {... */\n      pop\n        /* \"contracts/twitter-tweet.sol\":1322:1843  function createtweet(string memory _tweet) public {... */\n      pop\n      jump\t// out\n        /* \"contracts/twitter-tweet.sol\":2086:2339  function liketweet(address author,uint256 id) external{... */\n    tag_69:\n        /* \"contracts/twitter-tweet.sol\":2182:2184  id */\n      dup1\n        /* \"contracts/twitter-tweet.sol\":2159:2165  tweets */\n      0x01\n        /* \"contracts/twitter-tweet.sol\":2159:2173  tweets[author] */\n      0x00\n        /* \"contracts/twitter-tweet.sol\":2166:2172  author */\n      dup5\n        /* \"contracts/twitter-tweet.sol\":2159:2173  tweets[author] */\n      0xffffffffffffffffffffffffffffffffffffffff\n      and\n      0xffffffffffffffffffffffffffffffffffffffff\n      and\n      dup2\n      mstore\n      0x20\n      add\n      swap1\n      dup2\n      mstore\n      0x20\n      add\n      0x00\n      keccak256\n        /* \"contracts/twitter-tweet.sol\":2174:2176  id */\n      dup3\n        /* \"contracts/twitter-tweet.sol\":2159:2177  tweets[author][id] */\n      dup2\n      sload\n      dup2\n      lt\n      tag_149\n      jumpi\n      tag_150\n      tag_97\n      jump\t// in\n    tag_150:\n    tag_149:\n      swap1\n      0x00\n      mstore\n      keccak256(0x00, 0x20)\n      swap1\n      0x05\n      mul\n      add\n        /* \"contracts/twitter-tweet.sol\":2159:2180  tweets[author][id].id */\n      0x00\n      add\n      sload\n        /* \"contracts/twitter-tweet.sol\":2159:2184  tweets[author][id].id==id */\n      eq\n        /* \"contracts/twitter-tweet.sol\":2151:2211  require(tweets[author][id].id==id,\"the tweet is not found;\") */\n      tag_152\n      jumpi\n      mload(0x40)\n      0x08c379a000000000000000000000000000000000000000000000000000000000\n      dup2\n      mstore\n      0x04\n      add\n      tag_153\n      swap1\n      tag_154\n      jump\t// in\n    tag_153:\n      mload(0x40)\n      dup1\n      swap2\n      sub\n      swap1\n      revert\n    tag_152:\n        /* \"contracts/twitter-tweet.sol\":2222:2228  tweets */\n      0x01\n        /* \"contracts/twitter-tweet.sol\":2222:2236  tweets[author] */\n      0x00\n        /* \"contracts/twitter-tweet.sol\":2229:2235  author */\n      dup4\n        /* \"contracts/twitter-tweet.sol\":2222:2236  tweets[author] */\n      0xffffffffffffffffffffffffffffffffffffffff\n      and\n      0xffffffffffffffffffffffffffffffffffffffff\n      and\n      dup2\n      mstore\n      0x20\n      add\n      swap1\n      dup2\n      mstore\n      0x20\n      add\n      0x00\n      keccak256\n        /* \"contracts/twitter-tweet.sol\":2237:2239  id */\n      dup2\n        /* \"contracts/twitter-tweet.sol\":2222:2240  tweets[author][id] */\n      dup2\n      sload\n      dup2\n      lt\n      tag_155\n      jumpi\n      tag_156\n      tag_97\n      jump\t// in\n    tag_156:\n    tag_155:\n      swap1\n      0x00\n      mstore\n      keccak256(0x00, 0x20)\n      swap1\n      0x05\n      mul\n      add\n        /* \"contracts/twitter-tweet.sol\":2222:2246  tweets[author][id].likes */\n      0x04\n      add\n      0x00\n        /* \"contracts/twitter-tweet.sol\":2222:2248  tweets[author][id].likes++ */\n      dup2\n      sload\n      dup1\n      swap3\n      swap2\n      swap1\n      tag_158\n      swap1\n      tag_159\n      jump\t// in\n    tag_158:\n      swap2\n      swap1\n      pop\n      sstore\n      pop\n        /* \"contracts/twitter-tweet.sol\":2264:2329  eventliketweet(msg.sender, author ,  id,tweets[author][id].likes) */\n      0xd0e721d121fb28c3d437c6c067c10dde1c9dce85bcd30012a9be4c6a6944e193\n        /* \"contracts/twitter-tweet.sol\":2279:2289  msg.sender */\n      caller\n        /* \"contracts/twitter-tweet.sol\":2291:2297  author */\n      dup4\n        /* \"contracts/twitter-tweet.sol\":2301:2303  id */\n      dup4\n        /* \"contracts/twitter-tweet.sol\":2304:2310  tweets */\n      0x01\n        /* \"contracts/twitter-tweet.sol\":2304:2318  tweets[author] */\n      0x00\n        /* \"contracts/twitter-tweet.sol\":2311:2317  author */\n      dup8\n        /* \"contracts/twitter-tweet.sol\":2304:2318  tweets[author] */\n      0xffffffffffffffffffffffffffffffffffffffff\n      and\n      0xffffffffffffffffffffffffffffffffffffffff\n      and\n      dup2\n      mstore\n      0x20\n      add\n      swap1\n      dup2\n      mstore\n      0x20\n      add\n      0x00\n      keccak256\n        /* \"contracts/twitter-tweet.sol\":2319:2321  id */\n      dup6\n        /* \"contracts/twitter-tweet.sol\":2304:2322  tweets[author][id] */\n      dup2\n      sload\n      dup2\n      lt\n      tag_160\n      jumpi\n      tag_161\n      tag_97\n      jump\t// in\n    tag_161:\n    tag_160:\n      swap1\n      0x00\n      mstore\n      keccak256(0x00, 0x20)\n      swap1\n      0x05\n      mul\n      add\n        /* \"contracts/twitter-tweet.sol\":2304:2328  tweets[author][id].likes */\n      0x04\n      add\n      sload\n        /* \"contracts/twitter-tweet.sol\":2264:2329  eventliketweet(msg.sender, author ,  id,tweets[author][id].likes) */\n      mload(0x40)\n      tag_163\n      swap5\n      swap4\n      swap3\n      swap2\n      swap1\n      tag_120\n      jump\t// in\n    tag_163:\n      mload(0x40)\n      dup1\n      swap2\n      sub\n      swap1\n      log1\n        /* \"contracts/twitter-tweet.sol\":2086:2339  function liketweet(address author,uint256 id) external{... */\n      pop\n      pop\n      jump\t// out\n        /* \"@openzeppelin/contracts/access/Ownable.sol\":2543:2758  function transferOwnership(address newOwner) public virtual onlyOwner {... */\n    tag_72:\n        /* \"@openzeppelin/contracts/access/Ownable.sol\":1531:1544  _checkOwner() */\n      tag_165\n        /* \"@openzeppelin/contracts/access/Ownable.sol\":1531:1542  _checkOwner */\n      tag_83\n        /* \"@openzeppelin/contracts/access/Ownable.sol\":1531:1544  _checkOwner() */\n      jump\t// in\n    tag_165:\n        /* \"@openzeppelin/contracts/access/Ownable.sol\":2647:2648  0 */\n      0x00\n        /* \"@openzeppelin/contracts/access/Ownable.sol\":2627:2649  newOwner == address(0) */\n      0xffffffffffffffffffffffffffffffffffffffff\n      and\n        /* \"@openzeppelin/contracts/access/Ownable.sol\":2627:2635  newOwner */\n      dup2\n        /* \"@openzeppelin/contracts/access/Ownable.sol\":2627:2649  newOwner == address(0) */\n      0xffffffffffffffffffffffffffffffffffffffff\n      and\n      sub\n        /* \"@openzeppelin/contracts/access/Ownable.sol\":2623:2714  if (newOwner == address(0)) {... */\n      tag_167\n      jumpi\n        /* \"@openzeppelin/contracts/access/Ownable.sol\":2700:2701  0 */\n      0x00\n        /* \"@openzeppelin/contracts/access/Ownable.sol\":2672:2703  OwnableInvalidOwner(address(0)) */\n      mload(0x40)\n      0x1e4fbdf700000000000000000000000000000000000000000000000000000000\n      dup2\n      mstore\n      0x04\n      add\n      tag_168\n      swap2\n      swap1\n      tag_54\n      jump\t// in\n    tag_168:\n      mload(0x40)\n      dup1\n      swap2\n      sub\n      swap1\n      revert\n        /* \"@openzeppelin/contracts/access/Ownable.sol\":2623:2714  if (newOwner == address(0)) {... */\n    tag_167:\n        /* \"@openzeppelin/contracts/access/Ownable.sol\":2723:2751  _transferOwnership(newOwner) */\n      tag_169\n        /* \"@openzeppelin/contracts/access/Ownable.sol\":2742:2750  newOwner */\n      dup2\n        /* \"@openzeppelin/contracts/access/Ownable.sol\":2723:2741  _transferOwnership */\n      tag_125\n        /* \"@openzeppelin/contracts/access/Ownable.sol\":2723:2751  _transferOwnership(newOwner) */\n      jump\t// in\n    tag_169:\n        /* \"@openzeppelin/contracts/access/Ownable.sol\":2543:2758  function transferOwnership(address newOwner) public virtual onlyOwner {... */\n      pop\n      jump\t// out\n        /* \"@openzeppelin/contracts/access/Ownable.sol\":1796:1958  function _checkOwner() internal view virtual {... */\n    tag_83:\n        /* \"@openzeppelin/contracts/access/Ownable.sol\":1866:1878  _msgSender() */\n      tag_171\n        /* \"@openzeppelin/contracts/access/Ownable.sol\":1866:1876  _msgSender */\n      tag_172\n        /* \"@openzeppelin/contracts/access/Ownable.sol\":1866:1878  _msgSender() */\n      jump\t// in\n    tag_171:\n        /* \"@openzeppelin/contracts/access/Ownable.sol\":1855:1878  owner() != _msgSender() */\n      0xffffffffffffffffffffffffffffffffffffffff\n      and\n        /* \"@openzeppelin/contracts/access/Ownable.sol\":1855:1862  owner() */\n      tag_173\n        /* \"@openzeppelin/contracts/access/Ownable.sol\":1855:1860  owner */\n      tag_52\n        /* \"@openzeppelin/contracts/access/Ownable.sol\":1855:1862  owner() */\n      jump\t// in\n    tag_173:\n        /* \"@openzeppelin/contracts/access/Ownable.sol\":1855:1878  owner() != _msgSender() */\n      0xffffffffffffffffffffffffffffffffffffffff\n      and\n      eq\n        /* \"@openzeppelin/contracts/access/Ownable.sol\":1851:1952  if (owner() != _msgSender()) {... */\n      tag_174\n      jumpi\n        /* \"@openzeppelin/contracts/access/Ownable.sol\":1928:1940  _msgSender() */\n      tag_175\n        /* \"@openzeppelin/contracts/access/Ownable.sol\":1928:1938  _msgSender */\n      tag_172\n        /* \"@openzeppelin/contracts/access/Ownable.sol\":1928:1940  _msgSender() */\n      jump\t// in\n    tag_175:\n        /* \"@openzeppelin/contracts/access/Ownable.sol\":1901:1941  OwnableUnauthorizedAccount(_msgSender()) */\n      mload(0x40)\n      0x118cdaa700000000000000000000000000000000000000000000000000000000\n      dup2\n      mstore\n      0x04\n      add\n      tag_176\n      swap2\n      swap1\n      tag_54\n      jump\t// in\n    tag_176:\n      mload(0x40)\n      dup1\n      swap2\n      sub\n      swap1\n      revert\n        /* \"@openzeppelin/contracts/access/Ownable.sol\":1851:1952  if (owner() != _msgSender()) {... */\n    tag_174:\n        /* \"@openzeppelin/contracts/access/Ownable.sol\":1796:1958  function _checkOwner() internal view virtual {... */\n      jump\t// out\n        /* \"@openzeppelin/contracts/access/Ownable.sol\":2912:3099  function _transferOwnership(address newOwner) internal virtual {... */\n    tag_125:\n        /* \"@openzeppelin/contracts/access/Ownable.sol\":2985:3001  address oldOwner */\n      0x00\n        /* \"@openzeppelin/contracts/access/Ownable.sol\":3004:3010  _owner */\n      0x00\n      0x00\n      swap1\n      sload\n      swap1\n      0x0100\n      exp\n      swap1\n      div\n      0xffffffffffffffffffffffffffffffffffffffff\n      and\n        /* \"@openzeppelin/contracts/access/Ownable.sol\":2985:3010  address oldOwner = _owner */\n      swap1\n      pop\n        /* \"@openzeppelin/contracts/access/Ownable.sol\":3029:3037  newOwner */\n      dup2\n        /* \"@openzeppelin/contracts/access/Ownable.sol\":3020:3026  _owner */\n      0x00\n      0x00\n        /* \"@openzeppelin/contracts/access/Ownable.sol\":3020:3037  _owner = newOwner */\n      0x0100\n      exp\n      dup2\n      sload\n      dup2\n      0xffffffffffffffffffffffffffffffffffffffff\n      mul\n      not\n      and\n      swap1\n      dup4\n      0xffffffffffffffffffffffffffffffffffffffff\n      and\n      mul\n      or\n      swap1\n      sstore\n      pop\n        /* \"@openzeppelin/contracts/access/Ownable.sol\":3083:3091  newOwner */\n      dup2\n        /* \"@openzeppelin/contracts/access/Ownable.sol\":3052:3092  OwnershipTransferred(oldOwner, newOwner) */\n      0xffffffffffffffffffffffffffffffffffffffff\n      and\n        /* \"@openzeppelin/contracts/access/Ownable.sol\":3073:3081  oldOwner */\n      dup2\n        /* \"@openzeppelin/contracts/access/Ownable.sol\":3052:3092  OwnershipTransferred(oldOwner, newOwner) */\n      0xffffffffffffffffffffffffffffffffffffffff\n      and\n      0x8be0079c531659141344cd1fd0a4f28419497f9722a3daafe3b4186f6b6457e0\n      mload(0x40)\n      mload(0x40)\n      dup1\n      swap2\n      sub\n      swap1\n      log3\n        /* \"@openzeppelin/contracts/access/Ownable.sol\":2975:3099  {... */\n      pop\n        /* \"@openzeppelin/contracts/access/Ownable.sol\":2912:3099  function _transferOwnership(address newOwner) internal virtual {... */\n      pop\n      jump\t// out\n        /* \"@openzeppelin/contracts/utils/Context.sol\":656:752  function _msgSender() internal view virtual returns (address) {... */\n    tag_172:\n        /* \"@openzeppelin/contracts/utils/Context.sol\":709:716  address */\n      0x00\n        /* \"@openzeppelin/contracts/utils/Context.sol\":735:745  msg.sender */\n      caller\n        /* \"@openzeppelin/contracts/utils/Context.sol\":728:745  return msg.sender */\n      swap1\n      pop\n        /* \"@openzeppelin/contracts/utils/Context.sol\":656:752  function _msgSender() internal view virtual returns (address) {... */\n      swap1\n      jump\t// out\n    tag_93:\n      mload(0x40)\n      dup1\n      0xa0\n      add\n      0x40\n      mstore\n      dup1\n      0x00\n      dup2\n      mstore\n      0x20\n      add\n      and(0xffffffffffffffffffffffffffffffffffffffff, 0x00)\n      dup2\n      mstore\n      0x20\n      add\n      0x60\n      dup2\n      mstore\n      0x20\n      add\n      0x00\n      dup2\n      mstore\n      0x20\n      add\n      0x00\n      dup2\n      mstore\n      pop\n      swap1\n      jump\t// out\n        /* \"#utility.yul\":7:82   */\n    tag_179:\n        /* \"#utility.yul\":40:46   */\n      0x00\n        /* \"#utility.yul\":73:75   */\n      0x40\n        /* \"#utility.yul\":67:76   */\n      mload\n        /* \"#utility.yul\":57:76   */\n      swap1\n      pop\n        /* \"#utility.yul\":7:82   */\n      swap1\n      jump\t// out\n        /* \"#utility.yul\":88:205   */\n    tag_180:\n        /* \"#utility.yul\":197:198   */\n      0x00\n        /* \"#utility.yul\":194:195   */\n      0x00\n        /* \"#utility.yul\":187:199   */\n      revert\n        /* \"#utility.yul\":211:328   */\n    tag_181:\n        /* \"#utility.yul\":320:321   */\n      0x00\n        /* \"#utility.yul\":317:318   */\n      0x00\n        /* \"#utility.yul\":310:322   */\n      revert\n        /* \"#utility.yul\":334:460   */\n    tag_182:\n        /* \"#utility.yul\":371:378   */\n      0x00\n        /* \"#utility.yul\":411:453   */\n      0xffffffffffffffffffffffffffffffffffffffff\n        /* \"#utility.yul\":404:409   */\n      dup3\n        /* \"#utility.yul\":400:454   */\n      and\n        /* \"#utility.yul\":389:454   */\n      swap1\n      pop\n        /* \"#utility.yul\":334:460   */\n      swap2\n      swap1\n      pop\n      jump\t// out\n        /* \"#utility.yul\":466:562   */\n    tag_183:\n        /* \"#utility.yul\":503:510   */\n      0x00\n        /* \"#utility.yul\":532:556   */\n      tag_254\n        /* \"#utility.yul\":550:555   */\n      dup3\n        /* \"#utility.yul\":532:556   */\n      tag_182\n      jump\t// in\n    tag_254:\n        /* \"#utility.yul\":521:556   */\n      swap1\n      pop\n        /* \"#utility.yul\":466:562   */\n      swap2\n      swap1\n      pop\n      jump\t// out\n        /* \"#utility.yul\":568:690   */\n    tag_184:\n        /* \"#utility.yul\":641:665   */\n      tag_256\n        /* \"#utility.yul\":659:664   */\n      dup2\n        /* \"#utility.yul\":641:665   */\n      tag_183\n      jump\t// in\n    tag_256:\n        /* \"#utility.yul\":634:639   */\n      dup2\n        /* \"#utility.yul\":631:666   */\n      eq\n        /* \"#utility.yul\":621:684   */\n      tag_257\n      jumpi\n        /* \"#utility.yul\":680:681   */\n      0x00\n        /* \"#utility.yul\":677:678   */\n      0x00\n        /* \"#utility.yul\":670:682   */\n      revert\n        /* \"#utility.yul\":621:684   */\n    tag_257:\n        /* \"#utility.yul\":568:690   */\n      pop\n      jump\t// out\n        /* \"#utility.yul\":696:835   */\n    tag_185:\n        /* \"#utility.yul\":742:747   */\n      0x00\n        /* \"#utility.yul\":780:786   */\n      dup2\n        /* \"#utility.yul\":767:787   */\n      calldataload\n        /* \"#utility.yul\":758:787   */\n      swap1\n      pop\n        /* \"#utility.yul\":796:829   */\n      tag_259\n        /* \"#utility.yul\":823:828   */\n      dup2\n        /* \"#utility.yul\":796:829   */\n      tag_184\n      jump\t// in\n    tag_259:\n        /* \"#utility.yul\":696:835   */\n      swap3\n      swap2\n      pop\n      pop\n      jump\t// out\n        /* \"#utility.yul\":841:918   */\n    tag_186:\n        /* \"#utility.yul\":878:885   */\n      0x00\n        /* \"#utility.yul\":907:912   */\n      dup2\n        /* \"#utility.yul\":896:912   */\n      swap1\n      pop\n        /* \"#utility.yul\":841:918   */\n      swap2\n      swap1\n      pop\n      jump\t// out\n        /* \"#utility.yul\":924:1046   */\n    tag_187:\n        /* \"#utility.yul\":997:1021   */\n      tag_262\n        /* \"#utility.yul\":1015:1020   */\n      dup2\n        /* \"#utility.yul\":997:1021   */\n      tag_186\n      jump\t// in\n    tag_262:\n        /* \"#utility.yul\":990:995   */\n      dup2\n        /* \"#utility.yul\":987:1022   */\n      eq\n        /* \"#utility.yul\":977:1040   */\n      tag_263\n      jumpi\n        /* \"#utility.yul\":1036:1037   */\n      0x00\n        /* \"#utility.yul\":1033:1034   */\n      0x00\n        /* \"#utility.yul\":1026:1038   */\n      revert\n        /* \"#utility.yul\":977:1040   */\n    tag_263:\n        /* \"#utility.yul\":924:1046   */\n      pop\n      jump\t// out\n        /* \"#utility.yul\":1052:1191   */\n    tag_188:\n        /* \"#utility.yul\":1098:1103   */\n      0x00\n        /* \"#utility.yul\":1136:1142   */\n      dup2\n        /* \"#utility.yul\":1123:1143   */\n      calldataload\n        /* \"#utility.yul\":1114:1143   */\n      swap1\n      pop\n        /* \"#utility.yul\":1152:1185   */\n      tag_265\n        /* \"#utility.yul\":1179:1184   */\n      dup2\n        /* \"#utility.yul\":1152:1185   */\n      tag_187\n      jump\t// in\n    tag_265:\n        /* \"#utility.yul\":1052:1191   */\n      swap3\n      swap2\n      pop\n      pop\n      jump\t// out\n        /* \"#utility.yul\":1197:1671   */\n    tag_22:\n        /* \"#utility.yul\":1265:1271   */\n      0x00\n        /* \"#utility.yul\":1273:1279   */\n      0x00\n        /* \"#utility.yul\":1322:1324   */\n      0x40\n        /* \"#utility.yul\":1310:1319   */\n      dup4\n        /* \"#utility.yul\":1301:1308   */\n      dup6\n        /* \"#utility.yul\":1297:1320   */\n      sub\n        /* \"#utility.yul\":1293:1325   */\n      slt\n        /* \"#utility.yul\":1290:1409   */\n      iszero\n      tag_267\n      jumpi\n        /* \"#utility.yul\":1328:1407   */\n      tag_268\n      tag_180\n      jump\t// in\n    tag_268:\n        /* \"#utility.yul\":1290:1409   */\n    tag_267:\n        /* \"#utility.yul\":1448:1449   */\n      0x00\n        /* \"#utility.yul\":1473:1526   */\n      tag_269\n        /* \"#utility.yul\":1518:1525   */\n      dup6\n        /* \"#utility.yul\":1509:1515   */\n      dup3\n        /* \"#utility.yul\":1498:1507   */\n      dup7\n        /* \"#utility.yul\":1494:1516   */\n      add\n        /* \"#utility.yul\":1473:1526   */\n      tag_185\n      jump\t// in\n    tag_269:\n        /* \"#utility.yul\":1463:1526   */\n      swap3\n      pop\n        /* \"#utility.yul\":1419:1536   */\n      pop\n        /* \"#utility.yul\":1575:1577   */\n      0x20\n        /* \"#utility.yul\":1601:1654   */\n      tag_270\n        /* \"#utility.yul\":1646:1653   */\n      dup6\n        /* \"#utility.yul\":1637:1643   */\n      dup3\n        /* \"#utility.yul\":1626:1635   */\n      dup7\n        /* \"#utility.yul\":1622:1644   */\n      add\n        /* \"#utility.yul\":1601:1654   */\n      tag_188\n      jump\t// in\n    tag_270:\n        /* \"#utility.yul\":1591:1654   */\n      swap2\n      pop\n        /* \"#utility.yul\":1546:1664   */\n      pop\n        /* \"#utility.yul\":1197:1671   */\n      swap3\n      pop\n      swap3\n      swap1\n      pop\n      jump\t// out\n        /* \"#utility.yul\":1677:1795   */\n    tag_189:\n        /* \"#utility.yul\":1764:1788   */\n      tag_272\n        /* \"#utility.yul\":1782:1787   */\n      dup2\n        /* \"#utility.yul\":1764:1788   */\n      tag_186\n      jump\t// in\n    tag_272:\n        /* \"#utility.yul\":1759:1762   */\n      dup3\n        /* \"#utility.yul\":1752:1789   */\n      mstore\n        /* \"#utility.yul\":1677:1795   */\n      pop\n      pop\n      jump\t// out\n        /* \"#utility.yul\":1801:1919   */\n    tag_190:\n        /* \"#utility.yul\":1888:1912   */\n      tag_274\n        /* \"#utility.yul\":1906:1911   */\n      dup2\n        /* \"#utility.yul\":1888:1912   */\n      tag_183\n      jump\t// in\n    tag_274:\n        /* \"#utility.yul\":1883:1886   */\n      dup3\n        /* \"#utility.yul\":1876:1913   */\n      mstore\n        /* \"#utility.yul\":1801:1919   */\n      pop\n      pop\n      jump\t// out\n        /* \"#utility.yul\":1925:2024   */\n    tag_191:\n        /* \"#utility.yul\":1977:1983   */\n      0x00\n        /* \"#utility.yul\":2011:2016   */\n      dup2\n        /* \"#utility.yul\":2005:2017   */\n      mload\n        /* \"#utility.yul\":1995:2017   */\n      swap1\n      pop\n        /* \"#utility.yul\":1925:2024   */\n      swap2\n      swap1\n      pop\n      jump\t// out\n        /* \"#utility.yul\":2030:2199   */\n    tag_192:\n        /* \"#utility.yul\":2114:2125   */\n      0x00\n        /* \"#utility.yul\":2148:2154   */\n      dup3\n        /* \"#utility.yul\":2143:2146   */\n      dup3\n        /* \"#utility.yul\":2136:2155   */\n      mstore\n        /* \"#utility.yul\":2188:2192   */\n      0x20\n        /* \"#utility.yul\":2183:2186   */\n      dup3\n        /* \"#utility.yul\":2179:2193   */\n      add\n        /* \"#utility.yul\":2164:2193   */\n      swap1\n      pop\n        /* \"#utility.yul\":2030:2199   */\n      swap3\n      swap2\n      pop\n      pop\n      jump\t// out\n        /* \"#utility.yul\":2205:2344   */\n    tag_193:\n        /* \"#utility.yul\":2294:2300   */\n      dup3\n        /* \"#utility.yul\":2289:2292   */\n      dup2\n        /* \"#utility.yul\":2284:2287   */\n      dup4\n        /* \"#utility.yul\":2278:2301   */\n      mcopy\n        /* \"#utility.yul\":2335:2336   */\n      0x00\n        /* \"#utility.yul\":2326:2332   */\n      dup4\n        /* \"#utility.yul\":2321:2324   */\n      dup4\n        /* \"#utility.yul\":2317:2333   */\n      add\n        /* \"#utility.yul\":2310:2337   */\n      mstore\n        /* \"#utility.yul\":2205:2344   */\n      pop\n      pop\n      pop\n      jump\t// out\n        /* \"#utility.yul\":2350:2452   */\n    tag_194:\n        /* \"#utility.yul\":2391:2397   */\n      0x00\n        /* \"#utility.yul\":2442:2444   */\n      0x1f\n        /* \"#utility.yul\":2438:2445   */\n      not\n        /* \"#utility.yul\":2433:2435   */\n      0x1f\n        /* \"#utility.yul\":2426:2431   */\n      dup4\n        /* \"#utility.yul\":2422:2436   */\n      add\n        /* \"#utility.yul\":2418:2446   */\n      and\n        /* \"#utility.yul\":2408:2446   */\n      swap1\n      pop\n        /* \"#utility.yul\":2350:2452   */\n      swap2\n      swap1\n      pop\n      jump\t// out\n        /* \"#utility.yul\":2458:2835   */\n    tag_195:\n        /* \"#utility.yul\":2546:2549   */\n      0x00\n        /* \"#utility.yul\":2574:2613   */\n      tag_280\n        /* \"#utility.yul\":2607:2612   */\n      dup3\n        /* \"#utility.yul\":2574:2613   */\n      tag_191\n      jump\t// in\n    tag_280:\n        /* \"#utility.yul\":2629:2700   */\n      tag_281\n        /* \"#utility.yul\":2693:2699   */\n      dup2\n        /* \"#utility.yul\":2688:2691   */\n      dup6\n        /* \"#utility.yul\":2629:2700   */\n      tag_192\n      jump\t// in\n    tag_281:\n        /* \"#utility.yul\":2622:2700   */\n      swap4\n      pop\n        /* \"#utility.yul\":2709:2774   */\n      tag_282\n        /* \"#utility.yul\":2767:2773   */\n      dup2\n        /* \"#utility.yul\":2762:2765   */\n      dup6\n        /* \"#utility.yul\":2755:2759   */\n      0x20\n        /* \"#utility.yul\":2748:2753   */\n      dup7\n        /* \"#utility.yul\":2744:2760   */\n      add\n        /* \"#utility.yul\":2709:2774   */\n      tag_193\n      jump\t// in\n    tag_282:\n        /* \"#utility.yul\":2799:2828   */\n      tag_283\n        /* \"#utility.yul\":2821:2827   */\n      dup2\n        /* \"#utility.yul\":2799:2828   */\n      tag_194\n      jump\t// in\n    tag_283:\n        /* \"#utility.yul\":2794:2797   */\n      dup5\n        /* \"#utility.yul\":2790:2829   */\n      add\n        /* \"#utility.yul\":2783:2829   */\n      swap2\n      pop\n        /* \"#utility.yul\":2550:2835   */\n      pop\n        /* \"#utility.yul\":2458:2835   */\n      swap3\n      swap2\n      pop\n      pop\n      jump\t// out\n        /* \"#utility.yul\":2841:3596   */\n    tag_25:\n        /* \"#utility.yul\":3066:3070   */\n      0x00\n        /* \"#utility.yul\":3104:3107   */\n      0xa0\n        /* \"#utility.yul\":3093:3102   */\n      dup3\n        /* \"#utility.yul\":3089:3108   */\n      add\n        /* \"#utility.yul\":3081:3108   */\n      swap1\n      pop\n        /* \"#utility.yul\":3118:3189   */\n      tag_285\n        /* \"#utility.yul\":3186:3187   */\n      0x00\n        /* \"#utility.yul\":3175:3184   */\n      dup4\n        /* \"#utility.yul\":3171:3188   */\n      add\n        /* \"#utility.yul\":3162:3168   */\n      dup9\n        /* \"#utility.yul\":3118:3189   */\n      tag_189\n      jump\t// in\n    tag_285:\n        /* \"#utility.yul\":3199:3271   */\n      tag_286\n        /* \"#utility.yul\":3267:3269   */\n      0x20\n        /* \"#utility.yul\":3256:3265   */\n      dup4\n        /* \"#utility.yul\":3252:3270   */\n      add\n        /* \"#utility.yul\":3243:3249   */\n      dup8\n        /* \"#utility.yul\":3199:3271   */\n      tag_190\n      jump\t// in\n    tag_286:\n        /* \"#utility.yul\":3318:3327   */\n      dup2\n        /* \"#utility.yul\":3312:3316   */\n      dup2\n        /* \"#utility.yul\":3308:3328   */\n      sub\n        /* \"#utility.yul\":3303:3305   */\n      0x40\n        /* \"#utility.yul\":3292:3301   */\n      dup4\n        /* \"#utility.yul\":3288:3306   */\n      add\n        /* \"#utility.yul\":3281:3329   */\n      mstore\n        /* \"#utility.yul\":3346:3424   */\n      tag_287\n        /* \"#utility.yul\":3419:3423   */\n      dup2\n        /* \"#utility.yul\":3410:3416   */\n      dup7\n        /* \"#utility.yul\":3346:3424   */\n      tag_195\n      jump\t// in\n    tag_287:\n        /* \"#utility.yul\":3338:3424   */\n      swap1\n      pop\n        /* \"#utility.yul\":3434:3506   */\n      tag_288\n        /* \"#utility.yul\":3502:3504   */\n      0x60\n        /* \"#utility.yul\":3491:3500   */\n      dup4\n        /* \"#utility.yul\":3487:3505   */\n      add\n        /* \"#utility.yul\":3478:3484   */\n      dup6\n        /* \"#utility.yul\":3434:3506   */\n      tag_189\n      jump\t// in\n    tag_288:\n        /* \"#utility.yul\":3516:3589   */\n      tag_289\n        /* \"#utility.yul\":3584:3587   */\n      0x80\n        /* \"#utility.yul\":3573:3582   */\n      dup4\n        /* \"#utility.yul\":3569:3588   */\n      add\n        /* \"#utility.yul\":3560:3566   */\n      dup5\n        /* \"#utility.yul\":3516:3589   */\n      tag_189\n      jump\t// in\n    tag_289:\n        /* \"#utility.yul\":2841:3596   */\n      swap7\n      swap6\n      pop\n      pop\n      pop\n      pop\n      pop\n      pop\n      jump\t// out\n        /* \"#utility.yul\":3602:3691   */\n    tag_196:\n        /* \"#utility.yul\":3638:3645   */\n      0x00\n        /* \"#utility.yul\":3678:3684   */\n      0xffff\n        /* \"#utility.yul\":3671:3676   */\n      dup3\n        /* \"#utility.yul\":3667:3685   */\n      and\n        /* \"#utility.yul\":3656:3685   */\n      swap1\n      pop\n        /* \"#utility.yul\":3602:3691   */\n      swap2\n      swap1\n      pop\n      jump\t// out\n        /* \"#utility.yul\":3697:3817   */\n    tag_197:\n        /* \"#utility.yul\":3769:3792   */\n      tag_292\n        /* \"#utility.yul\":3786:3791   */\n      dup2\n        /* \"#utility.yul\":3769:3792   */\n      tag_196\n      jump\t// in\n    tag_292:\n        /* \"#utility.yul\":3762:3767   */\n      dup2\n        /* \"#utility.yul\":3759:3793   */\n      eq\n        /* \"#utility.yul\":3749:3811   */\n      tag_293\n      jumpi\n        /* \"#utility.yul\":3807:3808   */\n      0x00\n        /* \"#utility.yul\":3804:3805   */\n      0x00\n        /* \"#utility.yul\":3797:3809   */\n      revert\n        /* \"#utility.yul\":3749:3811   */\n    tag_293:\n        /* \"#utility.yul\":3697:3817   */\n      pop\n      jump\t// out\n        /* \"#utility.yul\":3823:3960   */\n    tag_198:\n        /* \"#utility.yul\":3868:3873   */\n      0x00\n        /* \"#utility.yul\":3906:3912   */\n      dup2\n        /* \"#utility.yul\":3893:3913   */\n      calldataload\n        /* \"#utility.yul\":3884:3913   */\n      swap1\n      pop\n        /* \"#utility.yul\":3922:3954   */\n      tag_295\n        /* \"#utility.yul\":3948:3953   */\n      dup2\n        /* \"#utility.yul\":3922:3954   */\n      tag_197\n      jump\t// in\n    tag_295:\n        /* \"#utility.yul\":3823:3960   */\n      swap3\n      swap2\n      pop\n      pop\n      jump\t// out\n        /* \"#utility.yul\":3966:4293   */\n    tag_28:\n        /* \"#utility.yul\":4024:4030   */\n      0x00\n        /* \"#utility.yul\":4073:4075   */\n      0x20\n        /* \"#utility.yul\":4061:4070   */\n      dup3\n        /* \"#utility.yul\":4052:4059   */\n      dup5\n        /* \"#utility.yul\":4048:4071   */\n      sub\n        /* \"#utility.yul\":4044:4076   */\n      slt\n        /* \"#utility.yul\":4041:4160   */\n      iszero\n      tag_297\n      jumpi\n        /* \"#utility.yul\":4079:4158   */\n      tag_298\n      tag_180\n      jump\t// in\n    tag_298:\n        /* \"#utility.yul\":4041:4160   */\n    tag_297:\n        /* \"#utility.yul\":4199:4200   */\n      0x00\n        /* \"#utility.yul\":4224:4276   */\n      tag_299\n        /* \"#utility.yul\":4268:4275   */\n      dup5\n        /* \"#utility.yul\":4259:4265   */\n      dup3\n        /* \"#utility.yul\":4248:4257   */\n      dup6\n        /* \"#utility.yul\":4244:4266   */\n      add\n        /* \"#utility.yul\":4224:4276   */\n      tag_198\n      jump\t// in\n    tag_299:\n        /* \"#utility.yul\":4214:4276   */\n      swap2\n      pop\n        /* \"#utility.yul\":4170:4286   */\n      pop\n        /* \"#utility.yul\":3966:4293   */\n      swap3\n      swap2\n      pop\n      pop\n      jump\t// out\n        /* \"#utility.yul\":4299:4628   */\n    tag_34:\n        /* \"#utility.yul\":4358:4364   */\n      0x00\n        /* \"#utility.yul\":4407:4409   */\n      0x20\n        /* \"#utility.yul\":4395:4404   */\n      dup3\n        /* \"#utility.yul\":4386:4393   */\n      dup5\n        /* \"#utility.yul\":4382:4405   */\n      sub\n        /* \"#utility.yul\":4378:4410   */\n      slt\n        /* \"#utility.yul\":4375:4494   */\n      iszero\n      tag_301\n      jumpi\n        /* \"#utility.yul\":4413:4492   */\n      tag_302\n      tag_180\n      jump\t// in\n    tag_302:\n        /* \"#utility.yul\":4375:4494   */\n    tag_301:\n        /* \"#utility.yul\":4533:4534   */\n      0x00\n        /* \"#utility.yul\":4558:4611   */\n      tag_303\n        /* \"#utility.yul\":4603:4610   */\n      dup5\n        /* \"#utility.yul\":4594:4600   */\n      dup3\n        /* \"#utility.yul\":4583:4592   */\n      dup6\n        /* \"#utility.yul\":4579:4601   */\n      add\n        /* \"#utility.yul\":4558:4611   */\n      tag_188\n      jump\t// in\n    tag_303:\n        /* \"#utility.yul\":4548:4611   */\n      swap2\n      pop\n        /* \"#utility.yul\":4504:4621   */\n      pop\n        /* \"#utility.yul\":4299:4628   */\n      swap3\n      swap2\n      pop\n      pop\n      jump\t// out\n        /* \"#utility.yul\":4634:4742   */\n    tag_199:\n        /* \"#utility.yul\":4711:4735   */\n      tag_305\n        /* \"#utility.yul\":4729:4734   */\n      dup2\n        /* \"#utility.yul\":4711:4735   */\n      tag_186\n      jump\t// in\n    tag_305:\n        /* \"#utility.yul\":4706:4709   */\n      dup3\n        /* \"#utility.yul\":4699:4736   */\n      mstore\n        /* \"#utility.yul\":4634:4742   */\n      pop\n      pop\n      jump\t// out\n        /* \"#utility.yul\":4748:4856   */\n    tag_200:\n        /* \"#utility.yul\":4825:4849   */\n      tag_307\n        /* \"#utility.yul\":4843:4848   */\n      dup2\n        /* \"#utility.yul\":4825:4849   */\n      tag_183\n      jump\t// in\n    tag_307:\n        /* \"#utility.yul\":4820:4823   */\n      dup3\n        /* \"#utility.yul\":4813:4850   */\n      mstore\n        /* \"#utility.yul\":4748:4856   */\n      pop\n      pop\n      jump\t// out\n        /* \"#utility.yul\":4862:5021   */\n    tag_201:\n        /* \"#utility.yul\":4936:4947   */\n      0x00\n        /* \"#utility.yul\":4970:4976   */\n      dup3\n        /* \"#utility.yul\":4965:4968   */\n      dup3\n        /* \"#utility.yul\":4958:4977   */\n      mstore\n        /* \"#utility.yul\":5010:5014   */\n      0x20\n        /* \"#utility.yul\":5005:5008   */\n      dup3\n        /* \"#utility.yul\":5001:5015   */\n      add\n        /* \"#utility.yul\":4986:5015   */\n      swap1\n      pop\n        /* \"#utility.yul\":4862:5021   */\n      swap3\n      swap2\n      pop\n      pop\n      jump\t// out\n        /* \"#utility.yul\":5027:5384   */\n    tag_202:\n        /* \"#utility.yul\":5105:5108   */\n      0x00\n        /* \"#utility.yul\":5133:5172   */\n      tag_310\n        /* \"#utility.yul\":5166:5171   */\n      dup3\n        /* \"#utility.yul\":5133:5172   */\n      tag_191\n      jump\t// in\n    tag_310:\n        /* \"#utility.yul\":5188:5249   */\n      tag_311\n        /* \"#utility.yul\":5242:5248   */\n      dup2\n        /* \"#utility.yul\":5237:5240   */\n      dup6\n        /* \"#utility.yul\":5188:5249   */\n      tag_201\n      jump\t// in\n    tag_311:\n        /* \"#utility.yul\":5181:5249   */\n      swap4\n      pop\n        /* \"#utility.yul\":5258:5323   */\n      tag_312\n        /* \"#utility.yul\":5316:5322   */\n      dup2\n        /* \"#utility.yul\":5311:5314   */\n      dup6\n        /* \"#utility.yul\":5304:5308   */\n      0x20\n        /* \"#utility.yul\":5297:5302   */\n      dup7\n        /* \"#utility.yul\":5293:5309   */\n      add\n        /* \"#utility.yul\":5258:5323   */\n      tag_193\n      jump\t// in\n    tag_312:\n        /* \"#utility.yul\":5348:5377   */\n      tag_313\n        /* \"#utility.yul\":5370:5376   */\n      dup2\n        /* \"#utility.yul\":5348:5377   */\n      tag_194\n      jump\t// in\n    tag_313:\n        /* \"#utility.yul\":5343:5346   */\n      dup5\n        /* \"#utility.yul\":5339:5378   */\n      add\n        /* \"#utility.yul\":5332:5378   */\n      swap2\n      pop\n        /* \"#utility.yul\":5109:5384   */\n      pop\n        /* \"#utility.yul\":5027:5384   */\n      swap3\n      swap2\n      pop\n      pop\n      jump\t// out\n        /* \"#utility.yul\":5452:6583   */\n    tag_203:\n        /* \"#utility.yul\":5565:5568   */\n      0x00\n        /* \"#utility.yul\":5601:5605   */\n      0xa0\n        /* \"#utility.yul\":5596:5599   */\n      dup4\n        /* \"#utility.yul\":5592:5606   */\n      add\n        /* \"#utility.yul\":5686:5690   */\n      0x00\n        /* \"#utility.yul\":5679:5684   */\n      dup4\n        /* \"#utility.yul\":5675:5691   */\n      add\n        /* \"#utility.yul\":5669:5692   */\n      mload\n        /* \"#utility.yul\":5705:5768   */\n      tag_315\n        /* \"#utility.yul\":5762:5766   */\n      0x00\n        /* \"#utility.yul\":5757:5760   */\n      dup7\n        /* \"#utility.yul\":5753:5767   */\n      add\n        /* \"#utility.yul\":5739:5751   */\n      dup3\n        /* \"#utility.yul\":5705:5768   */\n      tag_199\n      jump\t// in\n    tag_315:\n        /* \"#utility.yul\":5616:5778   */\n      pop\n        /* \"#utility.yul\":5862:5866   */\n      0x20\n        /* \"#utility.yul\":5855:5860   */\n      dup4\n        /* \"#utility.yul\":5851:5867   */\n      add\n        /* \"#utility.yul\":5845:5868   */\n      mload\n        /* \"#utility.yul\":5881:5944   */\n      tag_316\n        /* \"#utility.yul\":5938:5942   */\n      0x20\n        /* \"#utility.yul\":5933:5936   */\n      dup7\n        /* \"#utility.yul\":5929:5943   */\n      add\n        /* \"#utility.yul\":5915:5927   */\n      dup3\n        /* \"#utility.yul\":5881:5944   */\n      tag_200\n      jump\t// in\n    tag_316:\n        /* \"#utility.yul\":5788:5954   */\n      pop\n        /* \"#utility.yul\":6039:6043   */\n      0x40\n        /* \"#utility.yul\":6032:6037   */\n      dup4\n        /* \"#utility.yul\":6028:6044   */\n      add\n        /* \"#utility.yul\":6022:6045   */\n      mload\n        /* \"#utility.yul\":6092:6095   */\n      dup5\n        /* \"#utility.yul\":6086:6090   */\n      dup3\n        /* \"#utility.yul\":6082:6096   */\n      sub\n        /* \"#utility.yul\":6075:6079   */\n      0x40\n        /* \"#utility.yul\":6070:6073   */\n      dup7\n        /* \"#utility.yul\":6066:6080   */\n      add\n        /* \"#utility.yul\":6059:6097   */\n      mstore\n        /* \"#utility.yul\":6118:6191   */\n      tag_317\n        /* \"#utility.yul\":6186:6190   */\n      dup3\n        /* \"#utility.yul\":6172:6184   */\n      dup3\n        /* \"#utility.yul\":6118:6191   */\n      tag_202\n      jump\t// in\n    tag_317:\n        /* \"#utility.yul\":6110:6191   */\n      swap2\n      pop\n        /* \"#utility.yul\":5964:6202   */\n      pop\n        /* \"#utility.yul\":6289:6293   */\n      0x60\n        /* \"#utility.yul\":6282:6287   */\n      dup4\n        /* \"#utility.yul\":6278:6294   */\n      add\n        /* \"#utility.yul\":6272:6295   */\n      mload\n        /* \"#utility.yul\":6308:6371   */\n      tag_318\n        /* \"#utility.yul\":6365:6369   */\n      0x60\n        /* \"#utility.yul\":6360:6363   */\n      dup7\n        /* \"#utility.yul\":6356:6370   */\n      add\n        /* \"#utility.yul\":6342:6354   */\n      dup3\n        /* \"#utility.yul\":6308:6371   */\n      tag_199\n      jump\t// in\n    tag_318:\n        /* \"#utility.yul\":6212:6381   */\n      pop\n        /* \"#utility.yul\":6464:6468   */\n      0x80\n        /* \"#utility.yul\":6457:6462   */\n      dup4\n        /* \"#utility.yul\":6453:6469   */\n      add\n        /* \"#utility.yul\":6447:6470   */\n      mload\n        /* \"#utility.yul\":6483:6546   */\n      tag_319\n        /* \"#utility.yul\":6540:6544   */\n      0x80\n        /* \"#utility.yul\":6535:6538   */\n      dup7\n        /* \"#utility.yul\":6531:6545   */\n      add\n        /* \"#utility.yul\":6517:6529   */\n      dup3\n        /* \"#utility.yul\":6483:6546   */\n      tag_199\n      jump\t// in\n    tag_319:\n        /* \"#utility.yul\":6391:6556   */\n      pop\n        /* \"#utility.yul\":6573:6577   */\n      dup1\n        /* \"#utility.yul\":6566:6577   */\n      swap2\n      pop\n        /* \"#utility.yul\":5570:6583   */\n      pop\n        /* \"#utility.yul\":5452:6583   */\n      swap3\n      swap2\n      pop\n      pop\n      jump\t// out\n        /* \"#utility.yul\":6589:6950   */\n    tag_37:\n        /* \"#utility.yul\":6726:6730   */\n      0x00\n        /* \"#utility.yul\":6764:6766   */\n      0x20\n        /* \"#utility.yul\":6753:6762   */\n      dup3\n        /* \"#utility.yul\":6749:6767   */\n      add\n        /* \"#utility.yul\":6741:6767   */\n      swap1\n      pop\n        /* \"#utility.yul\":6813:6822   */\n      dup2\n        /* \"#utility.yul\":6807:6811   */\n      dup2\n        /* \"#utility.yul\":6803:6823   */\n      sub\n        /* \"#utility.yul\":6799:6800   */\n      0x00\n        /* \"#utility.yul\":6788:6797   */\n      dup4\n        /* \"#utility.yul\":6784:6801   */\n      add\n        /* \"#utility.yul\":6777:6824   */\n      mstore\n        /* \"#utility.yul\":6841:6943   */\n      tag_321\n        /* \"#utility.yul\":6938:6942   */\n      dup2\n        /* \"#utility.yul\":6929:6935   */\n      dup5\n        /* \"#utility.yul\":6841:6943   */\n      tag_203\n      jump\t// in\n    tag_321:\n        /* \"#utility.yul\":6833:6943   */\n      swap1\n      pop\n        /* \"#utility.yul\":6589:6950   */\n      swap3\n      swap2\n      pop\n      pop\n      jump\t// out\n        /* \"#utility.yul\":6956:7046   */\n    tag_204:\n        /* \"#utility.yul\":6990:6997   */\n      0x00\n        /* \"#utility.yul\":7033:7038   */\n      dup2\n        /* \"#utility.yul\":7026:7039   */\n      iszero\n        /* \"#utility.yul\":7019:7040   */\n      iszero\n        /* \"#utility.yul\":7008:7040   */\n      swap1\n      pop\n        /* \"#utility.yul\":6956:7046   */\n      swap2\n      swap1\n      pop\n      jump\t// out\n        /* \"#utility.yul\":7052:7161   */\n    tag_205:\n        /* \"#utility.yul\":7133:7154   */\n      tag_324\n        /* \"#utility.yul\":7148:7153   */\n      dup2\n        /* \"#utility.yul\":7133:7154   */\n      tag_204\n      jump\t// in\n    tag_324:\n        /* \"#utility.yul\":7128:7131   */\n      dup3\n        /* \"#utility.yul\":7121:7155   */\n      mstore\n        /* \"#utility.yul\":7052:7161   */\n      pop\n      pop\n      jump\t// out\n        /* \"#utility.yul\":7167:7377   */\n    tag_46:\n        /* \"#utility.yul\":7254:7258   */\n      0x00\n        /* \"#utility.yul\":7292:7294   */\n      0x20\n        /* \"#utility.yul\":7281:7290   */\n      dup3\n        /* \"#utility.yul\":7277:7295   */\n      add\n        /* \"#utility.yul\":7269:7295   */\n      swap1\n      pop\n        /* \"#utility.yul\":7305:7370   */\n      tag_326\n        /* \"#utility.yul\":7367:7368   */\n      0x00\n        /* \"#utility.yul\":7356:7365   */\n      dup4\n        /* \"#utility.yul\":7352:7369   */\n      add\n        /* \"#utility.yul\":7343:7349   */\n      dup5\n        /* \"#utility.yul\":7305:7370   */\n      tag_205\n      jump\t// in\n    tag_326:\n        /* \"#utility.yul\":7167:7377   */\n      swap3\n      swap2\n      pop\n      pop\n      jump\t// out\n        /* \"#utility.yul\":7383:7498   */\n    tag_206:\n        /* \"#utility.yul\":7468:7491   */\n      tag_328\n        /* \"#utility.yul\":7485:7490   */\n      dup2\n        /* \"#utility.yul\":7468:7491   */\n      tag_196\n      jump\t// in\n    tag_328:\n        /* \"#utility.yul\":7463:7466   */\n      dup3\n        /* \"#utility.yul\":7456:7492   */\n      mstore\n        /* \"#utility.yul\":7383:7498   */\n      pop\n      pop\n      jump\t// out\n        /* \"#utility.yul\":7504:7722   */\n    tag_50:\n        /* \"#utility.yul\":7595:7599   */\n      0x00\n        /* \"#utility.yul\":7633:7635   */\n      0x20\n        /* \"#utility.yul\":7622:7631   */\n      dup3\n        /* \"#utility.yul\":7618:7636   */\n      add\n        /* \"#utility.yul\":7610:7636   */\n      swap1\n      pop\n        /* \"#utility.yul\":7646:7715   */\n      tag_330\n        /* \"#utility.yul\":7712:7713   */\n      0x00\n        /* \"#utility.yul\":7701:7710   */\n      dup4\n        /* \"#utility.yul\":7697:7714   */\n      add\n        /* \"#utility.yul\":7688:7694   */\n      dup5\n        /* \"#utility.yul\":7646:7715   */\n      tag_206\n      jump\t// in\n    tag_330:\n        /* \"#utility.yul\":7504:7722   */\n      swap3\n      swap2\n      pop\n      pop\n      jump\t// out\n        /* \"#utility.yul\":7728:7950   */\n    tag_54:\n        /* \"#utility.yul\":7821:7825   */\n      0x00\n        /* \"#utility.yul\":7859:7861   */\n      0x20\n        /* \"#utility.yul\":7848:7857   */\n      dup3\n        /* \"#utility.yul\":7844:7862   */\n      add\n        /* \"#utility.yul\":7836:7862   */\n      swap1\n      pop\n        /* \"#utility.yul\":7872:7943   */\n      tag_332\n        /* \"#utility.yul\":7940:7941   */\n      0x00\n        /* \"#utility.yul\":7929:7938   */\n      dup4\n        /* \"#utility.yul\":7925:7942   */\n      add\n        /* \"#utility.yul\":7916:7922   */\n      dup5\n        /* \"#utility.yul\":7872:7943   */\n      tag_190\n      jump\t// in\n    tag_332:\n        /* \"#utility.yul\":7728:7950   */\n      swap3\n      swap2\n      pop\n      pop\n      jump\t// out\n        /* \"#utility.yul\":7956:8285   */\n    tag_57:\n        /* \"#utility.yul\":8015:8021   */\n      0x00\n        /* \"#utility.yul\":8064:8066   */\n      0x20\n        /* \"#utility.yul\":8052:8061   */\n      dup3\n        /* \"#utility.yul\":8043:8050   */\n      dup5\n        /* \"#utility.yul\":8039:8062   */\n      sub\n        /* \"#utility.yul\":8035:8067   */\n      slt\n        /* \"#utility.yul\":8032:8151   */\n      iszero\n      tag_334\n      jumpi\n        /* \"#utility.yul\":8070:8149   */\n      tag_335\n      tag_180\n      jump\t// in\n    tag_335:\n        /* \"#utility.yul\":8032:8151   */\n    tag_334:\n        /* \"#utility.yul\":8190:8191   */\n      0x00\n        /* \"#utility.yul\":8215:8268   */\n      tag_336\n        /* \"#utility.yul\":8260:8267   */\n      dup5\n        /* \"#utility.yul\":8251:8257   */\n      dup3\n        /* \"#utility.yul\":8240:8249   */\n      dup6\n        /* \"#utility.yul\":8236:8258   */\n      add\n        /* \"#utility.yul\":8215:8268   */\n      tag_185\n      jump\t// in\n    tag_336:\n        /* \"#utility.yul\":8205:8268   */\n      swap2\n      pop\n        /* \"#utility.yul\":8161:8278   */\n      pop\n        /* \"#utility.yul\":7956:8285   */\n      swap3\n      swap2\n      pop\n      pop\n      jump\t// out\n        /* \"#utility.yul\":8291:8427   */\n    tag_207:\n        /* \"#utility.yul\":8380:8386   */\n      0x00\n        /* \"#utility.yul\":8414:8419   */\n      dup2\n        /* \"#utility.yul\":8408:8420   */\n      mload\n        /* \"#utility.yul\":8398:8420   */\n      swap1\n      pop\n        /* \"#utility.yul\":8291:8427   */\n      swap2\n      swap1\n      pop\n      jump\t// out\n        /* \"#utility.yul\":8433:8639   */\n    tag_208:\n        /* \"#utility.yul\":8554:8565   */\n      0x00\n        /* \"#utility.yul\":8588:8594   */\n      dup3\n        /* \"#utility.yul\":8583:8586   */\n      dup3\n        /* \"#utility.yul\":8576:8595   */\n      mstore\n        /* \"#utility.yul\":8628:8632   */\n      0x20\n        /* \"#utility.yul\":8623:8626   */\n      dup3\n        /* \"#utility.yul\":8619:8633   */\n      add\n        /* \"#utility.yul\":8604:8633   */\n      swap1\n      pop\n        /* \"#utility.yul\":8433:8639   */\n      swap3\n      swap2\n      pop\n      pop\n      jump\t// out\n        /* \"#utility.yul\":8645:8799   */\n    tag_209:\n        /* \"#utility.yul\":8734:8738   */\n      0x00\n        /* \"#utility.yul\":8757:8760   */\n      dup2\n        /* \"#utility.yul\":8749:8760   */\n      swap1\n      pop\n        /* \"#utility.yul\":8787:8791   */\n      0x20\n        /* \"#utility.yul\":8782:8785   */\n      dup3\n        /* \"#utility.yul\":8778:8792   */\n      add\n        /* \"#utility.yul\":8770:8792   */\n      swap1\n      pop\n        /* \"#utility.yul\":8645:8799   */\n      swap2\n      swap1\n      pop\n      jump\t// out\n        /* \"#utility.yul\":8867:9988   */\n    tag_210:\n        /* \"#utility.yul\":8970:8973   */\n      0x00\n        /* \"#utility.yul\":9006:9010   */\n      0xa0\n        /* \"#utility.yul\":9001:9004   */\n      dup4\n        /* \"#utility.yul\":8997:9011   */\n      add\n        /* \"#utility.yul\":9091:9095   */\n      0x00\n        /* \"#utility.yul\":9084:9089   */\n      dup4\n        /* \"#utility.yul\":9080:9096   */\n      add\n        /* \"#utility.yul\":9074:9097   */\n      mload\n        /* \"#utility.yul\":9110:9173   */\n      tag_341\n        /* \"#utility.yul\":9167:9171   */\n      0x00\n        /* \"#utility.yul\":9162:9165   */\n      dup7\n        /* \"#utility.yul\":9158:9172   */\n      add\n        /* \"#utility.yul\":9144:9156   */\n      dup3\n        /* \"#utility.yul\":9110:9173   */\n      tag_199\n      jump\t// in\n    tag_341:\n        /* \"#utility.yul\":9021:9183   */\n      pop\n        /* \"#utility.yul\":9267:9271   */\n      0x20\n        /* \"#utility.yul\":9260:9265   */\n      dup4\n        /* \"#utility.yul\":9256:9272   */\n      add\n        /* \"#utility.yul\":9250:9273   */\n      mload\n        /* \"#utility.yul\":9286:9349   */\n      tag_342\n        /* \"#utility.yul\":9343:9347   */\n      0x20\n        /* \"#utility.yul\":9338:9341   */\n      dup7\n        /* \"#utility.yul\":9334:9348   */\n      add\n        /* \"#utility.yul\":9320:9332   */\n      dup3\n        /* \"#utility.yul\":9286:9349   */\n      tag_200\n      jump\t// in\n    tag_342:\n        /* \"#utility.yul\":9193:9359   */\n      pop\n        /* \"#utility.yul\":9444:9448   */\n      0x40\n        /* \"#utility.yul\":9437:9442   */\n      dup4\n        /* \"#utility.yul\":9433:9449   */\n      add\n        /* \"#utility.yul\":9427:9450   */\n      mload\n        /* \"#utility.yul\":9497:9500   */\n      dup5\n        /* \"#utility.yul\":9491:9495   */\n      dup3\n        /* \"#utility.yul\":9487:9501   */\n      sub\n        /* \"#utility.yul\":9480:9484   */\n      0x40\n        /* \"#utility.yul\":9475:9478   */\n      dup7\n        /* \"#utility.yul\":9471:9485   */\n      add\n        /* \"#utility.yul\":9464:9502   */\n      mstore\n        /* \"#utility.yul\":9523:9596   */\n      tag_343\n        /* \"#utility.yul\":9591:9595   */\n      dup3\n        /* \"#utility.yul\":9577:9589   */\n      dup3\n        /* \"#utility.yul\":9523:9596   */\n      tag_202\n      jump\t// in\n    tag_343:\n        /* \"#utility.yul\":9515:9596   */\n      swap2\n      pop\n        /* \"#utility.yul\":9369:9607   */\n      pop\n        /* \"#utility.yul\":9694:9698   */\n      0x60\n        /* \"#utility.yul\":9687:9692   */\n      dup4\n        /* \"#utility.yul\":9683:9699   */\n      add\n        /* \"#utility.yul\":9677:9700   */\n      mload\n        /* \"#utility.yul\":9713:9776   */\n      tag_344\n        /* \"#utility.yul\":9770:9774   */\n      0x60\n        /* \"#utility.yul\":9765:9768   */\n      dup7\n        /* \"#utility.yul\":9761:9775   */\n      add\n        /* \"#utility.yul\":9747:9759   */\n      dup3\n        /* \"#utility.yul\":9713:9776   */\n      tag_199\n      jump\t// in\n    tag_344:\n        /* \"#utility.yul\":9617:9786   */\n      pop\n        /* \"#utility.yul\":9869:9873   */\n      0x80\n        /* \"#utility.yul\":9862:9867   */\n      dup4\n        /* \"#utility.yul\":9858:9874   */\n      add\n        /* \"#utility.yul\":9852:9875   */\n      mload\n        /* \"#utility.yul\":9888:9951   */\n      tag_345\n        /* \"#utility.yul\":9945:9949   */\n      0x80\n        /* \"#utility.yul\":9940:9943   */\n      dup7\n        /* \"#utility.yul\":9936:9950   */\n      add\n        /* \"#utility.yul\":9922:9934   */\n      dup3\n        /* \"#utility.yul\":9888:9951   */\n      tag_199\n      jump\t// in\n    tag_345:\n        /* \"#utility.yul\":9796:9961   */\n      pop\n        /* \"#utility.yul\":9978:9982   */\n      dup1\n        /* \"#utility.yul\":9971:9982   */\n      swap2\n      pop\n        /* \"#utility.yul\":8975:9988   */\n      pop\n        /* \"#utility.yul\":8867:9988   */\n      swap3\n      swap2\n      pop\n      pop\n      jump\t// out\n        /* \"#utility.yul\":9994:10238   */\n    tag_211:\n        /* \"#utility.yul\":10107:10117   */\n      0x00\n        /* \"#utility.yul\":10142:10232   */\n      tag_347\n        /* \"#utility.yul\":10228:10231   */\n      dup4\n        /* \"#utility.yul\":10220:10226   */\n      dup4\n        /* \"#utility.yul\":10142:10232   */\n      tag_210\n      jump\t// in\n    tag_347:\n        /* \"#utility.yul\":10128:10232   */\n      swap1\n      pop\n        /* \"#utility.yul\":9994:10238   */\n      swap3\n      swap2\n      pop\n      pop\n      jump\t// out\n        /* \"#utility.yul\":10244:10379   */\n    tag_212:\n        /* \"#utility.yul\":10336:10340   */\n      0x00\n        /* \"#utility.yul\":10368:10372   */\n      0x20\n        /* \"#utility.yul\":10363:10366   */\n      dup3\n        /* \"#utility.yul\":10359:10373   */\n      add\n        /* \"#utility.yul\":10351:10373   */\n      swap1\n      pop\n        /* \"#utility.yul\":10244:10379   */\n      swap2\n      swap1\n      pop\n      jump\t// out\n        /* \"#utility.yul\":10451:11538   */\n    tag_213:\n        /* \"#utility.yul\":10614:10617   */\n      0x00\n        /* \"#utility.yul\":10643:10719   */\n      tag_350\n        /* \"#utility.yul\":10713:10718   */\n      dup3\n        /* \"#utility.yul\":10643:10719   */\n      tag_207\n      jump\t// in\n    tag_350:\n        /* \"#utility.yul\":10735:10843   */\n      tag_351\n        /* \"#utility.yul\":10836:10842   */\n      dup2\n        /* \"#utility.yul\":10831:10834   */\n      dup6\n        /* \"#utility.yul\":10735:10843   */\n      tag_208\n      jump\t// in\n    tag_351:\n        /* \"#utility.yul\":10728:10843   */\n      swap4\n      pop\n        /* \"#utility.yul\":10869:10872   */\n      dup4\n        /* \"#utility.yul\":10914:10918   */\n      0x20\n        /* \"#utility.yul\":10906:10912   */\n      dup3\n        /* \"#utility.yul\":10902:10919   */\n      mul\n        /* \"#utility.yul\":10897:10900   */\n      dup6\n        /* \"#utility.yul\":10893:10920   */\n      add\n        /* \"#utility.yul\":10944:11022   */\n      tag_352\n        /* \"#utility.yul\":11016:11021   */\n      dup6\n        /* \"#utility.yul\":10944:11022   */\n      tag_209\n      jump\t// in\n    tag_352:\n        /* \"#utility.yul\":11045:11052   */\n      dup1\n        /* \"#utility.yul\":11076:11077   */\n      0x00\n        /* \"#utility.yul\":11061:11493   */\n    tag_353:\n        /* \"#utility.yul\":11086:11092   */\n      dup6\n        /* \"#utility.yul\":11083:11084   */\n      dup2\n        /* \"#utility.yul\":11080:11093   */\n      lt\n        /* \"#utility.yul\":11061:11493   */\n      iszero\n      tag_355\n      jumpi\n        /* \"#utility.yul\":11157:11166   */\n      dup5\n        /* \"#utility.yul\":11151:11155   */\n      dup5\n        /* \"#utility.yul\":11147:11167   */\n      sub\n        /* \"#utility.yul\":11142:11145   */\n      dup10\n        /* \"#utility.yul\":11135:11168   */\n      mstore\n        /* \"#utility.yul\":11208:11214   */\n      dup2\n        /* \"#utility.yul\":11202:11215   */\n      mload\n        /* \"#utility.yul\":11236:11344   */\n      tag_356\n        /* \"#utility.yul\":11339:11343   */\n      dup6\n        /* \"#utility.yul\":11324:11337   */\n      dup3\n        /* \"#utility.yul\":11236:11344   */\n      tag_211\n      jump\t// in\n    tag_356:\n        /* \"#utility.yul\":11228:11344   */\n      swap5\n      pop\n        /* \"#utility.yul\":11367:11449   */\n      tag_357\n        /* \"#utility.yul\":11442:11448   */\n      dup4\n        /* \"#utility.yul\":11367:11449   */\n      tag_212\n      jump\t// in\n    tag_357:\n        /* \"#utility.yul\":11357:11449   */\n      swap3\n      pop\n        /* \"#utility.yul\":11478:11482   */\n      0x20\n        /* \"#utility.yul\":11473:11476   */\n      dup11\n        /* \"#utility.yul\":11469:11483   */\n      add\n        /* \"#utility.yul\":11462:11483   */\n      swap10\n      pop\n        /* \"#utility.yul\":11121:11493   */\n      pop\n        /* \"#utility.yul\":11108:11109   */\n      0x01\n        /* \"#utility.yul\":11105:11106   */\n      dup2\n        /* \"#utility.yul\":11101:11110   */\n      add\n        /* \"#utility.yul\":11096:11110   */\n      swap1\n      pop\n        /* \"#utility.yul\":11061:11493   */\n      jump(tag_353)\n    tag_355:\n        /* \"#utility.yul\":11065:11079   */\n      pop\n        /* \"#utility.yul\":11509:11513   */\n      dup3\n        /* \"#utility.yul\":11502:11513   */\n      swap8\n      pop\n        /* \"#utility.yul\":11529:11532   */\n      dup8\n        /* \"#utility.yul\":11522:11532   */\n      swap6\n      pop\n        /* \"#utility.yul\":10619:11538   */\n      pop\n      pop\n      pop\n      pop\n      pop\n        /* \"#utility.yul\":10451:11538   */\n      swap3\n      swap2\n      pop\n      pop\n      jump\t// out\n        /* \"#utility.yul\":11544:12005   */\n    tag_60:\n        /* \"#utility.yul\":11731:11735   */\n      0x00\n        /* \"#utility.yul\":11769:11771   */\n      0x20\n        /* \"#utility.yul\":11758:11767   */\n      dup3\n        /* \"#utility.yul\":11754:11772   */\n      add\n        /* \"#utility.yul\":11746:11772   */\n      swap1\n      pop\n        /* \"#utility.yul\":11818:11827   */\n      dup2\n        /* \"#utility.yul\":11812:11816   */\n      dup2\n        /* \"#utility.yul\":11808:11828   */\n      sub\n        /* \"#utility.yul\":11804:11805   */\n      0x00\n        /* \"#utility.yul\":11793:11802   */\n      dup4\n        /* \"#utility.yul\":11789:11806   */\n      add\n        /* \"#utility.yul\":11782:11829   */\n      mstore\n        /* \"#utility.yul\":11846:11998   */\n      tag_359\n        /* \"#utility.yul\":11993:11997   */\n      dup2\n        /* \"#utility.yul\":11984:11990   */\n      dup5\n        /* \"#utility.yul\":11846:11998   */\n      tag_213\n      jump\t// in\n    tag_359:\n        /* \"#utility.yul\":11838:11998   */\n      swap1\n      pop\n        /* \"#utility.yul\":11544:12005   */\n      swap3\n      swap2\n      pop\n      pop\n      jump\t// out\n        /* \"#utility.yul\":12011:12128   */\n    tag_214:\n        /* \"#utility.yul\":12120:12121   */\n      0x00\n        /* \"#utility.yul\":12117:12118   */\n      0x00\n        /* \"#utility.yul\":12110:12122   */\n      revert\n        /* \"#utility.yul\":12134:12251   */\n    tag_215:\n        /* \"#utility.yul\":12243:12244   */\n      0x00\n        /* \"#utility.yul\":12240:12241   */\n      0x00\n        /* \"#utility.yul\":12233:12245   */\n      revert\n        /* \"#utility.yul\":12257:12437   */\n    tag_216:\n        /* \"#utility.yul\":12305:12382   */\n      0x4e487b7100000000000000000000000000000000000000000000000000000000\n        /* \"#utility.yul\":12302:12303   */\n      0x00\n        /* \"#utility.yul\":12295:12383   */\n      mstore\n        /* \"#utility.yul\":12402:12406   */\n      0x41\n        /* \"#utility.yul\":12399:12400   */\n      0x04\n        /* \"#utility.yul\":12392:12407   */\n      mstore\n        /* \"#utility.yul\":12426:12430   */\n      0x24\n        /* \"#utility.yul\":12423:12424   */\n      0x00\n        /* \"#utility.yul\":12416:12431   */\n      revert\n        /* \"#utility.yul\":12443:12724   */\n    tag_217:\n        /* \"#utility.yul\":12526:12553   */\n      tag_364\n        /* \"#utility.yul\":12548:12552   */\n      dup3\n        /* \"#utility.yul\":12526:12553   */\n      tag_194\n      jump\t// in\n    tag_364:\n        /* \"#utility.yul\":12518:12524   */\n      dup2\n        /* \"#utility.yul\":12514:12554   */\n      add\n        /* \"#utility.yul\":12656:12662   */\n      dup2\n        /* \"#utility.yul\":12644:12654   */\n      dup2\n        /* \"#utility.yul\":12641:12663   */\n      lt\n        /* \"#utility.yul\":12620:12638   */\n      0xffffffffffffffff\n        /* \"#utility.yul\":12608:12618   */\n      dup3\n        /* \"#utility.yul\":12605:12639   */\n      gt\n        /* \"#utility.yul\":12602:12664   */\n      or\n        /* \"#utility.yul\":12599:12687   */\n      iszero\n      tag_365\n      jumpi\n        /* \"#utility.yul\":12667:12685   */\n      tag_366\n      tag_216\n      jump\t// in\n    tag_366:\n        /* \"#utility.yul\":12599:12687   */\n    tag_365:\n        /* \"#utility.yul\":12707:12717   */\n      dup1\n        /* \"#utility.yul\":12703:12705   */\n      0x40\n        /* \"#utility.yul\":12696:12718   */\n      mstore\n        /* \"#utility.yul\":12486:12724   */\n      pop\n        /* \"#utility.yul\":12443:12724   */\n      pop\n      pop\n      jump\t// out\n        /* \"#utility.yul\":12730:12859   */\n    tag_218:\n        /* \"#utility.yul\":12764:12770   */\n      0x00\n        /* \"#utility.yul\":12791:12811   */\n      tag_368\n      tag_179\n      jump\t// in\n    tag_368:\n        /* \"#utility.yul\":12781:12811   */\n      swap1\n      pop\n        /* \"#utility.yul\":12820:12853   */\n      tag_369\n        /* \"#utility.yul\":12848:12852   */\n      dup3\n        /* \"#utility.yul\":12840:12846   */\n      dup3\n        /* \"#utility.yul\":12820:12853   */\n      tag_217\n      jump\t// in\n    tag_369:\n        /* \"#utility.yul\":12730:12859   */\n      swap2\n      swap1\n      pop\n      jump\t// out\n        /* \"#utility.yul\":12865:13173   */\n    tag_219:\n        /* \"#utility.yul\":12927:12931   */\n      0x00\n        /* \"#utility.yul\":13017:13035   */\n      0xffffffffffffffff\n        /* \"#utility.yul\":13009:13015   */\n      dup3\n        /* \"#utility.yul\":13006:13036   */\n      gt\n        /* \"#utility.yul\":13003:13059   */\n      iszero\n      tag_371\n      jumpi\n        /* \"#utility.yul\":13039:13057   */\n      tag_372\n      tag_216\n      jump\t// in\n    tag_372:\n        /* \"#utility.yul\":13003:13059   */\n    tag_371:\n        /* \"#utility.yul\":13077:13106   */\n      tag_373\n        /* \"#utility.yul\":13099:13105   */\n      dup3\n        /* \"#utility.yul\":13077:13106   */\n      tag_194\n      jump\t// in\n    tag_373:\n        /* \"#utility.yul\":13069:13106   */\n      swap1\n      pop\n        /* \"#utility.yul\":13161:13165   */\n      0x20\n        /* \"#utility.yul\":13155:13159   */\n      dup2\n        /* \"#utility.yul\":13151:13166   */\n      add\n        /* \"#utility.yul\":13143:13166   */\n      swap1\n      pop\n        /* \"#utility.yul\":12865:13173   */\n      swap2\n      swap1\n      pop\n      jump\t// out\n        /* \"#utility.yul\":13179:13327   */\n    tag_220:\n        /* \"#utility.yul\":13277:13283   */\n      dup3\n        /* \"#utility.yul\":13272:13275   */\n      dup2\n        /* \"#utility.yul\":13267:13270   */\n      dup4\n        /* \"#utility.yul\":13254:13284   */\n      calldatacopy\n        /* \"#utility.yul\":13318:13319   */\n      0x00\n        /* \"#utility.yul\":13309:13315   */\n      dup4\n        /* \"#utility.yul\":13304:13307   */\n      dup4\n        /* \"#utility.yul\":13300:13316   */\n      add\n        /* \"#utility.yul\":13293:13320   */\n      mstore\n        /* \"#utility.yul\":13179:13327   */\n      pop\n      pop\n      pop\n      jump\t// out\n        /* \"#utility.yul\":13333:13758   */\n    tag_221:\n        /* \"#utility.yul\":13411:13416   */\n      0x00\n        /* \"#utility.yul\":13436:13502   */\n      tag_376\n        /* \"#utility.yul\":13452:13501   */\n      tag_377\n        /* \"#utility.yul\":13494:13500   */\n      dup5\n        /* \"#utility.yul\":13452:13501   */\n      tag_219\n      jump\t// in\n    tag_377:\n        /* \"#utility.yul\":13436:13502   */\n      tag_218\n      jump\t// in\n    tag_376:\n        /* \"#utility.yul\":13427:13502   */\n      swap1\n      pop\n        /* \"#utility.yul\":13525:13531   */\n      dup3\n        /* \"#utility.yul\":13518:13523   */\n      dup2\n        /* \"#utility.yul\":13511:13532   */\n      mstore\n        /* \"#utility.yul\":13563:13567   */\n      0x20\n        /* \"#utility.yul\":13556:13561   */\n      dup2\n        /* \"#utility.yul\":13552:13568   */\n      add\n        /* \"#utility.yul\":13601:13604   */\n      dup5\n        /* \"#utility.yul\":13592:13598   */\n      dup5\n        /* \"#utility.yul\":13587:13590   */\n      dup5\n        /* \"#utility.yul\":13583:13599   */\n      add\n        /* \"#utility.yul\":13580:13605   */\n      gt\n        /* \"#utility.yul\":13577:13689   */\n      iszero\n      tag_378\n      jumpi\n        /* \"#utility.yul\":13608:13687   */\n      tag_379\n      tag_215\n      jump\t// in\n    tag_379:\n        /* \"#utility.yul\":13577:13689   */\n    tag_378:\n        /* \"#utility.yul\":13698:13752   */\n      tag_380\n        /* \"#utility.yul\":13745:13751   */\n      dup5\n        /* \"#utility.yul\":13740:13743   */\n      dup3\n        /* \"#utility.yul\":13735:13738   */\n      dup6\n        /* \"#utility.yul\":13698:13752   */\n      tag_220\n      jump\t// in\n    tag_380:\n        /* \"#utility.yul\":13417:13758   */\n      pop\n        /* \"#utility.yul\":13333:13758   */\n      swap4\n      swap3\n      pop\n      pop\n      pop\n      jump\t// out\n        /* \"#utility.yul\":13778:14118   */\n    tag_222:\n        /* \"#utility.yul\":13834:13839   */\n      0x00\n        /* \"#utility.yul\":13883:13886   */\n      dup3\n        /* \"#utility.yul\":13876:13880   */\n      0x1f\n        /* \"#utility.yul\":13868:13874   */\n      dup4\n        /* \"#utility.yul\":13864:13881   */\n      add\n        /* \"#utility.yul\":13860:13887   */\n      slt\n        /* \"#utility.yul\":13850:13972   */\n      tag_382\n      jumpi\n        /* \"#utility.yul\":13891:13970   */\n      tag_383\n      tag_214\n      jump\t// in\n    tag_383:\n        /* \"#utility.yul\":13850:13972   */\n    tag_382:\n        /* \"#utility.yul\":14008:14014   */\n      dup2\n        /* \"#utility.yul\":13995:14015   */\n      calldataload\n        /* \"#utility.yul\":14033:14112   */\n      tag_384\n        /* \"#utility.yul\":14108:14111   */\n      dup5\n        /* \"#utility.yul\":14100:14106   */\n      dup3\n        /* \"#utility.yul\":14093:14097   */\n      0x20\n        /* \"#utility.yul\":14085:14091   */\n      dup7\n        /* \"#utility.yul\":14081:14098   */\n      add\n        /* \"#utility.yul\":14033:14112   */\n      tag_221\n      jump\t// in\n    tag_384:\n        /* \"#utility.yul\":14024:14112   */\n      swap2\n      pop\n        /* \"#utility.yul\":13840:14118   */\n      pop\n        /* \"#utility.yul\":13778:14118   */\n      swap3\n      swap2\n      pop\n      pop\n      jump\t// out\n        /* \"#utility.yul\":14124:14633   */\n    tag_65:\n        /* \"#utility.yul\":14193:14199   */\n      0x00\n        /* \"#utility.yul\":14242:14244   */\n      0x20\n        /* \"#utility.yul\":14230:14239   */\n      dup3\n        /* \"#utility.yul\":14221:14228   */\n      dup5\n        /* \"#utility.yul\":14217:14240   */\n      sub\n        /* \"#utility.yul\":14213:14245   */\n      slt\n        /* \"#utility.yul\":14210:14329   */\n      iszero\n      tag_386\n      jumpi\n        /* \"#utility.yul\":14248:14327   */\n      tag_387\n      tag_180\n      jump\t// in\n    tag_387:\n        /* \"#utility.yul\":14210:14329   */\n    tag_386:\n        /* \"#utility.yul\":14396:14397   */\n      0x00\n        /* \"#utility.yul\":14385:14394   */\n      dup3\n        /* \"#utility.yul\":14381:14398   */\n      add\n        /* \"#utility.yul\":14368:14399   */\n      calldataload\n        /* \"#utility.yul\":14426:14444   */\n      0xffffffffffffffff\n        /* \"#utility.yul\":14418:14424   */\n      dup2\n        /* \"#utility.yul\":14415:14445   */\n      gt\n        /* \"#utility.yul\":14412:14529   */\n      iszero\n      tag_388\n      jumpi\n        /* \"#utility.yul\":14448:14527   */\n      tag_389\n      tag_181\n      jump\t// in\n    tag_389:\n        /* \"#utility.yul\":14412:14529   */\n    tag_388:\n        /* \"#utility.yul\":14553:14616   */\n      tag_390\n        /* \"#utility.yul\":14608:14615   */\n      dup5\n        /* \"#utility.yul\":14599:14605   */\n      dup3\n        /* \"#utility.yul\":14588:14597   */\n      dup6\n        /* \"#utility.yul\":14584:14606   */\n      add\n        /* \"#utility.yul\":14553:14616   */\n      tag_222\n      jump\t// in\n    tag_390:\n        /* \"#utility.yul\":14543:14616   */\n      swap2\n      pop\n        /* \"#utility.yul\":14339:14626   */\n      pop\n        /* \"#utility.yul\":14124:14633   */\n      swap3\n      swap2\n      pop\n      pop\n      jump\t// out\n        /* \"#utility.yul\":14639:14819   */\n    tag_223:\n        /* \"#utility.yul\":14687:14764   */\n      0x4e487b7100000000000000000000000000000000000000000000000000000000\n        /* \"#utility.yul\":14684:14685   */\n      0x00\n        /* \"#utility.yul\":14677:14765   */\n      mstore\n        /* \"#utility.yul\":14784:14788   */\n      0x22\n        /* \"#utility.yul\":14781:14782   */\n      0x04\n        /* \"#utility.yul\":14774:14789   */\n      mstore\n        /* \"#utility.yul\":14808:14812   */\n      0x24\n        /* \"#utility.yul\":14805:14806   */\n      0x00\n        /* \"#utility.yul\":14798:14813   */\n      revert\n        /* \"#utility.yul\":14825:15145   */\n    tag_76:\n        /* \"#utility.yul\":14869:14875   */\n      0x00\n        /* \"#utility.yul\":14906:14907   */\n      0x02\n        /* \"#utility.yul\":14900:14904   */\n      dup3\n        /* \"#utility.yul\":14896:14908   */\n      div\n        /* \"#utility.yul\":14886:14908   */\n      swap1\n      pop\n        /* \"#utility.yul\":14953:14954   */\n      0x01\n        /* \"#utility.yul\":14947:14951   */\n      dup3\n        /* \"#utility.yul\":14943:14955   */\n      and\n        /* \"#utility.yul\":14974:14992   */\n      dup1\n        /* \"#utility.yul\":14964:15045   */\n      tag_393\n      jumpi\n        /* \"#utility.yul\":15030:15034   */\n      0x7f\n        /* \"#utility.yul\":15022:15028   */\n      dup3\n        /* \"#utility.yul\":15018:15035   */\n      and\n        /* \"#utility.yul\":15008:15035   */\n      swap2\n      pop\n        /* \"#utility.yul\":14964:15045   */\n    tag_393:\n        /* \"#utility.yul\":15092:15094   */\n      0x20\n        /* \"#utility.yul\":15084:15090   */\n      dup3\n        /* \"#utility.yul\":15081:15095   */\n      lt\n        /* \"#utility.yul\":15061:15079   */\n      dup2\n        /* \"#utility.yul\":15058:15096   */\n      sub\n        /* \"#utility.yul\":15055:15139   */\n      tag_394\n      jumpi\n        /* \"#utility.yul\":15111:15129   */\n      tag_395\n      tag_223\n      jump\t// in\n    tag_395:\n        /* \"#utility.yul\":15055:15139   */\n    tag_394:\n        /* \"#utility.yul\":14876:15145   */\n      pop\n        /* \"#utility.yul\":14825:15145   */\n      swap2\n      swap1\n      pop\n      jump\t// out\n        /* \"#utility.yul\":15151:15318   */\n    tag_224:\n        /* \"#utility.yul\":15291:15310   */\n      0x636f6e7472616374206973207061757365000000000000000000000000000000\n        /* \"#utility.yul\":15287:15288   */\n      0x00\n        /* \"#utility.yul\":15279:15285   */\n      dup3\n        /* \"#utility.yul\":15275:15289   */\n      add\n        /* \"#utility.yul\":15268:15311   */\n      mstore\n        /* \"#utility.yul\":15151:15318   */\n      pop\n      jump\t// out\n        /* \"#utility.yul\":15324:15690   */\n    tag_225:\n        /* \"#utility.yul\":15466:15469   */\n      0x00\n        /* \"#utility.yul\":15487:15554   */\n      tag_398\n        /* \"#utility.yul\":15551:15553   */\n      0x11\n        /* \"#utility.yul\":15546:15549   */\n      dup4\n        /* \"#utility.yul\":15487:15554   */\n      tag_192\n      jump\t// in\n    tag_398:\n        /* \"#utility.yul\":15480:15554   */\n      swap2\n      pop\n        /* \"#utility.yul\":15563:15656   */\n      tag_399\n        /* \"#utility.yul\":15652:15655   */\n      dup3\n        /* \"#utility.yul\":15563:15656   */\n      tag_224\n      jump\t// in\n    tag_399:\n        /* \"#utility.yul\":15681:15683   */\n      0x20\n        /* \"#utility.yul\":15676:15679   */\n      dup3\n        /* \"#utility.yul\":15672:15684   */\n      add\n        /* \"#utility.yul\":15665:15684   */\n      swap1\n      pop\n        /* \"#utility.yul\":15324:15690   */\n      swap2\n      swap1\n      pop\n      jump\t// out\n        /* \"#utility.yul\":15696:16115   */\n    tag_87:\n        /* \"#utility.yul\":15862:15866   */\n      0x00\n        /* \"#utility.yul\":15900:15902   */\n      0x20\n        /* \"#utility.yul\":15889:15898   */\n      dup3\n        /* \"#utility.yul\":15885:15903   */\n      add\n        /* \"#utility.yul\":15877:15903   */\n      swap1\n      pop\n        /* \"#utility.yul\":15949:15958   */\n      dup2\n        /* \"#utility.yul\":15943:15947   */\n      dup2\n        /* \"#utility.yul\":15939:15959   */\n      sub\n        /* \"#utility.yul\":15935:15936   */\n      0x00\n        /* \"#utility.yul\":15924:15933   */\n      dup4\n        /* \"#utility.yul\":15920:15937   */\n      add\n        /* \"#utility.yul\":15913:15960   */\n      mstore\n        /* \"#utility.yul\":15977:16108   */\n      tag_401\n        /* \"#utility.yul\":16103:16107   */\n      dup2\n        /* \"#utility.yul\":15977:16108   */\n      tag_225\n      jump\t// in\n    tag_401:\n        /* \"#utility.yul\":15969:16108   */\n      swap1\n      pop\n        /* \"#utility.yul\":15696:16115   */\n      swap2\n      swap1\n      pop\n      jump\t// out\n        /* \"#utility.yul\":16121:16301   */\n    tag_97:\n        /* \"#utility.yul\":16169:16246   */\n      0x4e487b7100000000000000000000000000000000000000000000000000000000\n        /* \"#utility.yul\":16166:16167   */\n      0x00\n        /* \"#utility.yul\":16159:16247   */\n      mstore\n        /* \"#utility.yul\":16266:16270   */\n      0x32\n        /* \"#utility.yul\":16263:16264   */\n      0x04\n        /* \"#utility.yul\":16256:16271   */\n      mstore\n        /* \"#utility.yul\":16290:16294   */\n      0x24\n        /* \"#utility.yul\":16287:16288   */\n      0x00\n        /* \"#utility.yul\":16280:16295   */\n      revert\n        /* \"#utility.yul\":16307:16479   */\n    tag_226:\n        /* \"#utility.yul\":16447:16471   */\n      0x746865207477656574206973206e6f7420666f756e6400000000000000000000\n        /* \"#utility.yul\":16443:16444   */\n      0x00\n        /* \"#utility.yul\":16435:16441   */\n      dup3\n        /* \"#utility.yul\":16431:16445   */\n      add\n        /* \"#utility.yul\":16424:16472   */\n      mstore\n        /* \"#utility.yul\":16307:16479   */\n      pop\n      jump\t// out\n        /* \"#utility.yul\":16485:16851   */\n    tag_227:\n        /* \"#utility.yul\":16627:16630   */\n      0x00\n        /* \"#utility.yul\":16648:16715   */\n      tag_405\n        /* \"#utility.yul\":16712:16714   */\n      0x16\n        /* \"#utility.yul\":16707:16710   */\n      dup4\n        /* \"#utility.yul\":16648:16715   */\n      tag_192\n      jump\t// in\n    tag_405:\n        /* \"#utility.yul\":16641:16715   */\n      swap2\n      pop\n        /* \"#utility.yul\":16724:16817   */\n      tag_406\n        /* \"#utility.yul\":16813:16816   */\n      dup3\n        /* \"#utility.yul\":16724:16817   */\n      tag_226\n      jump\t// in\n    tag_406:\n        /* \"#utility.yul\":16842:16844   */\n      0x20\n        /* \"#utility.yul\":16837:16840   */\n      dup3\n        /* \"#utility.yul\":16833:16845   */\n      add\n        /* \"#utility.yul\":16826:16845   */\n      swap1\n      pop\n        /* \"#utility.yul\":16485:16851   */\n      swap2\n      swap1\n      pop\n      jump\t// out\n        /* \"#utility.yul\":16857:17276   */\n    tag_110:\n        /* \"#utility.yul\":17023:17027   */\n      0x00\n        /* \"#utility.yul\":17061:17063   */\n      0x20\n        /* \"#utility.yul\":17050:17059   */\n      dup3\n        /* \"#utility.yul\":17046:17064   */\n      add\n        /* \"#utility.yul\":17038:17064   */\n      swap1\n      pop\n        /* \"#utility.yul\":17110:17119   */\n      dup2\n        /* \"#utility.yul\":17104:17108   */\n      dup2\n        /* \"#utility.yul\":17100:17120   */\n      sub\n        /* \"#utility.yul\":17096:17097   */\n      0x00\n        /* \"#utility.yul\":17085:17094   */\n      dup4\n        /* \"#utility.yul\":17081:17098   */\n      add\n        /* \"#utility.yul\":17074:17121   */\n      mstore\n        /* \"#utility.yul\":17138:17269   */\n      tag_408\n        /* \"#utility.yul\":17264:17268   */\n      dup2\n        /* \"#utility.yul\":17138:17269   */\n      tag_227\n      jump\t// in\n    tag_408:\n        /* \"#utility.yul\":17130:17269   */\n      swap1\n      pop\n        /* \"#utility.yul\":16857:17276   */\n      swap2\n      swap1\n      pop\n      jump\t// out\n        /* \"#utility.yul\":17282:17462   */\n    tag_228:\n        /* \"#utility.yul\":17330:17407   */\n      0x4e487b7100000000000000000000000000000000000000000000000000000000\n        /* \"#utility.yul\":17327:17328   */\n      0x00\n        /* \"#utility.yul\":17320:17408   */\n      mstore\n        /* \"#utility.yul\":17427:17431   */\n      0x11\n        /* \"#utility.yul\":17424:17425   */\n      0x04\n        /* \"#utility.yul\":17417:17432   */\n      mstore\n        /* \"#utility.yul\":17451:17455   */\n      0x24\n        /* \"#utility.yul\":17448:17449   */\n      0x00\n        /* \"#utility.yul\":17441:17456   */\n      revert\n        /* \"#utility.yul\":17468:17639   */\n    tag_115:\n        /* \"#utility.yul\":17507:17510   */\n      0x00\n        /* \"#utility.yul\":17530:17554   */\n      tag_411\n        /* \"#utility.yul\":17548:17553   */\n      dup3\n        /* \"#utility.yul\":17530:17554   */\n      tag_186\n      jump\t// in\n    tag_411:\n        /* \"#utility.yul\":17521:17554   */\n      swap2\n      pop\n        /* \"#utility.yul\":17576:17580   */\n      0x00\n        /* \"#utility.yul\":17569:17574   */\n      dup3\n        /* \"#utility.yul\":17566:17581   */\n      sub\n        /* \"#utility.yul\":17563:17604   */\n      tag_412\n      jumpi\n        /* \"#utility.yul\":17584:17602   */\n      tag_413\n      tag_228\n      jump\t// in\n    tag_413:\n        /* \"#utility.yul\":17563:17604   */\n    tag_412:\n        /* \"#utility.yul\":17631:17632   */\n      0x01\n        /* \"#utility.yul\":17624:17629   */\n      dup3\n        /* \"#utility.yul\":17620:17633   */\n      sub\n        /* \"#utility.yul\":17613:17633   */\n      swap1\n      pop\n        /* \"#utility.yul\":17468:17639   */\n      swap2\n      swap1\n      pop\n      jump\t// out\n        /* \"#utility.yul\":17645:18198   */\n    tag_120:\n        /* \"#utility.yul\":17822:17826   */\n      0x00\n        /* \"#utility.yul\":17860:17863   */\n      0x80\n        /* \"#utility.yul\":17849:17858   */\n      dup3\n        /* \"#utility.yul\":17845:17864   */\n      add\n        /* \"#utility.yul\":17837:17864   */\n      swap1\n      pop\n        /* \"#utility.yul\":17874:17945   */\n      tag_415\n        /* \"#utility.yul\":17942:17943   */\n      0x00\n        /* \"#utility.yul\":17931:17940   */\n      dup4\n        /* \"#utility.yul\":17927:17944   */\n      add\n        /* \"#utility.yul\":17918:17924   */\n      dup8\n        /* \"#utility.yul\":17874:17945   */\n      tag_190\n      jump\t// in\n    tag_415:\n        /* \"#utility.yul\":17955:18027   */\n      tag_416\n        /* \"#utility.yul\":18023:18025   */\n      0x20\n        /* \"#utility.yul\":18012:18021   */\n      dup4\n        /* \"#utility.yul\":18008:18026   */\n      add\n        /* \"#utility.yul\":17999:18005   */\n      dup7\n        /* \"#utility.yul\":17955:18027   */\n      tag_190\n      jump\t// in\n    tag_416:\n        /* \"#utility.yul\":18037:18109   */\n      tag_417\n        /* \"#utility.yul\":18105:18107   */\n      0x40\n        /* \"#utility.yul\":18094:18103   */\n      dup4\n        /* \"#utility.yul\":18090:18108   */\n      add\n        /* \"#utility.yul\":18081:18087   */\n      dup6\n        /* \"#utility.yul\":18037:18109   */\n      tag_189\n      jump\t// in\n    tag_417:\n        /* \"#utility.yul\":18119:18191   */\n      tag_418\n        /* \"#utility.yul\":18187:18189   */\n      0x60\n        /* \"#utility.yul\":18176:18185   */\n      dup4\n        /* \"#utility.yul\":18172:18190   */\n      add\n        /* \"#utility.yul\":18163:18169   */\n      dup5\n        /* \"#utility.yul\":18119:18191   */\n      tag_189\n      jump\t// in\n    tag_418:\n        /* \"#utility.yul\":17645:18198   */\n      swap6\n      swap5\n      pop\n      pop\n      pop\n      pop\n      pop\n      jump\t// out\n        /* \"#utility.yul\":18204:18383   */\n    tag_229:\n        /* \"#utility.yul\":18344:18375   */\n      0x74686520747765657420636f6e74656e7420697320746f6f206c6f6e67000000\n        /* \"#utility.yul\":18340:18341   */\n      0x00\n        /* \"#utility.yul\":18332:18338   */\n      dup3\n        /* \"#utility.yul\":18328:18342   */\n      add\n        /* \"#utility.yul\":18321:18376   */\n      mstore\n        /* \"#utility.yul\":18204:18383   */\n      pop\n      jump\t// out\n        /* \"#utility.yul\":18389:18755   */\n    tag_230:\n        /* \"#utility.yul\":18531:18534   */\n      0x00\n        /* \"#utility.yul\":18552:18619   */\n      tag_421\n        /* \"#utility.yul\":18616:18618   */\n      0x1d\n        /* \"#utility.yul\":18611:18614   */\n      dup4\n        /* \"#utility.yul\":18552:18619   */\n      tag_192\n      jump\t// in\n    tag_421:\n        /* \"#utility.yul\":18545:18619   */\n      swap2\n      pop\n        /* \"#utility.yul\":18628:18721   */\n      tag_422\n        /* \"#utility.yul\":18717:18720   */\n      dup3\n        /* \"#utility.yul\":18628:18721   */\n      tag_229\n      jump\t// in\n    tag_422:\n        /* \"#utility.yul\":18746:18748   */\n      0x20\n        /* \"#utility.yul\":18741:18744   */\n      dup3\n        /* \"#utility.yul\":18737:18749   */\n      add\n        /* \"#utility.yul\":18730:18749   */\n      swap1\n      pop\n        /* \"#utility.yul\":18389:18755   */\n      swap2\n      swap1\n      pop\n      jump\t// out\n        /* \"#utility.yul\":18761:19180   */\n    tag_142:\n        /* \"#utility.yul\":18927:18931   */\n      0x00\n        /* \"#utility.yul\":18965:18967   */\n      0x20\n        /* \"#utility.yul\":18954:18963   */\n      dup3\n        /* \"#utility.yul\":18950:18968   */\n      add\n        /* \"#utility.yul\":18942:18968   */\n      swap1\n      pop\n        /* \"#utility.yul\":19014:19023   */\n      dup2\n        /* \"#utility.yul\":19008:19012   */\n      dup2\n        /* \"#utility.yul\":19004:19024   */\n      sub\n        /* \"#utility.yul\":19000:19001   */\n      0x00\n        /* \"#utility.yul\":18989:18998   */\n      dup4\n        /* \"#utility.yul\":18985:19002   */\n      add\n        /* \"#utility.yul\":18978:19025   */\n      mstore\n        /* \"#utility.yul\":19042:19173   */\n      tag_424\n        /* \"#utility.yul\":19168:19172   */\n      dup2\n        /* \"#utility.yul\":19042:19173   */\n      tag_230\n      jump\t// in\n    tag_424:\n        /* \"#utility.yul\":19034:19173   */\n      swap1\n      pop\n        /* \"#utility.yul\":18761:19180   */\n      swap2\n      swap1\n      pop\n      jump\t// out\n        /* \"#utility.yul\":19186:19327   */\n    tag_231:\n        /* \"#utility.yul\":19235:19239   */\n      0x00\n        /* \"#utility.yul\":19258:19261   */\n      dup2\n        /* \"#utility.yul\":19250:19261   */\n      swap1\n      pop\n        /* \"#utility.yul\":19281:19284   */\n      dup2\n        /* \"#utility.yul\":19278:19279   */\n      0x00\n        /* \"#utility.yul\":19271:19285   */\n      mstore\n        /* \"#utility.yul\":19315:19319   */\n      0x20\n        /* \"#utility.yul\":19312:19313   */\n      0x00\n        /* \"#utility.yul\":19302:19320   */\n      keccak256\n        /* \"#utility.yul\":19294:19320   */\n      swap1\n      pop\n        /* \"#utility.yul\":19186:19327   */\n      swap2\n      swap1\n      pop\n      jump\t// out\n        /* \"#utility.yul\":19333:19426   */\n    tag_232:\n        /* \"#utility.yul\":19370:19376   */\n      0x00\n        /* \"#utility.yul\":19417:19419   */\n      0x20\n        /* \"#utility.yul\":19412:19414   */\n      0x1f\n        /* \"#utility.yul\":19405:19410   */\n      dup4\n        /* \"#utility.yul\":19401:19415   */\n      add\n        /* \"#utility.yul\":19397:19420   */\n      div\n        /* \"#utility.yul\":19387:19420   */\n      swap1\n      pop\n        /* \"#utility.yul\":19333:19426   */\n      swap2\n      swap1\n      pop\n      jump\t// out\n        /* \"#utility.yul\":19432:19539   */\n    tag_233:\n        /* \"#utility.yul\":19476:19484   */\n      0x00\n        /* \"#utility.yul\":19526:19531   */\n      dup3\n        /* \"#utility.yul\":19520:19524   */\n      dup3\n        /* \"#utility.yul\":19516:19532   */\n      shl\n        /* \"#utility.yul\":19495:19532   */\n      swap1\n      pop\n        /* \"#utility.yul\":19432:19539   */\n      swap3\n      swap2\n      pop\n      pop\n      jump\t// out\n        /* \"#utility.yul\":19545:19938   */\n    tag_234:\n        /* \"#utility.yul\":19614:19620   */\n      0x00\n        /* \"#utility.yul\":19664:19665   */\n      0x08\n        /* \"#utility.yul\":19652:19662   */\n      dup4\n        /* \"#utility.yul\":19648:19666   */\n      mul\n        /* \"#utility.yul\":19687:19784   */\n      tag_429\n        /* \"#utility.yul\":19717:19783   */\n      0xffffffffffffffffffffffffffffffffffffffffffffffffffffffffffffffff\n        /* \"#utility.yul\":19706:19715   */\n      dup3\n        /* \"#utility.yul\":19687:19784   */\n      tag_233\n      jump\t// in\n    tag_429:\n        /* \"#utility.yul\":19805:19844   */\n      tag_430\n        /* \"#utility.yul\":19835:19843   */\n      dup7\n        /* \"#utility.yul\":19824:19833   */\n      dup4\n        /* \"#utility.yul\":19805:19844   */\n      tag_233\n      jump\t// in\n    tag_430:\n        /* \"#utility.yul\":19793:19844   */\n      swap6\n      pop\n        /* \"#utility.yul\":19877:19881   */\n      dup1\n        /* \"#utility.yul\":19873:19882   */\n      not\n        /* \"#utility.yul\":19866:19871   */\n      dup5\n        /* \"#utility.yul\":19862:19883   */\n      and\n        /* \"#utility.yul\":19853:19883   */\n      swap4\n      pop\n        /* \"#utility.yul\":19926:19930   */\n      dup1\n        /* \"#utility.yul\":19916:19924   */\n      dup7\n        /* \"#utility.yul\":19912:19931   */\n      and\n        /* \"#utility.yul\":19905:19910   */\n      dup5\n        /* \"#utility.yul\":19902:19932   */\n      or\n        /* \"#utility.yul\":19892:19932   */\n      swap3\n      pop\n        /* \"#utility.yul\":19621:19938   */\n      pop\n      pop\n        /* \"#utility.yul\":19545:19938   */\n      swap4\n      swap3\n      pop\n      pop\n      pop\n      jump\t// out\n        /* \"#utility.yul\":19944:20004   */\n    tag_235:\n        /* \"#utility.yul\":19972:19975   */\n      0x00\n        /* \"#utility.yul\":19993:19998   */\n      dup2\n        /* \"#utility.yul\":19986:19998   */\n      swap1\n      pop\n        /* \"#utility.yul\":19944:20004   */\n      swap2\n      swap1\n      pop\n      jump\t// out\n        /* \"#utility.yul\":20010:20152   */\n    tag_236:\n        /* \"#utility.yul\":20060:20069   */\n      0x00\n        /* \"#utility.yul\":20093:20146   */\n      tag_433\n        /* \"#utility.yul\":20111:20145   */\n      tag_434\n        /* \"#utility.yul\":20120:20144   */\n      tag_435\n        /* \"#utility.yul\":20138:20143   */\n      dup5\n        /* \"#utility.yul\":20120:20144   */\n      tag_186\n      jump\t// in\n    tag_435:\n        /* \"#utility.yul\":20111:20145   */\n      tag_235\n      jump\t// in\n    tag_434:\n        /* \"#utility.yul\":20093:20146   */\n      tag_186\n      jump\t// in\n    tag_433:\n        /* \"#utility.yul\":20080:20146   */\n      swap1\n      pop\n        /* \"#utility.yul\":20010:20152   */\n      swap2\n      swap1\n      pop\n      jump\t// out\n        /* \"#utility.yul\":20158:20233   */\n    tag_237:\n        /* \"#utility.yul\":20201:20204   */\n      0x00\n        /* \"#utility.yul\":20222:20227   */\n      dup2\n        /* \"#utility.yul\":20215:20227   */\n      swap1\n      pop\n        /* \"#utility.yul\":20158:20233   */\n      swap2\n      swap1\n      pop\n      jump\t// out\n        /* \"#utility.yul\":20239:20508   */\n    tag_238:\n        /* \"#utility.yul\":20349:20388   */\n      tag_438\n        /* \"#utility.yul\":20380:20387   */\n      dup4\n        /* \"#utility.yul\":20349:20388   */\n      tag_236\n      jump\t// in\n    tag_438:\n        /* \"#utility.yul\":20410:20501   */\n      tag_439\n        /* \"#utility.yul\":20459:20500   */\n      tag_440\n        /* \"#utility.yul\":20483:20499   */\n      dup3\n        /* \"#utility.yul\":20459:20500   */\n      tag_237\n      jump\t// in\n    tag_440:\n        /* \"#utility.yul\":20451:20457   */\n      dup5\n        /* \"#utility.yul\":20444:20448   */\n      dup5\n        /* \"#utility.yul\":20438:20449   */\n      sload\n        /* \"#utility.yul\":20410:20501   */\n      tag_234\n      jump\t// in\n    tag_439:\n        /* \"#utility.yul\":20404:20408   */\n      dup3\n        /* \"#utility.yul\":20397:20502   */\n      sstore\n        /* \"#utility.yul\":20315:20508   */\n      pop\n        /* \"#utility.yul\":20239:20508   */\n      pop\n      pop\n      pop\n      jump\t// out\n        /* \"#utility.yul\":20514:20587   */\n    tag_239:\n        /* \"#utility.yul\":20559:20562   */\n      0x00\n        /* \"#utility.yul\":20580:20581   */\n      0x00\n        /* \"#utility.yul\":20573:20581   */\n      swap1\n      pop\n        /* \"#utility.yul\":20514:20587   */\n      swap1\n      jump\t// out\n        /* \"#utility.yul\":20593:20782   */\n    tag_240:\n        /* \"#utility.yul\":20670:20702   */\n      tag_443\n      tag_239\n      jump\t// in\n    tag_443:\n        /* \"#utility.yul\":20711:20776   */\n      tag_444\n        /* \"#utility.yul\":20769:20775   */\n      dup2\n        /* \"#utility.yul\":20761:20767   */\n      dup5\n        /* \"#utility.yul\":20755:20759   */\n      dup5\n        /* \"#utility.yul\":20711:20776   */\n      tag_238\n      jump\t// in\n    tag_444:\n        /* \"#utility.yul\":20646:20782   */\n      pop\n        /* \"#utility.yul\":20593:20782   */\n      pop\n      pop\n      jump\t// out\n        /* \"#utility.yul\":20788:20974   */\n    tag_241:\n        /* \"#utility.yul\":20848:20968   */\n    tag_446:\n        /* \"#utility.yul\":20865:20868   */\n      dup2\n        /* \"#utility.yul\":20858:20863   */\n      dup2\n        /* \"#utility.yul\":20855:20869   */\n      lt\n        /* \"#utility.yul\":20848:20968   */\n      iszero\n      tag_448\n      jumpi\n        /* \"#utility.yul\":20919:20958   */\n      tag_449\n        /* \"#utility.yul\":20956:20957   */\n      0x00\n        /* \"#utility.yul\":20949:20954   */\n      dup3\n        /* \"#utility.yul\":20919:20958   */\n      tag_240\n      jump\t// in\n    tag_449:\n        /* \"#utility.yul\":20892:20893   */\n      0x01\n        /* \"#utility.yul\":20885:20890   */\n      dup2\n        /* \"#utility.yul\":20881:20894   */\n      add\n        /* \"#utility.yul\":20872:20894   */\n      swap1\n      pop\n        /* \"#utility.yul\":20848:20968   */\n      jump(tag_446)\n    tag_448:\n        /* \"#utility.yul\":20788:20974   */\n      pop\n      pop\n      jump\t// out\n        /* \"#utility.yul\":20980:21523   */\n    tag_242:\n        /* \"#utility.yul\":21081:21083   */\n      0x1f\n        /* \"#utility.yul\":21076:21079   */\n      dup3\n        /* \"#utility.yul\":21073:21084   */\n      gt\n        /* \"#utility.yul\":21070:21516   */\n      iszero\n      tag_451\n      jumpi\n        /* \"#utility.yul\":21115:21153   */\n      tag_452\n        /* \"#utility.yul\":21147:21152   */\n      dup2\n        /* \"#utility.yul\":21115:21153   */\n      tag_231\n      jump\t// in\n    tag_452:\n        /* \"#utility.yul\":21199:21228   */\n      tag_453\n        /* \"#utility.yul\":21217:21227   */\n      dup5\n        /* \"#utility.yul\":21199:21228   */\n      tag_232\n      jump\t// in\n    tag_453:\n        /* \"#utility.yul\":21189:21197   */\n      dup2\n        /* \"#utility.yul\":21185:21229   */\n      add\n        /* \"#utility.yul\":21382:21384   */\n      0x20\n        /* \"#utility.yul\":21370:21380   */\n      dup6\n        /* \"#utility.yul\":21367:21385   */\n      lt\n        /* \"#utility.yul\":21364:21413   */\n      iszero\n      tag_454\n      jumpi\n        /* \"#utility.yul\":21403:21411   */\n      dup2\n        /* \"#utility.yul\":21388:21411   */\n      swap1\n      pop\n        /* \"#utility.yul\":21364:21413   */\n    tag_454:\n        /* \"#utility.yul\":21426:21506   */\n      tag_455\n        /* \"#utility.yul\":21482:21504   */\n      tag_456\n        /* \"#utility.yul\":21500:21503   */\n      dup6\n        /* \"#utility.yul\":21482:21504   */\n      tag_232\n      jump\t// in\n    tag_456:\n        /* \"#utility.yul\":21472:21480   */\n      dup4\n        /* \"#utility.yul\":21468:21505   */\n      add\n        /* \"#utility.yul\":21455:21466   */\n      dup3\n        /* \"#utility.yul\":21426:21506   */\n      tag_241\n      jump\t// in\n    tag_455:\n        /* \"#utility.yul\":21085:21516   */\n      pop\n      pop\n        /* \"#utility.yul\":21070:21516   */\n    tag_451:\n        /* \"#utility.yul\":20980:21523   */\n      pop\n      pop\n      pop\n      jump\t// out\n        /* \"#utility.yul\":21529:21646   */\n    tag_243:\n        /* \"#utility.yul\":21583:21591   */\n      0x00\n        /* \"#utility.yul\":21633:21638   */\n      dup3\n        /* \"#utility.yul\":21627:21631   */\n      dup3\n        /* \"#utility.yul\":21623:21639   */\n      shr\n        /* \"#utility.yul\":21602:21639   */\n      swap1\n      pop\n        /* \"#utility.yul\":21529:21646   */\n      swap3\n      swap2\n      pop\n      pop\n      jump\t// out\n        /* \"#utility.yul\":21652:21821   */\n    tag_244:\n        /* \"#utility.yul\":21696:21702   */\n      0x00\n        /* \"#utility.yul\":21729:21780   */\n      tag_459\n        /* \"#utility.yul\":21777:21778   */\n      0x00\n        /* \"#utility.yul\":21773:21779   */\n      not\n        /* \"#utility.yul\":21765:21770   */\n      dup5\n        /* \"#utility.yul\":21762:21763   */\n      0x08\n        /* \"#utility.yul\":21758:21771   */\n      mul\n        /* \"#utility.yul\":21729:21780   */\n      tag_243\n      jump\t// in\n    tag_459:\n        /* \"#utility.yul\":21725:21781   */\n      not\n        /* \"#utility.yul\":21810:21814   */\n      dup1\n        /* \"#utility.yul\":21804:21808   */\n      dup4\n        /* \"#utility.yul\":21800:21815   */\n      and\n        /* \"#utility.yul\":21790:21815   */\n      swap2\n      pop\n        /* \"#utility.yul\":21703:21821   */\n      pop\n        /* \"#utility.yul\":21652:21821   */\n      swap3\n      swap2\n      pop\n      pop\n      jump\t// out\n        /* \"#utility.yul\":21826:22121   */\n    tag_245:\n        /* \"#utility.yul\":21902:21906   */\n      0x00\n        /* \"#utility.yul\":22048:22077   */\n      tag_461\n        /* \"#utility.yul\":22073:22076   */\n      dup4\n        /* \"#utility.yul\":22067:22071   */\n      dup4\n        /* \"#utility.yul\":22048:22077   */\n      tag_244\n      jump\t// in\n    tag_461:\n        /* \"#utility.yul\":22040:22077   */\n      swap2\n      pop\n        /* \"#utility.yul\":22110:22113   */\n      dup3\n        /* \"#utility.yul\":22107:22108   */\n      0x02\n        /* \"#utility.yul\":22103:22114   */\n      mul\n        /* \"#utility.yul\":22097:22101   */\n      dup3\n        /* \"#utility.yul\":22094:22115   */\n      or\n        /* \"#utility.yul\":22086:22115   */\n      swap1\n      pop\n        /* \"#utility.yul\":21826:22121   */\n      swap3\n      swap2\n      pop\n      pop\n      jump\t// out\n        /* \"#utility.yul\":22126:23521   */\n    tag_145:\n        /* \"#utility.yul\":22243:22280   */\n      tag_463\n        /* \"#utility.yul\":22276:22279   */\n      dup3\n        /* \"#utility.yul\":22243:22280   */\n      tag_191\n      jump\t// in\n    tag_463:\n        /* \"#utility.yul\":22345:22363   */\n      0xffffffffffffffff\n        /* \"#utility.yul\":22337:22343   */\n      dup2\n        /* \"#utility.yul\":22334:22364   */\n      gt\n        /* \"#utility.yul\":22331:22387   */\n      iszero\n      tag_464\n      jumpi\n        /* \"#utility.yul\":22367:22385   */\n      tag_465\n      tag_216\n      jump\t// in\n    tag_465:\n        /* \"#utility.yul\":22331:22387   */\n    tag_464:\n        /* \"#utility.yul\":22411:22449   */\n      tag_466\n        /* \"#utility.yul\":22443:22447   */\n      dup3\n        /* \"#utility.yul\":22437:22448   */\n      sload\n        /* \"#utility.yul\":22411:22449   */\n      tag_76\n      jump\t// in\n    tag_466:\n        /* \"#utility.yul\":22496:22563   */\n      tag_467\n        /* \"#utility.yul\":22556:22562   */\n      dup3\n        /* \"#utility.yul\":22548:22554   */\n      dup3\n        /* \"#utility.yul\":22542:22546   */\n      dup6\n        /* \"#utility.yul\":22496:22563   */\n      tag_242\n      jump\t// in\n    tag_467:\n        /* \"#utility.yul\":22590:22591   */\n      0x00\n        /* \"#utility.yul\":22614:22618   */\n      0x20\n        /* \"#utility.yul\":22601:22618   */\n      swap1\n      pop\n        /* \"#utility.yul\":22646:22648   */\n      0x1f\n        /* \"#utility.yul\":22638:22644   */\n      dup4\n        /* \"#utility.yul\":22635:22649   */\n      gt\n        /* \"#utility.yul\":22663:22664   */\n      0x01\n        /* \"#utility.yul\":22658:23276   */\n      dup2\n      eq\n      tag_469\n      jumpi\n        /* \"#utility.yul\":23320:23321   */\n      0x00\n        /* \"#utility.yul\":23337:23343   */\n      dup5\n        /* \"#utility.yul\":23334:23411   */\n      iszero\n      tag_470\n      jumpi\n        /* \"#utility.yul\":23386:23395   */\n      dup3\n        /* \"#utility.yul\":23381:23384   */\n      dup8\n        /* \"#utility.yul\":23377:23396   */\n      add\n        /* \"#utility.yul\":23371:23397   */\n      mload\n        /* \"#utility.yul\":23362:23397   */\n      swap1\n      pop\n        /* \"#utility.yul\":23334:23411   */\n    tag_470:\n        /* \"#utility.yul\":23437:23504   */\n      tag_471\n        /* \"#utility.yul\":23497:23503   */\n      dup6\n        /* \"#utility.yul\":23490:23495   */\n      dup3\n        /* \"#utility.yul\":23437:23504   */\n      tag_245\n      jump\t// in\n    tag_471:\n        /* \"#utility.yul\":23431:23435   */\n      dup7\n        /* \"#utility.yul\":23424:23505   */\n      sstore\n        /* \"#utility.yul\":23293:23515   */\n      pop\n        /* \"#utility.yul\":22628:23515   */\n      jump(tag_468)\n        /* \"#utility.yul\":22658:23276   */\n    tag_469:\n        /* \"#utility.yul\":22710:22714   */\n      0x1f\n        /* \"#utility.yul\":22706:22715   */\n      not\n        /* \"#utility.yul\":22698:22704   */\n      dup5\n        /* \"#utility.yul\":22694:22716   */\n      and\n        /* \"#utility.yul\":22744:22781   */\n      tag_472\n        /* \"#utility.yul\":22776:22780   */\n      dup7\n        /* \"#utility.yul\":22744:22781   */\n      tag_231\n      jump\t// in\n    tag_472:\n        /* \"#utility.yul\":22803:22804   */\n      0x00\n        /* \"#utility.yul\":22817:23025   */\n    tag_473:\n        /* \"#utility.yul\":22831:22838   */\n      dup3\n        /* \"#utility.yul\":22828:22829   */\n      dup2\n        /* \"#utility.yul\":22825:22839   */\n      lt\n        /* \"#utility.yul\":22817:23025   */\n      iszero\n      tag_475\n      jumpi\n        /* \"#utility.yul\":22910:22919   */\n      dup5\n        /* \"#utility.yul\":22905:22908   */\n      dup10\n        /* \"#utility.yul\":22901:22920   */\n      add\n        /* \"#utility.yul\":22895:22921   */\n      mload\n        /* \"#utility.yul\":22887:22893   */\n      dup3\n        /* \"#utility.yul\":22880:22922   */\n      sstore\n        /* \"#utility.yul\":22961:22962   */\n      0x01\n        /* \"#utility.yul\":22953:22959   */\n      dup3\n        /* \"#utility.yul\":22949:22963   */\n      add\n        /* \"#utility.yul\":22939:22963   */\n      swap2\n      pop\n        /* \"#utility.yul\":23008:23010   */\n      0x20\n        /* \"#utility.yul\":22997:23006   */\n      dup6\n        /* \"#utility.yul\":22993:23011   */\n      add\n        /* \"#utility.yul\":22980:23011   */\n      swap5\n      pop\n        /* \"#utility.yul\":22854:22858   */\n      0x20\n        /* \"#utility.yul\":22851:22852   */\n      dup2\n        /* \"#utility.yul\":22847:22859   */\n      add\n        /* \"#utility.yul\":22842:22859   */\n      swap1\n      pop\n        /* \"#utility.yul\":22817:23025   */\n      jump(tag_473)\n    tag_475:\n        /* \"#utility.yul\":23053:23059   */\n      dup7\n        /* \"#utility.yul\":23044:23051   */\n      dup4\n        /* \"#utility.yul\":23041:23060   */\n      lt\n        /* \"#utility.yul\":23038:23217   */\n      iszero\n      tag_476\n      jumpi\n        /* \"#utility.yul\":23111:23120   */\n      dup5\n        /* \"#utility.yul\":23106:23109   */\n      dup10\n        /* \"#utility.yul\":23102:23121   */\n      add\n        /* \"#utility.yul\":23096:23122   */\n      mload\n        /* \"#utility.yul\":23154:23202   */\n      tag_477\n        /* \"#utility.yul\":23196:23200   */\n      0x1f\n        /* \"#utility.yul\":23188:23194   */\n      dup10\n        /* \"#utility.yul\":23184:23201   */\n      and\n        /* \"#utility.yul\":23173:23182   */\n      dup3\n        /* \"#utility.yul\":23154:23202   */\n      tag_244\n      jump\t// in\n    tag_477:\n        /* \"#utility.yul\":23146:23152   */\n      dup4\n        /* \"#utility.yul\":23139:23203   */\n      sstore\n        /* \"#utility.yul\":23061:23217   */\n      pop\n        /* \"#utility.yul\":23038:23217   */\n    tag_476:\n        /* \"#utility.yul\":23263:23264   */\n      0x01\n        /* \"#utility.yul\":23259:23260   */\n      0x02\n        /* \"#utility.yul\":23251:23257   */\n      dup9\n        /* \"#utility.yul\":23247:23261   */\n      mul\n        /* \"#utility.yul\":23243:23265   */\n      add\n        /* \"#utility.yul\":23237:23241   */\n      dup9\n        /* \"#utility.yul\":23230:23266   */\n      sstore\n        /* \"#utility.yul\":22665:23276   */\n      pop\n      pop\n      pop\n        /* \"#utility.yul\":22628:23515   */\n    tag_468:\n      pop\n        /* \"#utility.yul\":22218:23521   */\n      pop\n      pop\n      pop\n        /* \"#utility.yul\":22126:23521   */\n      pop\n      pop\n      jump\t// out\n        /* \"#utility.yul\":23527:24282   */\n    tag_147:\n        /* \"#utility.yul\":23752:23756   */\n      0x00\n        /* \"#utility.yul\":23790:23793   */\n      0xa0\n        /* \"#utility.yul\":23779:23788   */\n      dup3\n        /* \"#utility.yul\":23775:23794   */\n      add\n        /* \"#utility.yul\":23767:23794   */\n      swap1\n      pop\n        /* \"#utility.yul\":23804:23875   */\n      tag_479\n        /* \"#utility.yul\":23872:23873   */\n      0x00\n        /* \"#utility.yul\":23861:23870   */\n      dup4\n        /* \"#utility.yul\":23857:23874   */\n      add\n        /* \"#utility.yul\":23848:23854   */\n      dup9\n        /* \"#utility.yul\":23804:23875   */\n      tag_190\n      jump\t// in\n    tag_479:\n        /* \"#utility.yul\":23885:23957   */\n      tag_480\n        /* \"#utility.yul\":23953:23955   */\n      0x20\n        /* \"#utility.yul\":23942:23951   */\n      dup4\n        /* \"#utility.yul\":23938:23956   */\n      add\n        /* \"#utility.yul\":23929:23935   */\n      dup8\n        /* \"#utility.yul\":23885:23957   */\n      tag_189\n      jump\t// in\n    tag_480:\n        /* \"#utility.yul\":24004:24013   */\n      dup2\n        /* \"#utility.yul\":23998:24002   */\n      dup2\n        /* \"#utility.yul\":23994:24014   */\n      sub\n        /* \"#utility.yul\":23989:23991   */\n      0x40\n        /* \"#utility.yul\":23978:23987   */\n      dup4\n        /* \"#utility.yul\":23974:23992   */\n      add\n        /* \"#utility.yul\":23967:24015   */\n      mstore\n        /* \"#utility.yul\":24032:24110   */\n      tag_481\n        /* \"#utility.yul\":24105:24109   */\n      dup2\n        /* \"#utility.yul\":24096:24102   */\n      dup7\n        /* \"#utility.yul\":24032:24110   */\n      tag_195\n      jump\t// in\n    tag_481:\n        /* \"#utility.yul\":24024:24110   */\n      swap1\n      pop\n        /* \"#utility.yul\":24120:24192   */\n      tag_482\n        /* \"#utility.yul\":24188:24190   */\n      0x60\n        /* \"#utility.yul\":24177:24186   */\n      dup4\n        /* \"#utility.yul\":24173:24191   */\n      add\n        /* \"#utility.yul\":24164:24170   */\n      dup6\n        /* \"#utility.yul\":24120:24192   */\n      tag_189\n      jump\t// in\n    tag_482:\n        /* \"#utility.yul\":24202:24275   */\n      tag_483\n        /* \"#utility.yul\":24270:24273   */\n      0x80\n        /* \"#utility.yul\":24259:24268   */\n      dup4\n        /* \"#utility.yul\":24255:24274   */\n      add\n        /* \"#utility.yul\":24246:24252   */\n      dup5\n        /* \"#utility.yul\":24202:24275   */\n      tag_189\n      jump\t// in\n    tag_483:\n        /* \"#utility.yul\":23527:24282   */\n      swap7\n      swap6\n      pop\n      pop\n      pop\n      pop\n      pop\n      pop\n      jump\t// out\n        /* \"#utility.yul\":24288:24461   */\n    tag_246:\n        /* \"#utility.yul\":24428:24453   */\n      0x746865207477656574206973206e6f7420666f756e643b000000000000000000\n        /* \"#utility.yul\":24424:24425   */\n      0x00\n        /* \"#utility.yul\":24416:24422   */\n      dup3\n        /* \"#utility.yul\":24412:24426   */\n      add\n        /* \"#utility.yul\":24405:24454   */\n      mstore\n        /* \"#utility.yul\":24288:24461   */\n      pop\n      jump\t// out\n        /* \"#utility.yul\":24467:24833   */\n    tag_247:\n        /* \"#utility.yul\":24609:24612   */\n      0x00\n        /* \"#utility.yul\":24630:24697   */\n      tag_486\n        /* \"#utility.yul\":24694:24696   */\n      0x17\n        /* \"#utility.yul\":24689:24692   */\n      dup4\n        /* \"#utility.yul\":24630:24697   */\n      tag_192\n      jump\t// in\n    tag_486:\n        /* \"#utility.yul\":24623:24697   */\n      swap2\n      pop\n        /* \"#utility.yul\":24706:24799   */\n      tag_487\n        /* \"#utility.yul\":24795:24798   */\n      dup3\n        /* \"#utility.yul\":24706:24799   */\n      tag_246\n      jump\t// in\n    tag_487:\n        /* \"#utility.yul\":24824:24826   */\n      0x20\n        /* \"#utility.yul\":24819:24822   */\n      dup3\n        /* \"#utility.yul\":24815:24827   */\n      add\n        /* \"#utility.yul\":24808:24827   */\n      swap1\n      pop\n        /* \"#utility.yul\":24467:24833   */\n      swap2\n      swap1\n      pop\n      jump\t// out\n        /* \"#utility.yul\":24839:25258   */\n    tag_154:\n        /* \"#utility.yul\":25005:25009   */\n      0x00\n        /* \"#utility.yul\":25043:25045   */\n      0x20\n        /* \"#utility.yul\":25032:25041   */\n      dup3\n        /* \"#utility.yul\":25028:25046   */\n      add\n        /* \"#utility.yul\":25020:25046   */\n      swap1\n      pop\n        /* \"#utility.yul\":25092:25101   */\n      dup2\n        /* \"#utility.yul\":25086:25090   */\n      dup2\n        /* \"#utility.yul\":25082:25102   */\n      sub\n        /* \"#utility.yul\":25078:25079   */\n      0x00\n        /* \"#utility.yul\":25067:25076   */\n      dup4\n        /* \"#utility.yul\":25063:25080   */\n      add\n        /* \"#utility.yul\":25056:25103   */\n      mstore\n        /* \"#utility.yul\":25120:25251   */\n      tag_489\n        /* \"#utility.yul\":25246:25250   */\n      dup2\n        /* \"#utility.yul\":25120:25251   */\n      tag_247\n      jump\t// in\n    tag_489:\n        /* \"#utility.yul\":25112:25251   */\n      swap1\n      pop\n        /* \"#utility.yul\":24839:25258   */\n      swap2\n      swap1\n      pop\n      jump\t// out\n        /* \"#utility.yul\":25264:25497   */\n    tag_159:\n        /* \"#utility.yul\":25303:25306   */\n      0x00\n        /* \"#utility.yul\":25326:25350   */\n      tag_491\n        /* \"#utility.yul\":25344:25349   */\n      dup3\n        /* \"#utility.yul\":25326:25350   */\n      tag_186\n      jump\t// in\n    tag_491:\n        /* \"#utility.yul\":25317:25350   */\n      swap2\n      pop\n        /* \"#utility.yul\":25372:25438   */\n      0xffffffffffffffffffffffffffffffffffffffffffffffffffffffffffffffff\n        /* \"#utility.yul\":25365:25370   */\n      dup3\n        /* \"#utility.yul\":25362:25439   */\n      sub\n        /* \"#utility.yul\":25359:25462   */\n      tag_492\n      jumpi\n        /* \"#utility.yul\":25442:25460   */\n      tag_493\n      tag_228\n      jump\t// in\n    tag_493:\n        /* \"#utility.yul\":25359:25462   */\n    tag_492:\n        /* \"#utility.yul\":25489:25490   */\n      0x01\n        /* \"#utility.yul\":25482:25487   */\n      dup3\n        /* \"#utility.yul\":25478:25491   */\n      add\n        /* \"#utility.yul\":25471:25491   */\n      swap1\n      pop\n        /* \"#utility.yul\":25264:25497   */\n      swap2\n      swap1\n      pop\n      jump\t// out\n\n    auxdata: 0xa2646970667358221220c64ce415a7623c32006b1e8b25bf6a0f8156bcb7f88bb3ba9842bc9b6909d60f64736f6c634300081e0033\n}\n",
				"bytecode": {
					"linkReferences": {},
					"object": "60806040526101185f60156101000a81548161ffff021916908361ffff16021790555034801561002d575f5ffd5b50735b38da6a701c568545dcfcb03fcb875f56beddc45f73ffffffffffffffffffffffffffffffffffffffff168173ffffffffffffffffffffffffffffffffffffffff16036100b3575f6040517f1e4fbdf70000000000000000000000000000000000000000000000000000000081526004016100aa91906101e1565b60405180910390fd5b6100c2816100e160201b60201c565b505f5f60146101000a81548160ff0219169083151502179055506101fa565b5f5f5f9054906101000a900473ffffffffffffffffffffffffffffffffffffffff169050815f5f6101000a81548173ffffffffffffffffffffffffffffffffffffffff021916908373ffffffffffffffffffffffffffffffffffffffff1602179055508173ffffffffffffffffffffffffffffffffffffffff168173ffffffffffffffffffffffffffffffffffffffff167f8be0079c531659141344cd1fd0a4f28419497f9722a3daafe3b4186f6b6457e060405160405180910390a35050565b5f73ffffffffffffffffffffffffffffffffffffffff82169050919050565b5f6101cb826101a2565b9050919050565b6101db816101c1565b82525050565b5f6020820190506101f45f8301846101d2565b92915050565b611bd6806102075f395ff3fe608060405234801561000f575f5ffd5b50600436106100e8575f3560e01c80638d70c7db1161008a578063b0b375d211610064578063b0b375d214610226578063b8e4f16714610230578063d4333cd01461024c578063f2fde38b14610268576100e8565b80638d70c7db146101ba5780638da5cb5b146101d8578063a8b606d6146101f6576100e8565b80634e61573f116100c65780634e61573f146101465780636b05bc7c14610176578063715018a6146101925780638456cb591461019c576100e8565b806305a1b4a9146100ec57806334e9d898146101205780633f4ba83a1461013c575b5f5ffd5b61010660048036038101906101019190610fc7565b610284565b604051610117959493929190611093565b60405180910390f35b61013a60048036038101906101359190611122565b610375565b005b6101446103f0565b005b610160600480360381019061015b919061114d565b610413565b60405161016d9190611251565b60405180910390f35b610190600480360381019061018b9190610fc7565b61058a565b005b61019a61073b565b005b6101a461074e565b6040516101b1919061128b565b60405180910390f35b6101c2610760565b6040516101cf91906112b3565b60405180910390f35b6101e0610773565b6040516101ed91906112cc565b60405180910390f35b610210600480360381019061020b91906112e5565b61079a565b60405161021d919061143e565b60405180910390f35b61022e610935565b005b61024a6004803603810190610245919061158a565b610959565b005b61026660048036038101906102619190610fc7565b610b64565b005b610282600480360381019061027d91906112e5565b610d15565b005b6001602052815f5260405f20818154811061029d575f80fd5b905f5260205f2090600502015f9150915050805f015490806001015f9054906101000a900473ffffffffffffffffffffffffffffffffffffffff16908060020180546102e8906115fe565b80601f0160208091040260200160405190810160405280929190818152602001828054610314906115fe565b801561035f5780601f106103365761010080835404028352916020019161035f565b820191905f5260205f20905b81548152906001019060200180831161034257829003601f168201915b5050505050908060030154908060040154905085565b61037d610d99565b5f15155f60149054906101000a900460ff161515146103d1576040517f08c379a00000000000000000000000000000000000000000000000000000000081526004016103c890611678565b60405180910390fd5b805f60156101000a81548161ffff021916908361ffff16021790555050565b6103f8610d99565b5f5f60146101000a81548160ff021916908315150217905550565b61041b610ee8565b60015f3373ffffffffffffffffffffffffffffffffffffffff1673ffffffffffffffffffffffffffffffffffffffff1681526020019081526020015f20828154811061046a57610469611696565b5b905f5260205f2090600502016040518060a00160405290815f8201548152602001600182015f9054906101000a900473ffffffffffffffffffffffffffffffffffffffff1673ffffffffffffffffffffffffffffffffffffffff1673ffffffffffffffffffffffffffffffffffffffff1681526020016002820180546104ef906115fe565b80601f016020809104026020016040519081016040528092919081815260200182805461051b906115fe565b80156105665780601f1061053d57610100808354040283529160200191610566565b820191905f5260205f20905b81548152906001019060200180831161054957829003601f168201915b50505050508152602001600382015481526020016004820154815250509050919050565b8060015f8473ffffffffffffffffffffffffffffffffffffffff1673ffffffffffffffffffffffffffffffffffffffff1681526020019081526020015f2082815481106105da576105d9611696565b5b905f5260205f2090600502015f015414610629576040517f08c379a00000000000000000000000000000000000000000000000000000000081526004016106209061170d565b60405180910390fd5b60015f8373ffffffffffffffffffffffffffffffffffffffff1673ffffffffffffffffffffffffffffffffffffffff1681526020019081526020015f20818154811061067857610677611696565b5b905f5260205f2090600502016004015f81548092919061069790611758565b91905055507ff108f246d05459643c2e6d7a2484a10c697fb61161fbbfdfe4b06327f57977fa33838360015f8773ffffffffffffffffffffffffffffffffffffffff1673ffffffffffffffffffffffffffffffffffffffff1681526020019081526020015f20858154811061070f5761070e611696565b5b905f5260205f2090600502016004015460405161072f949392919061177f565b60405180910390a15050565b610743610d99565b61074c5f610e20565b565b5f60149054906101000a900460ff1681565b5f60159054906101000a900461ffff1681565b5f5f5f9054906101000a900473ffffffffffffffffffffffffffffffffffffffff16905090565b606060015f8373ffffffffffffffffffffffffffffffffffffffff1673ffffffffffffffffffffffffffffffffffffffff1681526020019081526020015f20805480602002602001604051908101604052809291908181526020015f905b8282101561092a578382905f5260205f2090600502016040518060a00160405290815f8201548152602001600182015f9054906101000a900473ffffffffffffffffffffffffffffffffffffffff1673ffffffffffffffffffffffffffffffffffffffff1673ffffffffffffffffffffffffffffffffffffffff168152602001600282018054610887906115fe565b80601f01602080910402602001604051908101604052809291908181526020018280546108b3906115fe565b80156108fe5780601f106108d5576101008083540402835291602001916108fe565b820191905f5260205f20905b8154815290600101906020018083116108e157829003601f168201915b5050505050815260200160038201548152602001600482015481525050815260200190600101906107f8565b505050509050919050565b61093d610d99565b60015f60146101000a81548160ff021916908315150217905550565b5f60159054906101000a900461ffff1661ffff16815111156109b0576040517f08c379a00000000000000000000000000000000000000000000000000000000081526004016109a79061180c565b60405180910390fd5b5f6040518060a0016040528060015f3373ffffffffffffffffffffffffffffffffffffffff1673ffffffffffffffffffffffffffffffffffffffff1681526020019081526020015f208054905081526020013373ffffffffffffffffffffffffffffffffffffffff1681526020018381526020014281526020015f815250905060015f3373ffffffffffffffffffffffffffffffffffffffff1673ffffffffffffffffffffffffffffffffffffffff1681526020019081526020015f2081908060018154018082558091505060019003905f5260205f2090600502015f909190919091505f820151815f01556020820151816001015f6101000a81548173ffffffffffffffffffffffffffffffffffffffff021916908373ffffffffffffffffffffffffffffffffffffffff1602179055506040820151816002019081610af791906119ca565b50606082015181600301556080820151816004015550507fcd6bc67176572c834935f5185d84a1bd9cbaca3c1fc843c9b66a05fdec1020ba8160200151825f0151836040015184606001518560800151604051610b58959493929190611a99565b60405180910390a15050565b8060015f8473ffffffffffffffffffffffffffffffffffffffff1673ffffffffffffffffffffffffffffffffffffffff1681526020019081526020015f208281548110610bb457610bb3611696565b5b905f5260205f2090600502015f015414610c03576040517f08c379a0000000000000000000000000000000000000000000000000000000008152600401610bfa90611b3b565b60405180910390fd5b60015f8373ffffffffffffffffffffffffffffffffffffffff1673ffffffffffffffffffffffffffffffffffffffff1681526020019081526020015f208181548110610c5257610c51611696565b5b905f5260205f2090600502016004015f815480929190610c7190611b59565b91905055507fd0e721d121fb28c3d437c6c067c10dde1c9dce85bcd30012a9be4c6a6944e19333838360015f8773ffffffffffffffffffffffffffffffffffffffff1673ffffffffffffffffffffffffffffffffffffffff1681526020019081526020015f208581548110610ce957610ce8611696565b5b905f5260205f20906005020160040154604051610d09949392919061177f565b60405180910390a15050565b610d1d610d99565b5f73ffffffffffffffffffffffffffffffffffffffff168173ffffffffffffffffffffffffffffffffffffffff1603610d8d575f6040517f1e4fbdf7000000000000000000000000000000000000000000000000000000008152600401610d8491906112cc565b60405180910390fd5b610d9681610e20565b50565b610da1610ee1565b73ffffffffffffffffffffffffffffffffffffffff16610dbf610773565b73ffffffffffffffffffffffffffffffffffffffff1614610e1e57610de2610ee1565b6040517f118cdaa7000000000000000000000000000000000000000000000000000000008152600401610e1591906112cc565b60405180910390fd5b565b5f5f5f9054906101000a900473ffffffffffffffffffffffffffffffffffffffff169050815f5f6101000a81548173ffffffffffffffffffffffffffffffffffffffff021916908373ffffffffffffffffffffffffffffffffffffffff1602179055508173ffffffffffffffffffffffffffffffffffffffff168173ffffffffffffffffffffffffffffffffffffffff167f8be0079c531659141344cd1fd0a4f28419497f9722a3daafe3b4186f6b6457e060405160405180910390a35050565b5f33905090565b6040518060a001604052805f81526020015f73ffffffffffffffffffffffffffffffffffffffff168152602001606081526020015f81526020015f81525090565b5f604051905090565b5f5ffd5b5f5ffd5b5f73ffffffffffffffffffffffffffffffffffffffff82169050919050565b5f610f6382610f3a565b9050919050565b610f7381610f59565b8114610f7d575f5ffd5b50565b5f81359050610f8e81610f6a565b92915050565b5f819050919050565b610fa681610f94565b8114610fb0575f5ffd5b50565b5f81359050610fc181610f9d565b92915050565b5f5f60408385031215610fdd57610fdc610f32565b5b5f610fea85828601610f80565b9250506020610ffb85828601610fb3565b9150509250929050565b61100e81610f94565b82525050565b61101d81610f59565b82525050565b5f81519050919050565b5f82825260208201905092915050565b8281835e5f83830152505050565b5f601f19601f8301169050919050565b5f61106582611023565b61106f818561102d565b935061107f81856020860161103d565b6110888161104b565b840191505092915050565b5f60a0820190506110a65f830188611005565b6110b36020830187611014565b81810360408301526110c5818661105b565b90506110d46060830185611005565b6110e16080830184611005565b9695505050505050565b5f61ffff82169050919050565b611101816110eb565b811461110b575f5ffd5b50565b5f8135905061111c816110f8565b92915050565b5f6020828403121561113757611136610f32565b5b5f6111448482850161110e565b91505092915050565b5f6020828403121561116257611161610f32565b5b5f61116f84828501610fb3565b91505092915050565b61118181610f94565b82525050565b61119081610f59565b82525050565b5f82825260208201905092915050565b5f6111b082611023565b6111ba8185611196565b93506111ca81856020860161103d565b6111d38161104b565b840191505092915050565b5f60a083015f8301516111f35f860182611178565b5060208301516112066020860182611187565b506040830151848203604086015261121e82826111a6565b91505060608301516112336060860182611178565b5060808301516112466080860182611178565b508091505092915050565b5f6020820190508181035f83015261126981846111de565b905092915050565b5f8115159050919050565b61128581611271565b82525050565b5f60208201905061129e5f83018461127c565b92915050565b6112ad816110eb565b82525050565b5f6020820190506112c65f8301846112a4565b92915050565b5f6020820190506112df5f830184611014565b92915050565b5f602082840312156112fa576112f9610f32565b5b5f61130784828501610f80565b91505092915050565b5f81519050919050565b5f82825260208201905092915050565b5f819050602082019050919050565b5f60a083015f83015161134e5f860182611178565b5060208301516113616020860182611187565b506040830151848203604086015261137982826111a6565b915050606083015161138e6060860182611178565b5060808301516113a16080860182611178565b508091505092915050565b5f6113b78383611339565b905092915050565b5f602082019050919050565b5f6113d582611310565b6113df818561131a565b9350836020820285016113f18561132a565b805f5b8581101561142c578484038952815161140d85826113ac565b9450611418836113bf565b925060208a019950506001810190506113f4565b50829750879550505050505092915050565b5f6020820190508181035f83015261145681846113cb565b905092915050565b5f5ffd5b5f5ffd5b7f4e487b71000000000000000000000000000000000000000000000000000000005f52604160045260245ffd5b61149c8261104b565b810181811067ffffffffffffffff821117156114bb576114ba611466565b5b80604052505050565b5f6114cd610f29565b90506114d98282611493565b919050565b5f67ffffffffffffffff8211156114f8576114f7611466565b5b6115018261104b565b9050602081019050919050565b828183375f83830152505050565b5f61152e611529846114de565b6114c4565b90508281526020810184848401111561154a57611549611462565b5b61155584828561150e565b509392505050565b5f82601f8301126115715761157061145e565b5b813561158184826020860161151c565b91505092915050565b5f6020828403121561159f5761159e610f32565b5b5f82013567ffffffffffffffff8111156115bc576115bb610f36565b5b6115c88482850161155d565b91505092915050565b7f4e487b71000000000000000000000000000000000000000000000000000000005f52602260045260245ffd5b5f600282049050600182168061161557607f821691505b602082108103611628576116276115d1565b5b50919050565b7f636f6e74726163742069732070617573650000000000000000000000000000005f82015250565b5f61166260118361102d565b915061166d8261162e565b602082019050919050565b5f6020820190508181035f83015261168f81611656565b9050919050565b7f4e487b71000000000000000000000000000000000000000000000000000000005f52603260045260245ffd5b7f746865207477656574206973206e6f7420666f756e64000000000000000000005f82015250565b5f6116f760168361102d565b9150611702826116c3565b602082019050919050565b5f6020820190508181035f830152611724816116eb565b9050919050565b7f4e487b71000000000000000000000000000000000000000000000000000000005f52601160045260245ffd5b5f61176282610f94565b91505f82036117745761177361172b565b5b600182039050919050565b5f6080820190506117925f830187611014565b61179f6020830186611014565b6117ac6040830185611005565b6117b96060830184611005565b95945050505050565b7f74686520747765657420636f6e74656e7420697320746f6f206c6f6e670000005f82015250565b5f6117f6601d8361102d565b9150611801826117c2565b602082019050919050565b5f6020820190508181035f830152611823816117ea565b9050919050565b5f819050815f5260205f209050919050565b5f6020601f8301049050919050565b5f82821b905092915050565b5f600883026118867fffffffffffffffffffffffffffffffffffffffffffffffffffffffffffffffff8261184b565b611890868361184b565b95508019841693508086168417925050509392505050565b5f819050919050565b5f6118cb6118c66118c184610f94565b6118a8565b610f94565b9050919050565b5f819050919050565b6118e4836118b1565b6118f86118f0826118d2565b848454611857565b825550505050565b5f5f905090565b61190f611900565b61191a8184846118db565b505050565b5b8181101561193d576119325f82611907565b600181019050611920565b5050565b601f821115611982576119538161182a565b61195c8461183c565b8101602085101561196b578190505b61197f6119778561183c565b83018261191f565b50505b505050565b5f82821c905092915050565b5f6119a25f1984600802611987565b1980831691505092915050565b5f6119ba8383611993565b9150826002028217905092915050565b6119d382611023565b67ffffffffffffffff8111156119ec576119eb611466565b5b6119f682546115fe565b611a01828285611941565b5f60209050601f831160018114611a32575f8415611a20578287015190505b611a2a85826119af565b865550611a91565b601f198416611a408661182a565b5f5b82811015611a6757848901518255600182019150602085019450602081019050611a42565b86831015611a845784890151611a80601f891682611993565b8355505b6001600288020188555050505b505050505050565b5f60a082019050611aac5f830188611014565b611ab96020830187611005565b8181036040830152611acb818661105b565b9050611ada6060830185611005565b611ae76080830184611005565b9695505050505050565b7f746865207477656574206973206e6f7420666f756e643b0000000000000000005f82015250565b5f611b2560178361102d565b9150611b3082611af1565b602082019050919050565b5f6020820190508181035f830152611b5281611b19565b9050919050565b5f611b6382610f94565b91507fffffffffffffffffffffffffffffffffffffffffffffffffffffffffffffffff8203611b9557611b9461172b565b5b60018201905091905056fea2646970667358221220c64ce415a7623c32006b1e8b25bf6a0f8156bcb7f88bb3ba9842bc9b6909d60f64736f6c634300081e0033",
					"opcodes": "PUSH1 0x80 PUSH1 0x40 MSTORE PUSH2 0x118 PUSH0 PUSH1 0x15 PUSH2 0x100 EXP DUP2 SLOAD DUP2 PUSH2 0xFFFF MUL NOT AND SWAP1 DUP4 PUSH2 0xFFFF AND MUL OR SWAP1 SSTORE POP CALLVALUE DUP1 ISZERO PUSH2 0x2D JUMPI PUSH0 PUSH0 REVERT JUMPDEST POP PUSH20 0x5B38DA6A701C568545DCFCB03FCB875F56BEDDC4 PUSH0 PUSH20 0xFFFFFFFFFFFFFFFFFFFFFFFFFFFFFFFFFFFFFFFF AND DUP2 PUSH20 0xFFFFFFFFFFFFFFFFFFFFFFFFFFFFFFFFFFFFFFFF AND SUB PUSH2 0xB3 JUMPI PUSH0 PUSH1 0x40 MLOAD PUSH32 0x1E4FBDF700000000000000000000000000000000000000000000000000000000 DUP2 MSTORE PUSH1 0x4 ADD PUSH2 0xAA SWAP2 SWAP1 PUSH2 0x1E1 JUMP JUMPDEST PUSH1 0x40 MLOAD DUP1 SWAP2 SUB SWAP1 REVERT JUMPDEST PUSH2 0xC2 DUP2 PUSH2 0xE1 PUSH1 0x20 SHL PUSH1 0x20 SHR JUMP JUMPDEST POP PUSH0 PUSH0 PUSH1 0x14 PUSH2 0x100 EXP DUP2 SLOAD DUP2 PUSH1 0xFF MUL NOT AND SWAP1 DUP4 ISZERO ISZERO MUL OR SWAP1 SSTORE POP PUSH2 0x1FA JUMP JUMPDEST PUSH0 PUSH0 PUSH0 SWAP1 SLOAD SWAP1 PUSH2 0x100 EXP SWAP1 DIV PUSH20 0xFFFFFFFFFFFFFFFFFFFFFFFFFFFFFFFFFFFFFFFF AND SWAP1 POP DUP2 PUSH0 PUSH0 PUSH2 0x100 EXP DUP2 SLOAD DUP2 PUSH20 0xFFFFFFFFFFFFFFFFFFFFFFFFFFFFFFFFFFFFFFFF MUL NOT AND SWAP1 DUP4 PUSH20 0xFFFFFFFFFFFFFFFFFFFFFFFFFFFFFFFFFFFFFFFF AND MUL OR SWAP1 SSTORE POP DUP2 PUSH20 0xFFFFFFFFFFFFFFFFFFFFFFFFFFFFFFFFFFFFFFFF AND DUP2 PUSH20 0xFFFFFFFFFFFFFFFFFFFFFFFFFFFFFFFFFFFFFFFF AND PUSH32 0x8BE0079C531659141344CD1FD0A4F28419497F9722A3DAAFE3B4186F6B6457E0 PUSH1 0x40 MLOAD PUSH1 0x40 MLOAD DUP1 SWAP2 SUB SWAP1 LOG3 POP POP JUMP JUMPDEST PUSH0 PUSH20 0xFFFFFFFFFFFFFFFFFFFFFFFFFFFFFFFFFFFFFFFF DUP3 AND SWAP1 POP SWAP2 SWAP1 POP JUMP JUMPDEST PUSH0 PUSH2 0x1CB DUP3 PUSH2 0x1A2 JUMP JUMPDEST SWAP1 POP SWAP2 SWAP1 POP JUMP JUMPDEST PUSH2 0x1DB DUP2 PUSH2 0x1C1 JUMP JUMPDEST DUP3 MSTORE POP POP JUMP JUMPDEST PUSH0 PUSH1 0x20 DUP3 ADD SWAP1 POP PUSH2 0x1F4 PUSH0 DUP4 ADD DUP5 PUSH2 0x1D2 JUMP JUMPDEST SWAP3 SWAP2 POP POP JUMP JUMPDEST PUSH2 0x1BD6 DUP1 PUSH2 0x207 PUSH0 CODECOPY PUSH0 RETURN INVALID PUSH1 0x80 PUSH1 0x40 MSTORE CALLVALUE DUP1 ISZERO PUSH2 0xF JUMPI PUSH0 PUSH0 REVERT JUMPDEST POP PUSH1 0x4 CALLDATASIZE LT PUSH2 0xE8 JUMPI PUSH0 CALLDATALOAD PUSH1 0xE0 SHR DUP1 PUSH4 0x8D70C7DB GT PUSH2 0x8A JUMPI DUP1 PUSH4 0xB0B375D2 GT PUSH2 0x64 JUMPI DUP1 PUSH4 0xB0B375D2 EQ PUSH2 0x226 JUMPI DUP1 PUSH4 0xB8E4F167 EQ PUSH2 0x230 JUMPI DUP1 PUSH4 0xD4333CD0 EQ PUSH2 0x24C JUMPI DUP1 PUSH4 0xF2FDE38B EQ PUSH2 0x268 JUMPI PUSH2 0xE8 JUMP JUMPDEST DUP1 PUSH4 0x8D70C7DB EQ PUSH2 0x1BA JUMPI DUP1 PUSH4 0x8DA5CB5B EQ PUSH2 0x1D8 JUMPI DUP1 PUSH4 0xA8B606D6 EQ PUSH2 0x1F6 JUMPI PUSH2 0xE8 JUMP JUMPDEST DUP1 PUSH4 0x4E61573F GT PUSH2 0xC6 JUMPI DUP1 PUSH4 0x4E61573F EQ PUSH2 0x146 JUMPI DUP1 PUSH4 0x6B05BC7C EQ PUSH2 0x176 JUMPI DUP1 PUSH4 0x715018A6 EQ PUSH2 0x192 JUMPI DUP1 PUSH4 0x8456CB59 EQ PUSH2 0x19C JUMPI PUSH2 0xE8 JUMP JUMPDEST DUP1 PUSH4 0x5A1B4A9 EQ PUSH2 0xEC JUMPI DUP1 PUSH4 0x34E9D898 EQ PUSH2 0x120 JUMPI DUP1 PUSH4 0x3F4BA83A EQ PUSH2 0x13C JUMPI JUMPDEST PUSH0 PUSH0 REVERT JUMPDEST PUSH2 0x106 PUSH1 0x4 DUP1 CALLDATASIZE SUB DUP2 ADD SWAP1 PUSH2 0x101 SWAP2 SWAP1 PUSH2 0xFC7 JUMP JUMPDEST PUSH2 0x284 JUMP JUMPDEST PUSH1 0x40 MLOAD PUSH2 0x117 SWAP6 SWAP5 SWAP4 SWAP3 SWAP2 SWAP1 PUSH2 0x1093 JUMP JUMPDEST PUSH1 0x40 MLOAD DUP1 SWAP2 SUB SWAP1 RETURN JUMPDEST PUSH2 0x13A PUSH1 0x4 DUP1 CALLDATASIZE SUB DUP2 ADD SWAP1 PUSH2 0x135 SWAP2 SWAP1 PUSH2 0x1122 JUMP JUMPDEST PUSH2 0x375 JUMP JUMPDEST STOP JUMPDEST PUSH2 0x144 PUSH2 0x3F0 JUMP JUMPDEST STOP JUMPDEST PUSH2 0x160 PUSH1 0x4 DUP1 CALLDATASIZE SUB DUP2 ADD SWAP1 PUSH2 0x15B SWAP2 SWAP1 PUSH2 0x114D JUMP JUMPDEST PUSH2 0x413 JUMP JUMPDEST PUSH1 0x40 MLOAD PUSH2 0x16D SWAP2 SWAP1 PUSH2 0x1251 JUMP JUMPDEST PUSH1 0x40 MLOAD DUP1 SWAP2 SUB SWAP1 RETURN JUMPDEST PUSH2 0x190 PUSH1 0x4 DUP1 CALLDATASIZE SUB DUP2 ADD SWAP1 PUSH2 0x18B SWAP2 SWAP1 PUSH2 0xFC7 JUMP JUMPDEST PUSH2 0x58A JUMP JUMPDEST STOP JUMPDEST PUSH2 0x19A PUSH2 0x73B JUMP JUMPDEST STOP JUMPDEST PUSH2 0x1A4 PUSH2 0x74E JUMP JUMPDEST PUSH1 0x40 MLOAD PUSH2 0x1B1 SWAP2 SWAP1 PUSH2 0x128B JUMP JUMPDEST PUSH1 0x40 MLOAD DUP1 SWAP2 SUB SWAP1 RETURN JUMPDEST PUSH2 0x1C2 PUSH2 0x760 JUMP JUMPDEST PUSH1 0x40 MLOAD PUSH2 0x1CF SWAP2 SWAP1 PUSH2 0x12B3 JUMP JUMPDEST PUSH1 0x40 MLOAD DUP1 SWAP2 SUB SWAP1 RETURN JUMPDEST PUSH2 0x1E0 PUSH2 0x773 JUMP JUMPDEST PUSH1 0x40 MLOAD PUSH2 0x1ED SWAP2 SWAP1 PUSH2 0x12CC JUMP JUMPDEST PUSH1 0x40 MLOAD DUP1 SWAP2 SUB SWAP1 RETURN JUMPDEST PUSH2 0x210 PUSH1 0x4 DUP1 CALLDATASIZE SUB DUP2 ADD SWAP1 PUSH2 0x20B SWAP2 SWAP1 PUSH2 0x12E5 JUMP JUMPDEST PUSH2 0x79A JUMP JUMPDEST PUSH1 0x40 MLOAD PUSH2 0x21D SWAP2 SWAP1 PUSH2 0x143E JUMP JUMPDEST PUSH1 0x40 MLOAD DUP1 SWAP2 SUB SWAP1 RETURN JUMPDEST PUSH2 0x22E PUSH2 0x935 JUMP JUMPDEST STOP JUMPDEST PUSH2 0x24A PUSH1 0x4 DUP1 CALLDATASIZE SUB DUP2 ADD SWAP1 PUSH2 0x245 SWAP2 SWAP1 PUSH2 0x158A JUMP JUMPDEST PUSH2 0x959 JUMP JUMPDEST STOP JUMPDEST PUSH2 0x266 PUSH1 0x4 DUP1 CALLDATASIZE SUB DUP2 ADD SWAP1 PUSH2 0x261 SWAP2 SWAP1 PUSH2 0xFC7 JUMP JUMPDEST PUSH2 0xB64 JUMP JUMPDEST STOP JUMPDEST PUSH2 0x282 PUSH1 0x4 DUP1 CALLDATASIZE SUB DUP2 ADD SWAP1 PUSH2 0x27D SWAP2 SWAP1 PUSH2 0x12E5 JUMP JUMPDEST PUSH2 0xD15 JUMP JUMPDEST STOP JUMPDEST PUSH1 0x1 PUSH1 0x20 MSTORE DUP2 PUSH0 MSTORE PUSH1 0x40 PUSH0 KECCAK256 DUP2 DUP2 SLOAD DUP2 LT PUSH2 0x29D JUMPI PUSH0 DUP1 REVERT JUMPDEST SWAP1 PUSH0 MSTORE PUSH1 0x20 PUSH0 KECCAK256 SWAP1 PUSH1 0x5 MUL ADD PUSH0 SWAP2 POP SWAP2 POP POP DUP1 PUSH0 ADD SLOAD SWAP1 DUP1 PUSH1 0x1 ADD PUSH0 SWAP1 SLOAD SWAP1 PUSH2 0x100 EXP SWAP1 DIV PUSH20 0xFFFFFFFFFFFFFFFFFFFFFFFFFFFFFFFFFFFFFFFF AND SWAP1 DUP1 PUSH1 0x2 ADD DUP1 SLOAD PUSH2 0x2E8 SWAP1 PUSH2 0x15FE JUMP JUMPDEST DUP1 PUSH1 0x1F ADD PUSH1 0x20 DUP1 SWAP2 DIV MUL PUSH1 0x20 ADD PUSH1 0x40 MLOAD SWAP1 DUP2 ADD PUSH1 0x40 MSTORE DUP1 SWAP3 SWAP2 SWAP1 DUP2 DUP2 MSTORE PUSH1 0x20 ADD DUP3 DUP1 SLOAD PUSH2 0x314 SWAP1 PUSH2 0x15FE JUMP JUMPDEST DUP1 ISZERO PUSH2 0x35F JUMPI DUP1 PUSH1 0x1F LT PUSH2 0x336 JUMPI PUSH2 0x100 DUP1 DUP4 SLOAD DIV MUL DUP4 MSTORE SWAP2 PUSH1 0x20 ADD SWAP2 PUSH2 0x35F JUMP JUMPDEST DUP3 ADD SWAP2 SWAP1 PUSH0 MSTORE PUSH1 0x20 PUSH0 KECCAK256 SWAP1 JUMPDEST DUP2 SLOAD DUP2 MSTORE SWAP1 PUSH1 0x1 ADD SWAP1 PUSH1 0x20 ADD DUP1 DUP4 GT PUSH2 0x342 JUMPI DUP3 SWAP1 SUB PUSH1 0x1F AND DUP3 ADD SWAP2 JUMPDEST POP POP POP POP POP SWAP1 DUP1 PUSH1 0x3 ADD SLOAD SWAP1 DUP1 PUSH1 0x4 ADD SLOAD SWAP1 POP DUP6 JUMP JUMPDEST PUSH2 0x37D PUSH2 0xD99 JUMP JUMPDEST PUSH0 ISZERO ISZERO PUSH0 PUSH1 0x14 SWAP1 SLOAD SWAP1 PUSH2 0x100 EXP SWAP1 DIV PUSH1 0xFF AND ISZERO ISZERO EQ PUSH2 0x3D1 JUMPI PUSH1 0x40 MLOAD PUSH32 0x8C379A000000000000000000000000000000000000000000000000000000000 DUP2 MSTORE PUSH1 0x4 ADD PUSH2 0x3C8 SWAP1 PUSH2 0x1678 JUMP JUMPDEST PUSH1 0x40 MLOAD DUP1 SWAP2 SUB SWAP1 REVERT JUMPDEST DUP1 PUSH0 PUSH1 0x15 PUSH2 0x100 EXP DUP2 SLOAD DUP2 PUSH2 0xFFFF MUL NOT AND SWAP1 DUP4 PUSH2 0xFFFF AND MUL OR SWAP1 SSTORE POP POP JUMP JUMPDEST PUSH2 0x3F8 PUSH2 0xD99 JUMP JUMPDEST PUSH0 PUSH0 PUSH1 0x14 PUSH2 0x100 EXP DUP2 SLOAD DUP2 PUSH1 0xFF MUL NOT AND SWAP1 DUP4 ISZERO ISZERO MUL OR SWAP1 SSTORE POP JUMP JUMPDEST PUSH2 0x41B PUSH2 0xEE8 JUMP JUMPDEST PUSH1 0x1 PUSH0 CALLER PUSH20 0xFFFFFFFFFFFFFFFFFFFFFFFFFFFFFFFFFFFFFFFF AND PUSH20 0xFFFFFFFFFFFFFFFFFFFFFFFFFFFFFFFFFFFFFFFF AND DUP2 MSTORE PUSH1 0x20 ADD SWAP1 DUP2 MSTORE PUSH1 0x20 ADD PUSH0 KECCAK256 DUP3 DUP2 SLOAD DUP2 LT PUSH2 0x46A JUMPI PUSH2 0x469 PUSH2 0x1696 JUMP JUMPDEST JUMPDEST SWAP1 PUSH0 MSTORE PUSH1 0x20 PUSH0 KECCAK256 SWAP1 PUSH1 0x5 MUL ADD PUSH1 0x40 MLOAD DUP1 PUSH1 0xA0 ADD PUSH1 0x40 MSTORE SWAP1 DUP2 PUSH0 DUP3 ADD SLOAD DUP2 MSTORE PUSH1 0x20 ADD PUSH1 0x1 DUP3 ADD PUSH0 SWAP1 SLOAD SWAP1 PUSH2 0x100 EXP SWAP1 DIV PUSH20 0xFFFFFFFFFFFFFFFFFFFFFFFFFFFFFFFFFFFFFFFF AND PUSH20 0xFFFFFFFFFFFFFFFFFFFFFFFFFFFFFFFFFFFFFFFF AND PUSH20 0xFFFFFFFFFFFFFFFFFFFFFFFFFFFFFFFFFFFFFFFF AND DUP2 MSTORE PUSH1 0x20 ADD PUSH1 0x2 DUP3 ADD DUP1 SLOAD PUSH2 0x4EF SWAP1 PUSH2 0x15FE JUMP JUMPDEST DUP1 PUSH1 0x1F ADD PUSH1 0x20 DUP1 SWAP2 DIV MUL PUSH1 0x20 ADD PUSH1 0x40 MLOAD SWAP1 DUP2 ADD PUSH1 0x40 MSTORE DUP1 SWAP3 SWAP2 SWAP1 DUP2 DUP2 MSTORE PUSH1 0x20 ADD DUP3 DUP1 SLOAD PUSH2 0x51B SWAP1 PUSH2 0x15FE JUMP JUMPDEST DUP1 ISZERO PUSH2 0x566 JUMPI DUP1 PUSH1 0x1F LT PUSH2 0x53D JUMPI PUSH2 0x100 DUP1 DUP4 SLOAD DIV MUL DUP4 MSTORE SWAP2 PUSH1 0x20 ADD SWAP2 PUSH2 0x566 JUMP JUMPDEST DUP3 ADD SWAP2 SWAP1 PUSH0 MSTORE PUSH1 0x20 PUSH0 KECCAK256 SWAP1 JUMPDEST DUP2 SLOAD DUP2 MSTORE SWAP1 PUSH1 0x1 ADD SWAP1 PUSH1 0x20 ADD DUP1 DUP4 GT PUSH2 0x549 JUMPI DUP3 SWAP1 SUB PUSH1 0x1F AND DUP3 ADD SWAP2 JUMPDEST POP POP POP POP POP DUP2 MSTORE PUSH1 0x20 ADD PUSH1 0x3 DUP3 ADD SLOAD DUP2 MSTORE PUSH1 0x20 ADD PUSH1 0x4 DUP3 ADD SLOAD DUP2 MSTORE POP POP SWAP1 POP SWAP2 SWAP1 POP JUMP JUMPDEST DUP1 PUSH1 0x1 PUSH0 DUP5 PUSH20 0xFFFFFFFFFFFFFFFFFFFFFFFFFFFFFFFFFFFFFFFF AND PUSH20 0xFFFFFFFFFFFFFFFFFFFFFFFFFFFFFFFFFFFFFFFF AND DUP2 MSTORE PUSH1 0x20 ADD SWAP1 DUP2 MSTORE PUSH1 0x20 ADD PUSH0 KECCAK256 DUP3 DUP2 SLOAD DUP2 LT PUSH2 0x5DA JUMPI PUSH2 0x5D9 PUSH2 0x1696 JUMP JUMPDEST JUMPDEST SWAP1 PUSH0 MSTORE PUSH1 0x20 PUSH0 KECCAK256 SWAP1 PUSH1 0x5 MUL ADD PUSH0 ADD SLOAD EQ PUSH2 0x629 JUMPI PUSH1 0x40 MLOAD PUSH32 0x8C379A000000000000000000000000000000000000000000000000000000000 DUP2 MSTORE PUSH1 0x4 ADD PUSH2 0x620 SWAP1 PUSH2 0x170D JUMP JUMPDEST PUSH1 0x40 MLOAD DUP1 SWAP2 SUB SWAP1 REVERT JUMPDEST PUSH1 0x1 PUSH0 DUP4 PUSH20 0xFFFFFFFFFFFFFFFFFFFFFFFFFFFFFFFFFFFFFFFF AND PUSH20 0xFFFFFFFFFFFFFFFFFFFFFFFFFFFFFFFFFFFFFFFF AND DUP2 MSTORE PUSH1 0x20 ADD SWAP1 DUP2 MSTORE PUSH1 0x20 ADD PUSH0 KECCAK256 DUP2 DUP2 SLOAD DUP2 LT PUSH2 0x678 JUMPI PUSH2 0x677 PUSH2 0x1696 JUMP JUMPDEST JUMPDEST SWAP1 PUSH0 MSTORE PUSH1 0x20 PUSH0 KECCAK256 SWAP1 PUSH1 0x5 MUL ADD PUSH1 0x4 ADD PUSH0 DUP2 SLOAD DUP1 SWAP3 SWAP2 SWAP1 PUSH2 0x697 SWAP1 PUSH2 0x1758 JUMP JUMPDEST SWAP2 SWAP1 POP SSTORE POP PUSH32 0xF108F246D05459643C2E6D7A2484A10C697FB61161FBBFDFE4B06327F57977FA CALLER DUP4 DUP4 PUSH1 0x1 PUSH0 DUP8 PUSH20 0xFFFFFFFFFFFFFFFFFFFFFFFFFFFFFFFFFFFFFFFF AND PUSH20 0xFFFFFFFFFFFFFFFFFFFFFFFFFFFFFFFFFFFFFFFF AND DUP2 MSTORE PUSH1 0x20 ADD SWAP1 DUP2 MSTORE PUSH1 0x20 ADD PUSH0 KECCAK256 DUP6 DUP2 SLOAD DUP2 LT PUSH2 0x70F JUMPI PUSH2 0x70E PUSH2 0x1696 JUMP JUMPDEST JUMPDEST SWAP1 PUSH0 MSTORE PUSH1 0x20 PUSH0 KECCAK256 SWAP1 PUSH1 0x5 MUL ADD PUSH1 0x4 ADD SLOAD PUSH1 0x40 MLOAD PUSH2 0x72F SWAP5 SWAP4 SWAP3 SWAP2 SWAP1 PUSH2 0x177F JUMP JUMPDEST PUSH1 0x40 MLOAD DUP1 SWAP2 SUB SWAP1 LOG1 POP POP JUMP JUMPDEST PUSH2 0x743 PUSH2 0xD99 JUMP JUMPDEST PUSH2 0x74C PUSH0 PUSH2 0xE20 JUMP JUMPDEST JUMP JUMPDEST PUSH0 PUSH1 0x14 SWAP1 SLOAD SWAP1 PUSH2 0x100 EXP SWAP1 DIV PUSH1 0xFF AND DUP2 JUMP JUMPDEST PUSH0 PUSH1 0x15 SWAP1 SLOAD SWAP1 PUSH2 0x100 EXP SWAP1 DIV PUSH2 0xFFFF AND DUP2 JUMP JUMPDEST PUSH0 PUSH0 PUSH0 SWAP1 SLOAD SWAP1 PUSH2 0x100 EXP SWAP1 DIV PUSH20 0xFFFFFFFFFFFFFFFFFFFFFFFFFFFFFFFFFFFFFFFF AND SWAP1 POP SWAP1 JUMP JUMPDEST PUSH1 0x60 PUSH1 0x1 PUSH0 DUP4 PUSH20 0xFFFFFFFFFFFFFFFFFFFFFFFFFFFFFFFFFFFFFFFF AND PUSH20 0xFFFFFFFFFFFFFFFFFFFFFFFFFFFFFFFFFFFFFFFF AND DUP2 MSTORE PUSH1 0x20 ADD SWAP1 DUP2 MSTORE PUSH1 0x20 ADD PUSH0 KECCAK256 DUP1 SLOAD DUP1 PUSH1 0x20 MUL PUSH1 0x20 ADD PUSH1 0x40 MLOAD SWAP1 DUP2 ADD PUSH1 0x40 MSTORE DUP1 SWAP3 SWAP2 SWAP1 DUP2 DUP2 MSTORE PUSH1 0x20 ADD PUSH0 SWAP1 JUMPDEST DUP3 DUP3 LT ISZERO PUSH2 0x92A JUMPI DUP4 DUP3 SWAP1 PUSH0 MSTORE PUSH1 0x20 PUSH0 KECCAK256 SWAP1 PUSH1 0x5 MUL ADD PUSH1 0x40 MLOAD DUP1 PUSH1 0xA0 ADD PUSH1 0x40 MSTORE SWAP1 DUP2 PUSH0 DUP3 ADD SLOAD DUP2 MSTORE PUSH1 0x20 ADD PUSH1 0x1 DUP3 ADD PUSH0 SWAP1 SLOAD SWAP1 PUSH2 0x100 EXP SWAP1 DIV PUSH20 0xFFFFFFFFFFFFFFFFFFFFFFFFFFFFFFFFFFFFFFFF AND PUSH20 0xFFFFFFFFFFFFFFFFFFFFFFFFFFFFFFFFFFFFFFFF AND PUSH20 0xFFFFFFFFFFFFFFFFFFFFFFFFFFFFFFFFFFFFFFFF AND DUP2 MSTORE PUSH1 0x20 ADD PUSH1 0x2 DUP3 ADD DUP1 SLOAD PUSH2 0x887 SWAP1 PUSH2 0x15FE JUMP JUMPDEST DUP1 PUSH1 0x1F ADD PUSH1 0x20 DUP1 SWAP2 DIV MUL PUSH1 0x20 ADD PUSH1 0x40 MLOAD SWAP1 DUP2 ADD PUSH1 0x40 MSTORE DUP1 SWAP3 SWAP2 SWAP1 DUP2 DUP2 MSTORE PUSH1 0x20 ADD DUP3 DUP1 SLOAD PUSH2 0x8B3 SWAP1 PUSH2 0x15FE JUMP JUMPDEST DUP1 ISZERO PUSH2 0x8FE JUMPI DUP1 PUSH1 0x1F LT PUSH2 0x8D5 JUMPI PUSH2 0x100 DUP1 DUP4 SLOAD DIV MUL DUP4 MSTORE SWAP2 PUSH1 0x20 ADD SWAP2 PUSH2 0x8FE JUMP JUMPDEST DUP3 ADD SWAP2 SWAP1 PUSH0 MSTORE PUSH1 0x20 PUSH0 KECCAK256 SWAP1 JUMPDEST DUP2 SLOAD DUP2 MSTORE SWAP1 PUSH1 0x1 ADD SWAP1 PUSH1 0x20 ADD DUP1 DUP4 GT PUSH2 0x8E1 JUMPI DUP3 SWAP1 SUB PUSH1 0x1F AND DUP3 ADD SWAP2 JUMPDEST POP POP POP POP POP DUP2 MSTORE PUSH1 0x20 ADD PUSH1 0x3 DUP3 ADD SLOAD DUP2 MSTORE PUSH1 0x20 ADD PUSH1 0x4 DUP3 ADD SLOAD DUP2 MSTORE POP POP DUP2 MSTORE PUSH1 0x20 ADD SWAP1 PUSH1 0x1 ADD SWAP1 PUSH2 0x7F8 JUMP JUMPDEST POP POP POP POP SWAP1 POP SWAP2 SWAP1 POP JUMP JUMPDEST PUSH2 0x93D PUSH2 0xD99 JUMP JUMPDEST PUSH1 0x1 PUSH0 PUSH1 0x14 PUSH2 0x100 EXP DUP2 SLOAD DUP2 PUSH1 0xFF MUL NOT AND SWAP1 DUP4 ISZERO ISZERO MUL OR SWAP1 SSTORE POP JUMP JUMPDEST PUSH0 PUSH1 0x15 SWAP1 SLOAD SWAP1 PUSH2 0x100 EXP SWAP1 DIV PUSH2 0xFFFF AND PUSH2 0xFFFF AND DUP2 MLOAD GT ISZERO PUSH2 0x9B0 JUMPI PUSH1 0x40 MLOAD PUSH32 0x8C379A000000000000000000000000000000000000000000000000000000000 DUP2 MSTORE PUSH1 0x4 ADD PUSH2 0x9A7 SWAP1 PUSH2 0x180C JUMP JUMPDEST PUSH1 0x40 MLOAD DUP1 SWAP2 SUB SWAP1 REVERT JUMPDEST PUSH0 PUSH1 0x40 MLOAD DUP1 PUSH1 0xA0 ADD PUSH1 0x40 MSTORE DUP1 PUSH1 0x1 PUSH0 CALLER PUSH20 0xFFFFFFFFFFFFFFFFFFFFFFFFFFFFFFFFFFFFFFFF AND PUSH20 0xFFFFFFFFFFFFFFFFFFFFFFFFFFFFFFFFFFFFFFFF AND DUP2 MSTORE PUSH1 0x20 ADD SWAP1 DUP2 MSTORE PUSH1 0x20 ADD PUSH0 KECCAK256 DUP1 SLOAD SWAP1 POP DUP2 MSTORE PUSH1 0x20 ADD CALLER PUSH20 0xFFFFFFFFFFFFFFFFFFFFFFFFFFFFFFFFFFFFFFFF AND DUP2 MSTORE PUSH1 0x20 ADD DUP4 DUP2 MSTORE PUSH1 0x20 ADD TIMESTAMP DUP2 MSTORE PUSH1 0x20 ADD PUSH0 DUP2 MSTORE POP SWAP1 POP PUSH1 0x1 PUSH0 CALLER PUSH20 0xFFFFFFFFFFFFFFFFFFFFFFFFFFFFFFFFFFFFFFFF AND PUSH20 0xFFFFFFFFFFFFFFFFFFFFFFFFFFFFFFFFFFFFFFFF AND DUP2 MSTORE PUSH1 0x20 ADD SWAP1 DUP2 MSTORE PUSH1 0x20 ADD PUSH0 KECCAK256 DUP2 SWAP1 DUP1 PUSH1 0x1 DUP2 SLOAD ADD DUP1 DUP3 SSTORE DUP1 SWAP2 POP POP PUSH1 0x1 SWAP1 SUB SWAP1 PUSH0 MSTORE PUSH1 0x20 PUSH0 KECCAK256 SWAP1 PUSH1 0x5 MUL ADD PUSH0 SWAP1 SWAP2 SWAP1 SWAP2 SWAP1 SWAP2 POP PUSH0 DUP3 ADD MLOAD DUP2 PUSH0 ADD SSTORE PUSH1 0x20 DUP3 ADD MLOAD DUP2 PUSH1 0x1 ADD PUSH0 PUSH2 0x100 EXP DUP2 SLOAD DUP2 PUSH20 0xFFFFFFFFFFFFFFFFFFFFFFFFFFFFFFFFFFFFFFFF MUL NOT AND SWAP1 DUP4 PUSH20 0xFFFFFFFFFFFFFFFFFFFFFFFFFFFFFFFFFFFFFFFF AND MUL OR SWAP1 SSTORE POP PUSH1 0x40 DUP3 ADD MLOAD DUP2 PUSH1 0x2 ADD SWAP1 DUP2 PUSH2 0xAF7 SWAP2 SWAP1 PUSH2 0x19CA JUMP JUMPDEST POP PUSH1 0x60 DUP3 ADD MLOAD DUP2 PUSH1 0x3 ADD SSTORE PUSH1 0x80 DUP3 ADD MLOAD DUP2 PUSH1 0x4 ADD SSTORE POP POP PUSH32 0xCD6BC67176572C834935F5185D84A1BD9CBACA3C1FC843C9B66A05FDEC1020BA DUP2 PUSH1 0x20 ADD MLOAD DUP3 PUSH0 ADD MLOAD DUP4 PUSH1 0x40 ADD MLOAD DUP5 PUSH1 0x60 ADD MLOAD DUP6 PUSH1 0x80 ADD MLOAD PUSH1 0x40 MLOAD PUSH2 0xB58 SWAP6 SWAP5 SWAP4 SWAP3 SWAP2 SWAP1 PUSH2 0x1A99 JUMP JUMPDEST PUSH1 0x40 MLOAD DUP1 SWAP2 SUB SWAP1 LOG1 POP POP JUMP JUMPDEST DUP1 PUSH1 0x1 PUSH0 DUP5 PUSH20 0xFFFFFFFFFFFFFFFFFFFFFFFFFFFFFFFFFFFFFFFF AND PUSH20 0xFFFFFFFFFFFFFFFFFFFFFFFFFFFFFFFFFFFFFFFF AND DUP2 MSTORE PUSH1 0x20 ADD SWAP1 DUP2 MSTORE PUSH1 0x20 ADD PUSH0 KECCAK256 DUP3 DUP2 SLOAD DUP2 LT PUSH2 0xBB4 JUMPI PUSH2 0xBB3 PUSH2 0x1696 JUMP JUMPDEST JUMPDEST SWAP1 PUSH0 MSTORE PUSH1 0x20 PUSH0 KECCAK256 SWAP1 PUSH1 0x5 MUL ADD PUSH0 ADD SLOAD EQ PUSH2 0xC03 JUMPI PUSH1 0x40 MLOAD PUSH32 0x8C379A000000000000000000000000000000000000000000000000000000000 DUP2 MSTORE PUSH1 0x4 ADD PUSH2 0xBFA SWAP1 PUSH2 0x1B3B JUMP JUMPDEST PUSH1 0x40 MLOAD DUP1 SWAP2 SUB SWAP1 REVERT JUMPDEST PUSH1 0x1 PUSH0 DUP4 PUSH20 0xFFFFFFFFFFFFFFFFFFFFFFFFFFFFFFFFFFFFFFFF AND PUSH20 0xFFFFFFFFFFFFFFFFFFFFFFFFFFFFFFFFFFFFFFFF AND DUP2 MSTORE PUSH1 0x20 ADD SWAP1 DUP2 MSTORE PUSH1 0x20 ADD PUSH0 KECCAK256 DUP2 DUP2 SLOAD DUP2 LT PUSH2 0xC52 JUMPI PUSH2 0xC51 PUSH2 0x1696 JUMP JUMPDEST JUMPDEST SWAP1 PUSH0 MSTORE PUSH1 0x20 PUSH0 KECCAK256 SWAP1 PUSH1 0x5 MUL ADD PUSH1 0x4 ADD PUSH0 DUP2 SLOAD DUP1 SWAP3 SWAP2 SWAP1 PUSH2 0xC71 SWAP1 PUSH2 0x1B59 JUMP JUMPDEST SWAP2 SWAP1 POP SSTORE POP PUSH32 0xD0E721D121FB28C3D437C6C067C10DDE1C9DCE85BCD30012A9BE4C6A6944E193 CALLER DUP4 DUP4 PUSH1 0x1 PUSH0 DUP8 PUSH20 0xFFFFFFFFFFFFFFFFFFFFFFFFFFFFFFFFFFFFFFFF AND PUSH20 0xFFFFFFFFFFFFFFFFFFFFFFFFFFFFFFFFFFFFFFFF AND DUP2 MSTORE PUSH1 0x20 ADD SWAP1 DUP2 MSTORE PUSH1 0x20 ADD PUSH0 KECCAK256 DUP6 DUP2 SLOAD DUP2 LT PUSH2 0xCE9 JUMPI PUSH2 0xCE8 PUSH2 0x1696 JUMP JUMPDEST JUMPDEST SWAP1 PUSH0 MSTORE PUSH1 0x20 PUSH0 KECCAK256 SWAP1 PUSH1 0x5 MUL ADD PUSH1 0x4 ADD SLOAD PUSH1 0x40 MLOAD PUSH2 0xD09 SWAP5 SWAP4 SWAP3 SWAP2 SWAP1 PUSH2 0x177F JUMP JUMPDEST PUSH1 0x40 MLOAD DUP1 SWAP2 SUB SWAP1 LOG1 POP POP JUMP JUMPDEST PUSH2 0xD1D PUSH2 0xD99 JUMP JUMPDEST PUSH0 PUSH20 0xFFFFFFFFFFFFFFFFFFFFFFFFFFFFFFFFFFFFFFFF AND DUP2 PUSH20 0xFFFFFFFFFFFFFFFFFFFFFFFFFFFFFFFFFFFFFFFF AND SUB PUSH2 0xD8D JUMPI PUSH0 PUSH1 0x40 MLOAD PUSH32 0x1E4FBDF700000000000000000000000000000000000000000000000000000000 DUP2 MSTORE PUSH1 0x4 ADD PUSH2 0xD84 SWAP2 SWAP1 PUSH2 0x12CC JUMP JUMPDEST PUSH1 0x40 MLOAD DUP1 SWAP2 SUB SWAP1 REVERT JUMPDEST PUSH2 0xD96 DUP2 PUSH2 0xE20 JUMP JUMPDEST POP JUMP JUMPDEST PUSH2 0xDA1 PUSH2 0xEE1 JUMP JUMPDEST PUSH20 0xFFFFFFFFFFFFFFFFFFFFFFFFFFFFFFFFFFFFFFFF AND PUSH2 0xDBF PUSH2 0x773 JUMP JUMPDEST PUSH20 0xFFFFFFFFFFFFFFFFFFFFFFFFFFFFFFFFFFFFFFFF AND EQ PUSH2 0xE1E JUMPI PUSH2 0xDE2 PUSH2 0xEE1 JUMP JUMPDEST PUSH1 0x40 MLOAD PUSH32 0x118CDAA700000000000000000000000000000000000000000000000000000000 DUP2 MSTORE PUSH1 0x4 ADD PUSH2 0xE15 SWAP2 SWAP1 PUSH2 0x12CC JUMP JUMPDEST PUSH1 0x40 MLOAD DUP1 SWAP2 SUB SWAP1 REVERT JUMPDEST JUMP JUMPDEST PUSH0 PUSH0 PUSH0 SWAP1 SLOAD SWAP1 PUSH2 0x100 EXP SWAP1 DIV PUSH20 0xFFFFFFFFFFFFFFFFFFFFFFFFFFFFFFFFFFFFFFFF AND SWAP1 POP DUP2 PUSH0 PUSH0 PUSH2 0x100 EXP DUP2 SLOAD DUP2 PUSH20 0xFFFFFFFFFFFFFFFFFFFFFFFFFFFFFFFFFFFFFFFF MUL NOT AND SWAP1 DUP4 PUSH20 0xFFFFFFFFFFFFFFFFFFFFFFFFFFFFFFFFFFFFFFFF AND MUL OR SWAP1 SSTORE POP DUP2 PUSH20 0xFFFFFFFFFFFFFFFFFFFFFFFFFFFFFFFFFFFFFFFF AND DUP2 PUSH20 0xFFFFFFFFFFFFFFFFFFFFFFFFFFFFFFFFFFFFFFFF AND PUSH32 0x8BE0079C531659141344CD1FD0A4F28419497F9722A3DAAFE3B4186F6B6457E0 PUSH1 0x40 MLOAD PUSH1 0x40 MLOAD DUP1 SWAP2 SUB SWAP1 LOG3 POP POP JUMP JUMPDEST PUSH0 CALLER SWAP1 POP SWAP1 JUMP JUMPDEST PUSH1 0x40 MLOAD DUP1 PUSH1 0xA0 ADD PUSH1 0x40 MSTORE DUP1 PUSH0 DUP2 MSTORE PUSH1 0x20 ADD PUSH0 PUSH20 0xFFFFFFFFFFFFFFFFFFFFFFFFFFFFFFFFFFFFFFFF AND DUP2 MSTORE PUSH1 0x20 ADD PUSH1 0x60 DUP2 MSTORE PUSH1 0x20 ADD PUSH0 DUP2 MSTORE PUSH1 0x20 ADD PUSH0 DUP2 MSTORE POP SWAP1 JUMP JUMPDEST PUSH0 PUSH1 0x40 MLOAD SWAP1 POP SWAP1 JUMP JUMPDEST PUSH0 PUSH0 REVERT JUMPDEST PUSH0 PUSH0 REVERT JUMPDEST PUSH0 PUSH20 0xFFFFFFFFFFFFFFFFFFFFFFFFFFFFFFFFFFFFFFFF DUP3 AND SWAP1 POP SWAP2 SWAP1 POP JUMP JUMPDEST PUSH0 PUSH2 0xF63 DUP3 PUSH2 0xF3A JUMP JUMPDEST SWAP1 POP SWAP2 SWAP1 POP JUMP JUMPDEST PUSH2 0xF73 DUP2 PUSH2 0xF59 JUMP JUMPDEST DUP2 EQ PUSH2 0xF7D JUMPI PUSH0 PUSH0 REVERT JUMPDEST POP JUMP JUMPDEST PUSH0 DUP2 CALLDATALOAD SWAP1 POP PUSH2 0xF8E DUP2 PUSH2 0xF6A JUMP JUMPDEST SWAP3 SWAP2 POP POP JUMP JUMPDEST PUSH0 DUP2 SWAP1 POP SWAP2 SWAP1 POP JUMP JUMPDEST PUSH2 0xFA6 DUP2 PUSH2 0xF94 JUMP JUMPDEST DUP2 EQ PUSH2 0xFB0 JUMPI PUSH0 PUSH0 REVERT JUMPDEST POP JUMP JUMPDEST PUSH0 DUP2 CALLDATALOAD SWAP1 POP PUSH2 0xFC1 DUP2 PUSH2 0xF9D JUMP JUMPDEST SWAP3 SWAP2 POP POP JUMP JUMPDEST PUSH0 PUSH0 PUSH1 0x40 DUP4 DUP6 SUB SLT ISZERO PUSH2 0xFDD JUMPI PUSH2 0xFDC PUSH2 0xF32 JUMP JUMPDEST JUMPDEST PUSH0 PUSH2 0xFEA DUP6 DUP3 DUP7 ADD PUSH2 0xF80 JUMP JUMPDEST SWAP3 POP POP PUSH1 0x20 PUSH2 0xFFB DUP6 DUP3 DUP7 ADD PUSH2 0xFB3 JUMP JUMPDEST SWAP2 POP POP SWAP3 POP SWAP3 SWAP1 POP JUMP JUMPDEST PUSH2 0x100E DUP2 PUSH2 0xF94 JUMP JUMPDEST DUP3 MSTORE POP POP JUMP JUMPDEST PUSH2 0x101D DUP2 PUSH2 0xF59 JUMP JUMPDEST DUP3 MSTORE POP POP JUMP JUMPDEST PUSH0 DUP2 MLOAD SWAP1 POP SWAP2 SWAP1 POP JUMP JUMPDEST PUSH0 DUP3 DUP3 MSTORE PUSH1 0x20 DUP3 ADD SWAP1 POP SWAP3 SWAP2 POP POP JUMP JUMPDEST DUP3 DUP2 DUP4 MCOPY PUSH0 DUP4 DUP4 ADD MSTORE POP POP POP JUMP JUMPDEST PUSH0 PUSH1 0x1F NOT PUSH1 0x1F DUP4 ADD AND SWAP1 POP SWAP2 SWAP1 POP JUMP JUMPDEST PUSH0 PUSH2 0x1065 DUP3 PUSH2 0x1023 JUMP JUMPDEST PUSH2 0x106F DUP2 DUP6 PUSH2 0x102D JUMP JUMPDEST SWAP4 POP PUSH2 0x107F DUP2 DUP6 PUSH1 0x20 DUP7 ADD PUSH2 0x103D JUMP JUMPDEST PUSH2 0x1088 DUP2 PUSH2 0x104B JUMP JUMPDEST DUP5 ADD SWAP2 POP POP SWAP3 SWAP2 POP POP JUMP JUMPDEST PUSH0 PUSH1 0xA0 DUP3 ADD SWAP1 POP PUSH2 0x10A6 PUSH0 DUP4 ADD DUP9 PUSH2 0x1005 JUMP JUMPDEST PUSH2 0x10B3 PUSH1 0x20 DUP4 ADD DUP8 PUSH2 0x1014 JUMP JUMPDEST DUP2 DUP2 SUB PUSH1 0x40 DUP4 ADD MSTORE PUSH2 0x10C5 DUP2 DUP7 PUSH2 0x105B JUMP JUMPDEST SWAP1 POP PUSH2 0x10D4 PUSH1 0x60 DUP4 ADD DUP6 PUSH2 0x1005 JUMP JUMPDEST PUSH2 0x10E1 PUSH1 0x80 DUP4 ADD DUP5 PUSH2 0x1005 JUMP JUMPDEST SWAP7 SWAP6 POP POP POP POP POP POP JUMP JUMPDEST PUSH0 PUSH2 0xFFFF DUP3 AND SWAP1 POP SWAP2 SWAP1 POP JUMP JUMPDEST PUSH2 0x1101 DUP2 PUSH2 0x10EB JUMP JUMPDEST DUP2 EQ PUSH2 0x110B JUMPI PUSH0 PUSH0 REVERT JUMPDEST POP JUMP JUMPDEST PUSH0 DUP2 CALLDATALOAD SWAP1 POP PUSH2 0x111C DUP2 PUSH2 0x10F8 JUMP JUMPDEST SWAP3 SWAP2 POP POP JUMP JUMPDEST PUSH0 PUSH1 0x20 DUP3 DUP5 SUB SLT ISZERO PUSH2 0x1137 JUMPI PUSH2 0x1136 PUSH2 0xF32 JUMP JUMPDEST JUMPDEST PUSH0 PUSH2 0x1144 DUP5 DUP3 DUP6 ADD PUSH2 0x110E JUMP JUMPDEST SWAP2 POP POP SWAP3 SWAP2 POP POP JUMP JUMPDEST PUSH0 PUSH1 0x20 DUP3 DUP5 SUB SLT ISZERO PUSH2 0x1162 JUMPI PUSH2 0x1161 PUSH2 0xF32 JUMP JUMPDEST JUMPDEST PUSH0 PUSH2 0x116F DUP5 DUP3 DUP6 ADD PUSH2 0xFB3 JUMP JUMPDEST SWAP2 POP POP SWAP3 SWAP2 POP POP JUMP JUMPDEST PUSH2 0x1181 DUP2 PUSH2 0xF94 JUMP JUMPDEST DUP3 MSTORE POP POP JUMP JUMPDEST PUSH2 0x1190 DUP2 PUSH2 0xF59 JUMP JUMPDEST DUP3 MSTORE POP POP JUMP JUMPDEST PUSH0 DUP3 DUP3 MSTORE PUSH1 0x20 DUP3 ADD SWAP1 POP SWAP3 SWAP2 POP POP JUMP JUMPDEST PUSH0 PUSH2 0x11B0 DUP3 PUSH2 0x1023 JUMP JUMPDEST PUSH2 0x11BA DUP2 DUP6 PUSH2 0x1196 JUMP JUMPDEST SWAP4 POP PUSH2 0x11CA DUP2 DUP6 PUSH1 0x20 DUP7 ADD PUSH2 0x103D JUMP JUMPDEST PUSH2 0x11D3 DUP2 PUSH2 0x104B JUMP JUMPDEST DUP5 ADD SWAP2 POP POP SWAP3 SWAP2 POP POP JUMP JUMPDEST PUSH0 PUSH1 0xA0 DUP4 ADD PUSH0 DUP4 ADD MLOAD PUSH2 0x11F3 PUSH0 DUP7 ADD DUP3 PUSH2 0x1178 JUMP JUMPDEST POP PUSH1 0x20 DUP4 ADD MLOAD PUSH2 0x1206 PUSH1 0x20 DUP7 ADD DUP3 PUSH2 0x1187 JUMP JUMPDEST POP PUSH1 0x40 DUP4 ADD MLOAD DUP5 DUP3 SUB PUSH1 0x40 DUP7 ADD MSTORE PUSH2 0x121E DUP3 DUP3 PUSH2 0x11A6 JUMP JUMPDEST SWAP2 POP POP PUSH1 0x60 DUP4 ADD MLOAD PUSH2 0x1233 PUSH1 0x60 DUP7 ADD DUP3 PUSH2 0x1178 JUMP JUMPDEST POP PUSH1 0x80 DUP4 ADD MLOAD PUSH2 0x1246 PUSH1 0x80 DUP7 ADD DUP3 PUSH2 0x1178 JUMP JUMPDEST POP DUP1 SWAP2 POP POP SWAP3 SWAP2 POP POP JUMP JUMPDEST PUSH0 PUSH1 0x20 DUP3 ADD SWAP1 POP DUP2 DUP2 SUB PUSH0 DUP4 ADD MSTORE PUSH2 0x1269 DUP2 DUP5 PUSH2 0x11DE JUMP JUMPDEST SWAP1 POP SWAP3 SWAP2 POP POP JUMP JUMPDEST PUSH0 DUP2 ISZERO ISZERO SWAP1 POP SWAP2 SWAP1 POP JUMP JUMPDEST PUSH2 0x1285 DUP2 PUSH2 0x1271 JUMP JUMPDEST DUP3 MSTORE POP POP JUMP JUMPDEST PUSH0 PUSH1 0x20 DUP3 ADD SWAP1 POP PUSH2 0x129E PUSH0 DUP4 ADD DUP5 PUSH2 0x127C JUMP JUMPDEST SWAP3 SWAP2 POP POP JUMP JUMPDEST PUSH2 0x12AD DUP2 PUSH2 0x10EB JUMP JUMPDEST DUP3 MSTORE POP POP JUMP JUMPDEST PUSH0 PUSH1 0x20 DUP3 ADD SWAP1 POP PUSH2 0x12C6 PUSH0 DUP4 ADD DUP5 PUSH2 0x12A4 JUMP JUMPDEST SWAP3 SWAP2 POP POP JUMP JUMPDEST PUSH0 PUSH1 0x20 DUP3 ADD SWAP1 POP PUSH2 0x12DF PUSH0 DUP4 ADD DUP5 PUSH2 0x1014 JUMP JUMPDEST SWAP3 SWAP2 POP POP JUMP JUMPDEST PUSH0 PUSH1 0x20 DUP3 DUP5 SUB SLT ISZERO PUSH2 0x12FA JUMPI PUSH2 0x12F9 PUSH2 0xF32 JUMP JUMPDEST JUMPDEST PUSH0 PUSH2 0x1307 DUP5 DUP3 DUP6 ADD PUSH2 0xF80 JUMP JUMPDEST SWAP2 POP POP SWAP3 SWAP2 POP POP JUMP JUMPDEST PUSH0 DUP2 MLOAD SWAP1 POP SWAP2 SWAP1 POP JUMP JUMPDEST PUSH0 DUP3 DUP3 MSTORE PUSH1 0x20 DUP3 ADD SWAP1 POP SWAP3 SWAP2 POP POP JUMP JUMPDEST PUSH0 DUP2 SWAP1 POP PUSH1 0x20 DUP3 ADD SWAP1 POP SWAP2 SWAP1 POP JUMP JUMPDEST PUSH0 PUSH1 0xA0 DUP4 ADD PUSH0 DUP4 ADD MLOAD PUSH2 0x134E PUSH0 DUP7 ADD DUP3 PUSH2 0x1178 JUMP JUMPDEST POP PUSH1 0x20 DUP4 ADD MLOAD PUSH2 0x1361 PUSH1 0x20 DUP7 ADD DUP3 PUSH2 0x1187 JUMP JUMPDEST POP PUSH1 0x40 DUP4 ADD MLOAD DUP5 DUP3 SUB PUSH1 0x40 DUP7 ADD MSTORE PUSH2 0x1379 DUP3 DUP3 PUSH2 0x11A6 JUMP JUMPDEST SWAP2 POP POP PUSH1 0x60 DUP4 ADD MLOAD PUSH2 0x138E PUSH1 0x60 DUP7 ADD DUP3 PUSH2 0x1178 JUMP JUMPDEST POP PUSH1 0x80 DUP4 ADD MLOAD PUSH2 0x13A1 PUSH1 0x80 DUP7 ADD DUP3 PUSH2 0x1178 JUMP JUMPDEST POP DUP1 SWAP2 POP POP SWAP3 SWAP2 POP POP JUMP JUMPDEST PUSH0 PUSH2 0x13B7 DUP4 DUP4 PUSH2 0x1339 JUMP JUMPDEST SWAP1 POP SWAP3 SWAP2 POP POP JUMP JUMPDEST PUSH0 PUSH1 0x20 DUP3 ADD SWAP1 POP SWAP2 SWAP1 POP JUMP JUMPDEST PUSH0 PUSH2 0x13D5 DUP3 PUSH2 0x1310 JUMP JUMPDEST PUSH2 0x13DF DUP2 DUP6 PUSH2 0x131A JUMP JUMPDEST SWAP4 POP DUP4 PUSH1 0x20 DUP3 MUL DUP6 ADD PUSH2 0x13F1 DUP6 PUSH2 0x132A JUMP JUMPDEST DUP1 PUSH0 JUMPDEST DUP6 DUP2 LT ISZERO PUSH2 0x142C JUMPI DUP5 DUP5 SUB DUP10 MSTORE DUP2 MLOAD PUSH2 0x140D DUP6 DUP3 PUSH2 0x13AC JUMP JUMPDEST SWAP5 POP PUSH2 0x1418 DUP4 PUSH2 0x13BF JUMP JUMPDEST SWAP3 POP PUSH1 0x20 DUP11 ADD SWAP10 POP POP PUSH1 0x1 DUP2 ADD SWAP1 POP PUSH2 0x13F4 JUMP JUMPDEST POP DUP3 SWAP8 POP DUP8 SWAP6 POP POP POP POP POP POP SWAP3 SWAP2 POP POP JUMP JUMPDEST PUSH0 PUSH1 0x20 DUP3 ADD SWAP1 POP DUP2 DUP2 SUB PUSH0 DUP4 ADD MSTORE PUSH2 0x1456 DUP2 DUP5 PUSH2 0x13CB JUMP JUMPDEST SWAP1 POP SWAP3 SWAP2 POP POP JUMP JUMPDEST PUSH0 PUSH0 REVERT JUMPDEST PUSH0 PUSH0 REVERT JUMPDEST PUSH32 0x4E487B7100000000000000000000000000000000000000000000000000000000 PUSH0 MSTORE PUSH1 0x41 PUSH1 0x4 MSTORE PUSH1 0x24 PUSH0 REVERT JUMPDEST PUSH2 0x149C DUP3 PUSH2 0x104B JUMP JUMPDEST DUP2 ADD DUP2 DUP2 LT PUSH8 0xFFFFFFFFFFFFFFFF DUP3 GT OR ISZERO PUSH2 0x14BB JUMPI PUSH2 0x14BA PUSH2 0x1466 JUMP JUMPDEST JUMPDEST DUP1 PUSH1 0x40 MSTORE POP POP POP JUMP JUMPDEST PUSH0 PUSH2 0x14CD PUSH2 0xF29 JUMP JUMPDEST SWAP1 POP PUSH2 0x14D9 DUP3 DUP3 PUSH2 0x1493 JUMP JUMPDEST SWAP2 SWAP1 POP JUMP JUMPDEST PUSH0 PUSH8 0xFFFFFFFFFFFFFFFF DUP3 GT ISZERO PUSH2 0x14F8 JUMPI PUSH2 0x14F7 PUSH2 0x1466 JUMP JUMPDEST JUMPDEST PUSH2 0x1501 DUP3 PUSH2 0x104B JUMP JUMPDEST SWAP1 POP PUSH1 0x20 DUP2 ADD SWAP1 POP SWAP2 SWAP1 POP JUMP JUMPDEST DUP3 DUP2 DUP4 CALLDATACOPY PUSH0 DUP4 DUP4 ADD MSTORE POP POP POP JUMP JUMPDEST PUSH0 PUSH2 0x152E PUSH2 0x1529 DUP5 PUSH2 0x14DE JUMP JUMPDEST PUSH2 0x14C4 JUMP JUMPDEST SWAP1 POP DUP3 DUP2 MSTORE PUSH1 0x20 DUP2 ADD DUP5 DUP5 DUP5 ADD GT ISZERO PUSH2 0x154A JUMPI PUSH2 0x1549 PUSH2 0x1462 JUMP JUMPDEST JUMPDEST PUSH2 0x1555 DUP5 DUP3 DUP6 PUSH2 0x150E JUMP JUMPDEST POP SWAP4 SWAP3 POP POP POP JUMP JUMPDEST PUSH0 DUP3 PUSH1 0x1F DUP4 ADD SLT PUSH2 0x1571 JUMPI PUSH2 0x1570 PUSH2 0x145E JUMP JUMPDEST JUMPDEST DUP2 CALLDATALOAD PUSH2 0x1581 DUP5 DUP3 PUSH1 0x20 DUP7 ADD PUSH2 0x151C JUMP JUMPDEST SWAP2 POP POP SWAP3 SWAP2 POP POP JUMP JUMPDEST PUSH0 PUSH1 0x20 DUP3 DUP5 SUB SLT ISZERO PUSH2 0x159F JUMPI PUSH2 0x159E PUSH2 0xF32 JUMP JUMPDEST JUMPDEST PUSH0 DUP3 ADD CALLDATALOAD PUSH8 0xFFFFFFFFFFFFFFFF DUP2 GT ISZERO PUSH2 0x15BC JUMPI PUSH2 0x15BB PUSH2 0xF36 JUMP JUMPDEST JUMPDEST PUSH2 0x15C8 DUP5 DUP3 DUP6 ADD PUSH2 0x155D JUMP JUMPDEST SWAP2 POP POP SWAP3 SWAP2 POP POP JUMP JUMPDEST PUSH32 0x4E487B7100000000000000000000000000000000000000000000000000000000 PUSH0 MSTORE PUSH1 0x22 PUSH1 0x4 MSTORE PUSH1 0x24 PUSH0 REVERT JUMPDEST PUSH0 PUSH1 0x2 DUP3 DIV SWAP1 POP PUSH1 0x1 DUP3 AND DUP1 PUSH2 0x1615 JUMPI PUSH1 0x7F DUP3 AND SWAP2 POP JUMPDEST PUSH1 0x20 DUP3 LT DUP2 SUB PUSH2 0x1628 JUMPI PUSH2 0x1627 PUSH2 0x15D1 JUMP JUMPDEST JUMPDEST POP SWAP2 SWAP1 POP JUMP JUMPDEST PUSH32 0x636F6E7472616374206973207061757365000000000000000000000000000000 PUSH0 DUP3 ADD MSTORE POP JUMP JUMPDEST PUSH0 PUSH2 0x1662 PUSH1 0x11 DUP4 PUSH2 0x102D JUMP JUMPDEST SWAP2 POP PUSH2 0x166D DUP3 PUSH2 0x162E JUMP JUMPDEST PUSH1 0x20 DUP3 ADD SWAP1 POP SWAP2 SWAP1 POP JUMP JUMPDEST PUSH0 PUSH1 0x20 DUP3 ADD SWAP1 POP DUP2 DUP2 SUB PUSH0 DUP4 ADD MSTORE PUSH2 0x168F DUP2 PUSH2 0x1656 JUMP JUMPDEST SWAP1 POP SWAP2 SWAP1 POP JUMP JUMPDEST PUSH32 0x4E487B7100000000000000000000000000000000000000000000000000000000 PUSH0 MSTORE PUSH1 0x32 PUSH1 0x4 MSTORE PUSH1 0x24 PUSH0 REVERT JUMPDEST PUSH32 0x746865207477656574206973206E6F7420666F756E6400000000000000000000 PUSH0 DUP3 ADD MSTORE POP JUMP JUMPDEST PUSH0 PUSH2 0x16F7 PUSH1 0x16 DUP4 PUSH2 0x102D JUMP JUMPDEST SWAP2 POP PUSH2 0x1702 DUP3 PUSH2 0x16C3 JUMP JUMPDEST PUSH1 0x20 DUP3 ADD SWAP1 POP SWAP2 SWAP1 POP JUMP JUMPDEST PUSH0 PUSH1 0x20 DUP3 ADD SWAP1 POP DUP2 DUP2 SUB PUSH0 DUP4 ADD MSTORE PUSH2 0x1724 DUP2 PUSH2 0x16EB JUMP JUMPDEST SWAP1 POP SWAP2 SWAP1 POP JUMP JUMPDEST PUSH32 0x4E487B7100000000000000000000000000000000000000000000000000000000 PUSH0 MSTORE PUSH1 0x11 PUSH1 0x4 MSTORE PUSH1 0x24 PUSH0 REVERT JUMPDEST PUSH0 PUSH2 0x1762 DUP3 PUSH2 0xF94 JUMP JUMPDEST SWAP2 POP PUSH0 DUP3 SUB PUSH2 0x1774 JUMPI PUSH2 0x1773 PUSH2 0x172B JUMP JUMPDEST JUMPDEST PUSH1 0x1 DUP3 SUB SWAP1 POP SWAP2 SWAP1 POP JUMP JUMPDEST PUSH0 PUSH1 0x80 DUP3 ADD SWAP1 POP PUSH2 0x1792 PUSH0 DUP4 ADD DUP8 PUSH2 0x1014 JUMP JUMPDEST PUSH2 0x179F PUSH1 0x20 DUP4 ADD DUP7 PUSH2 0x1014 JUMP JUMPDEST PUSH2 0x17AC PUSH1 0x40 DUP4 ADD DUP6 PUSH2 0x1005 JUMP JUMPDEST PUSH2 0x17B9 PUSH1 0x60 DUP4 ADD DUP5 PUSH2 0x1005 JUMP JUMPDEST SWAP6 SWAP5 POP POP POP POP POP JUMP JUMPDEST PUSH32 0x74686520747765657420636F6E74656E7420697320746F6F206C6F6E67000000 PUSH0 DUP3 ADD MSTORE POP JUMP JUMPDEST PUSH0 PUSH2 0x17F6 PUSH1 0x1D DUP4 PUSH2 0x102D JUMP JUMPDEST SWAP2 POP PUSH2 0x1801 DUP3 PUSH2 0x17C2 JUMP JUMPDEST PUSH1 0x20 DUP3 ADD SWAP1 POP SWAP2 SWAP1 POP JUMP JUMPDEST PUSH0 PUSH1 0x20 DUP3 ADD SWAP1 POP DUP2 DUP2 SUB PUSH0 DUP4 ADD MSTORE PUSH2 0x1823 DUP2 PUSH2 0x17EA JUMP JUMPDEST SWAP1 POP SWAP2 SWAP1 POP JUMP JUMPDEST PUSH0 DUP2 SWAP1 POP DUP2 PUSH0 MSTORE PUSH1 0x20 PUSH0 KECCAK256 SWAP1 POP SWAP2 SWAP1 POP JUMP JUMPDEST PUSH0 PUSH1 0x20 PUSH1 0x1F DUP4 ADD DIV SWAP1 POP SWAP2 SWAP1 POP JUMP JUMPDEST PUSH0 DUP3 DUP3 SHL SWAP1 POP SWAP3 SWAP2 POP POP JUMP JUMPDEST PUSH0 PUSH1 0x8 DUP4 MUL PUSH2 0x1886 PUSH32 0xFFFFFFFFFFFFFFFFFFFFFFFFFFFFFFFFFFFFFFFFFFFFFFFFFFFFFFFFFFFFFFFF DUP3 PUSH2 0x184B JUMP JUMPDEST PUSH2 0x1890 DUP7 DUP4 PUSH2 0x184B JUMP JUMPDEST SWAP6 POP DUP1 NOT DUP5 AND SWAP4 POP DUP1 DUP7 AND DUP5 OR SWAP3 POP POP POP SWAP4 SWAP3 POP POP POP JUMP JUMPDEST PUSH0 DUP2 SWAP1 POP SWAP2 SWAP1 POP JUMP JUMPDEST PUSH0 PUSH2 0x18CB PUSH2 0x18C6 PUSH2 0x18C1 DUP5 PUSH2 0xF94 JUMP JUMPDEST PUSH2 0x18A8 JUMP JUMPDEST PUSH2 0xF94 JUMP JUMPDEST SWAP1 POP SWAP2 SWAP1 POP JUMP JUMPDEST PUSH0 DUP2 SWAP1 POP SWAP2 SWAP1 POP JUMP JUMPDEST PUSH2 0x18E4 DUP4 PUSH2 0x18B1 JUMP JUMPDEST PUSH2 0x18F8 PUSH2 0x18F0 DUP3 PUSH2 0x18D2 JUMP JUMPDEST DUP5 DUP5 SLOAD PUSH2 0x1857 JUMP JUMPDEST DUP3 SSTORE POP POP POP POP JUMP JUMPDEST PUSH0 PUSH0 SWAP1 POP SWAP1 JUMP JUMPDEST PUSH2 0x190F PUSH2 0x1900 JUMP JUMPDEST PUSH2 0x191A DUP2 DUP5 DUP5 PUSH2 0x18DB JUMP JUMPDEST POP POP POP JUMP JUMPDEST JUMPDEST DUP2 DUP2 LT ISZERO PUSH2 0x193D JUMPI PUSH2 0x1932 PUSH0 DUP3 PUSH2 0x1907 JUMP JUMPDEST PUSH1 0x1 DUP2 ADD SWAP1 POP PUSH2 0x1920 JUMP JUMPDEST POP POP JUMP JUMPDEST PUSH1 0x1F DUP3 GT ISZERO PUSH2 0x1982 JUMPI PUSH2 0x1953 DUP2 PUSH2 0x182A JUMP JUMPDEST PUSH2 0x195C DUP5 PUSH2 0x183C JUMP JUMPDEST DUP2 ADD PUSH1 0x20 DUP6 LT ISZERO PUSH2 0x196B JUMPI DUP2 SWAP1 POP JUMPDEST PUSH2 0x197F PUSH2 0x1977 DUP6 PUSH2 0x183C JUMP JUMPDEST DUP4 ADD DUP3 PUSH2 0x191F JUMP JUMPDEST POP POP JUMPDEST POP POP POP JUMP JUMPDEST PUSH0 DUP3 DUP3 SHR SWAP1 POP SWAP3 SWAP2 POP POP JUMP JUMPDEST PUSH0 PUSH2 0x19A2 PUSH0 NOT DUP5 PUSH1 0x8 MUL PUSH2 0x1987 JUMP JUMPDEST NOT DUP1 DUP4 AND SWAP2 POP POP SWAP3 SWAP2 POP POP JUMP JUMPDEST PUSH0 PUSH2 0x19BA DUP4 DUP4 PUSH2 0x1993 JUMP JUMPDEST SWAP2 POP DUP3 PUSH1 0x2 MUL DUP3 OR SWAP1 POP SWAP3 SWAP2 POP POP JUMP JUMPDEST PUSH2 0x19D3 DUP3 PUSH2 0x1023 JUMP JUMPDEST PUSH8 0xFFFFFFFFFFFFFFFF DUP2 GT ISZERO PUSH2 0x19EC JUMPI PUSH2 0x19EB PUSH2 0x1466 JUMP JUMPDEST JUMPDEST PUSH2 0x19F6 DUP3 SLOAD PUSH2 0x15FE JUMP JUMPDEST PUSH2 0x1A01 DUP3 DUP3 DUP6 PUSH2 0x1941 JUMP JUMPDEST PUSH0 PUSH1 0x20 SWAP1 POP PUSH1 0x1F DUP4 GT PUSH1 0x1 DUP2 EQ PUSH2 0x1A32 JUMPI PUSH0 DUP5 ISZERO PUSH2 0x1A20 JUMPI DUP3 DUP8 ADD MLOAD SWAP1 POP JUMPDEST PUSH2 0x1A2A DUP6 DUP3 PUSH2 0x19AF JUMP JUMPDEST DUP7 SSTORE POP PUSH2 0x1A91 JUMP JUMPDEST PUSH1 0x1F NOT DUP5 AND PUSH2 0x1A40 DUP7 PUSH2 0x182A JUMP JUMPDEST PUSH0 JUMPDEST DUP3 DUP2 LT ISZERO PUSH2 0x1A67 JUMPI DUP5 DUP10 ADD MLOAD DUP3 SSTORE PUSH1 0x1 DUP3 ADD SWAP2 POP PUSH1 0x20 DUP6 ADD SWAP5 POP PUSH1 0x20 DUP2 ADD SWAP1 POP PUSH2 0x1A42 JUMP JUMPDEST DUP7 DUP4 LT ISZERO PUSH2 0x1A84 JUMPI DUP5 DUP10 ADD MLOAD PUSH2 0x1A80 PUSH1 0x1F DUP10 AND DUP3 PUSH2 0x1993 JUMP JUMPDEST DUP4 SSTORE POP JUMPDEST PUSH1 0x1 PUSH1 0x2 DUP9 MUL ADD DUP9 SSTORE POP POP POP JUMPDEST POP POP POP POP POP POP JUMP JUMPDEST PUSH0 PUSH1 0xA0 DUP3 ADD SWAP1 POP PUSH2 0x1AAC PUSH0 DUP4 ADD DUP9 PUSH2 0x1014 JUMP JUMPDEST PUSH2 0x1AB9 PUSH1 0x20 DUP4 ADD DUP8 PUSH2 0x1005 JUMP JUMPDEST DUP2 DUP2 SUB PUSH1 0x40 DUP4 ADD MSTORE PUSH2 0x1ACB DUP2 DUP7 PUSH2 0x105B JUMP JUMPDEST SWAP1 POP PUSH2 0x1ADA PUSH1 0x60 DUP4 ADD DUP6 PUSH2 0x1005 JUMP JUMPDEST PUSH2 0x1AE7 PUSH1 0x80 DUP4 ADD DUP5 PUSH2 0x1005 JUMP JUMPDEST SWAP7 SWAP6 POP POP POP POP POP POP JUMP JUMPDEST PUSH32 0x746865207477656574206973206E6F7420666F756E643B000000000000000000 PUSH0 DUP3 ADD MSTORE POP JUMP JUMPDEST PUSH0 PUSH2 0x1B25 PUSH1 0x17 DUP4 PUSH2 0x102D JUMP JUMPDEST SWAP2 POP PUSH2 0x1B30 DUP3 PUSH2 0x1AF1 JUMP JUMPDEST PUSH1 0x20 DUP3 ADD SWAP1 POP SWAP2 SWAP1 POP JUMP JUMPDEST PUSH0 PUSH1 0x20 DUP3 ADD SWAP1 POP DUP2 DUP2 SUB PUSH0 DUP4 ADD MSTORE PUSH2 0x1B52 DUP2 PUSH2 0x1B19 JUMP JUMPDEST SWAP1 POP SWAP2 SWAP1 POP JUMP JUMPDEST PUSH0 PUSH2 0x1B63 DUP3 PUSH2 0xF94 JUMP JUMPDEST SWAP2 POP PUSH32 0xFFFFFFFFFFFFFFFFFFFFFFFFFFFFFFFFFFFFFFFFFFFFFFFFFFFFFFFFFFFFFFFF DUP3 SUB PUSH2 0x1B95 JUMPI PUSH2 0x1B94 PUSH2 0x172B JUMP JUMPDEST JUMPDEST PUSH1 0x1 DUP3 ADD SWAP1 POP SWAP2 SWAP1 POP JUMP INVALID LOG2 PUSH5 0x6970667358 0x22 SLT KECCAK256 0xC6 0x4C RETF ISZERO 0xA7 PUSH3 0x3C3200 PUSH12 0x1E8B25BF6A0F8156BCB7F88B 0xB3 0xBA SWAP9 TIMESTAMP 0xBC SWAP12 PUSH10 0x9D60F64736F6C634300 ADDMOD 0x1E STOP CALLER "
				},
				"gasEstimates": {
					"creation": {
						"codeDepositCost": "1425200",
						"executionCost": "infinite",
						"totalCost": "infinite"
					},
					"external": {
						"MAX_LENGHT()": "2539",
						"changetweetlenght(uint16)": "infinite",
						"createtweet(string)": "infinite",
						"disliketweet(address,uint256)": "infinite",
						"getalltweet(address)": "infinite",
						"gettweet(uint256)": "infinite",
						"liketweet(address,uint256)": "infinite",
						"owner()": "2559",
						"pause()": "2605",
						"pauseed()": "infinite",
						"renounceOwnership()": "infinite",
						"transferOwnership(address)": "infinite",
						"tweets(address,uint256)": "infinite",
						"unpause()": "infinite"
					}
				},
				"methodIdentifiers": {
					"MAX_LENGHT()": "8d70c7db",
					"changetweetlenght(uint16)": "34e9d898",
					"createtweet(string)": "b8e4f167",
					"disliketweet(address,uint256)": "6b05bc7c",
					"getalltweet(address)": "a8b606d6",
					"gettweet(uint256)": "4e61573f",
					"liketweet(address,uint256)": "d4333cd0",
					"owner()": "8da5cb5b",
					"pause()": "8456cb59",
					"pauseed()": "b0b375d2",
					"renounceOwnership()": "715018a6",
					"transferOwnership(address)": "f2fde38b",
					"tweets(address,uint256)": "05a1b4a9",
					"unpause()": "3f4ba83a"
				}
			},
			"storageLayout": {
				"storage": [
					{
						"astId": 8,
						"contract": "contracts/twitter-tweet.sol:twittertweet",
						"label": "_owner",
						"offset": 0,
						"slot": "0",
						"type": "t_address"
					},
					{
						"astId": 185,
						"contract": "contracts/twitter-tweet.sol:twittertweet",
						"label": "pause",
						"offset": 20,
						"slot": "0",
						"type": "t_bool"
					},
					{
						"astId": 188,
						"contract": "contracts/twitter-tweet.sol:twittertweet",
						"label": "MAX_LENGHT",
						"offset": 21,
						"slot": "0",
						"type": "t_uint16"
					},
					{
						"astId": 290,
						"contract": "contracts/twitter-tweet.sol:twittertweet",
						"label": "tweets",
						"offset": 0,
						"slot": "1",
						"type": "t_mapping(t_address,t_array(t_struct(tweet)284_storage)dyn_storage)"
					}
				],
				"types": {
					"t_address": {
						"encoding": "inplace",
						"label": "address",
						"numberOfBytes": "20"
					},
					"t_array(t_struct(tweet)284_storage)dyn_storage": {
						"base": "t_struct(tweet)284_storage",
						"encoding": "dynamic_array",
						"label": "struct twittertweet.tweet[]",
						"numberOfBytes": "32"
					},
					"t_bool": {
						"encoding": "inplace",
						"label": "bool",
						"numberOfBytes": "1"
					},
					"t_mapping(t_address,t_array(t_struct(tweet)284_storage)dyn_storage)": {
						"encoding": "mapping",
						"key": "t_address",
						"label": "mapping(address => struct twittertweet.tweet[])",
						"numberOfBytes": "32",
						"value": "t_array(t_struct(tweet)284_storage)dyn_storage"
					},
					"t_string_storage": {
						"encoding": "bytes",
						"label": "string",
						"numberOfBytes": "32"
					},
					"t_struct(tweet)284_storage": {
						"encoding": "inplace",
						"label": "struct twittertweet.tweet",
						"members": [
							{
								"astId": 275,
								"contract": "contracts/twitter-tweet.sol:twittertweet",
								"label": "id",
								"offset": 0,
								"slot": "0",
								"type": "t_uint256"
							},
							{
								"astId": 277,
								"contract": "contracts/twitter-tweet.sol:twittertweet",
								"label": "author",
								"offset": 0,
								"slot": "1",
								"type": "t_address"
							},
							{
								"astId": 279,
								"contract": "contracts/twitter-tweet.sol:twittertweet",
								"label": "content",
								"offset": 0,
								"slot": "2",
								"type": "t_string_storage"
							},
							{
								"astId": 281,
								"contract": "contracts/twitter-tweet.sol:twittertweet",
								"label": "timestamp",
								"offset": 0,
								"slot": "3",
								"type": "t_uint256"
							},
							{
								"astId": 283,
								"contract": "contracts/twitter-tweet.sol:twittertweet",
								"label": "likes",
								"offset": 0,
								"slot": "4",
								"type": "t_uint256"
							}
						],
						"numberOfBytes": "160"
					},
					"t_uint16": {
						"encoding": "inplace",
						"label": "uint16",
						"numberOfBytes": "2"
					},
					"t_uint256": {
						"encoding": "inplace",
						"label": "uint256",
						"numberOfBytes": "32"
					}
				}
			},
			"userdoc": {
				"kind": "user",
				"methods": {},
				"version": 1
			}
		}
	}
}